{
  "address": "0xBbAaA056eaF64A45dEfb56B00910632ED2dE0a9F",
  "abi": [
    {
      "anonymous": false,
      "inputs": [
        {
          "indexed": false,
          "internalType": "address",
          "name": "user",
          "type": "address"
        },
        {
          "indexed": false,
          "internalType": "uint256",
          "name": "remainingAmount",
          "type": "uint256"
        },
        {
          "indexed": false,
          "internalType": "address",
          "name": "inputToken",
          "type": "address"
        },
        {
          "indexed": false,
          "internalType": "uint256",
          "name": "outputAmount",
          "type": "uint256"
        },
        {
          "indexed": false,
          "internalType": "address",
          "name": "outputToken",
          "type": "address"
        },
        {
          "components": [
            {
              "internalType": "uint256",
              "name": "protocolFee",
              "type": "uint256"
            },
            {
              "internalType": "uint256",
              "name": "lockerFee",
              "type": "uint256"
            },
            {
              "internalType": "uint256",
              "name": "thirdPartyFee",
              "type": "uint256"
            }
          ],
          "indexed": false,
          "internalType": "struct IRuneRouter.fees",
          "name": "fee",
          "type": "tuple"
        },
        {
          "indexed": false,
          "internalType": "address",
          "name": "thirdPartyAddress",
          "type": "address"
        },
        {
          "indexed": false,
          "internalType": "bytes32",
          "name": "txId",
          "type": "bytes32"
        }
      ],
      "name": "FailedRuneWrapAndSwap",
      "type": "event"
    },
    {
      "anonymous": false,
      "inputs": [
        {
          "indexed": false,
          "internalType": "uint8",
          "name": "version",
          "type": "uint8"
        }
      ],
      "name": "Initialized",
      "type": "event"
    },
    {
      "anonymous": false,
      "inputs": [
        {
          "indexed": false,
          "internalType": "address",
          "name": "oldLocker",
          "type": "address"
        },
        {
          "indexed": false,
          "internalType": "address",
          "name": "newLocker",
          "type": "address"
        }
      ],
      "name": "NewLocker",
      "type": "event"
    },
    {
      "anonymous": false,
      "inputs": [
        {
          "indexed": false,
          "internalType": "uint256",
          "name": "oldLockerPercentageFee",
          "type": "uint256"
        },
        {
          "indexed": false,
          "internalType": "uint256",
          "name": "newLockerPercentageFee",
          "type": "uint256"
        }
      ],
      "name": "NewLockerPercentageFee",
      "type": "event"
    },
    {
      "anonymous": false,
      "inputs": [
        {
          "indexed": false,
          "internalType": "uint256",
          "name": "oldProtocolPercentageFee",
          "type": "uint256"
        },
        {
          "indexed": false,
          "internalType": "uint256",
          "name": "newProtocolPercentageFee",
          "type": "uint256"
        }
      ],
      "name": "NewProtocolPercentageFee",
      "type": "event"
    },
    {
      "anonymous": false,
      "inputs": [
        {
          "indexed": false,
          "internalType": "address",
          "name": "oldRelay",
          "type": "address"
        },
        {
          "indexed": false,
          "internalType": "address",
          "name": "newRelay",
          "type": "address"
        }
      ],
      "name": "NewRelay",
      "type": "event"
    },
    {
      "anonymous": false,
      "inputs": [
        {
          "indexed": false,
          "internalType": "string",
          "name": "name",
          "type": "string"
        },
        {
          "indexed": false,
          "internalType": "string",
          "name": "symbol",
          "type": "string"
        },
        {
          "indexed": false,
          "internalType": "string",
          "name": "runeId",
          "type": "string"
        },
        {
          "indexed": false,
          "internalType": "uint256",
          "name": "decimal",
          "type": "uint256"
        },
        {
          "indexed": false,
          "internalType": "uint256",
          "name": "internalId",
          "type": "uint256"
        },
        {
          "indexed": false,
          "internalType": "address",
          "name": "wRuneProxy",
          "type": "address"
        },
        {
          "indexed": false,
          "internalType": "address",
          "name": "wRuneLogic",
          "type": "address"
        }
      ],
      "name": "NewRune",
      "type": "event"
    },
    {
      "anonymous": false,
      "inputs": [
        {
          "indexed": false,
          "internalType": "address",
          "name": "user",
          "type": "address"
        },
        {
          "indexed": false,
          "internalType": "bytes",
          "name": "userScript",
          "type": "bytes"
        },
        {
          "indexed": false,
          "internalType": "enum ScriptTypes",
          "name": "scriptType",
          "type": "uint8"
        },
        {
          "indexed": false,
          "internalType": "uint256",
          "name": "inputAmount",
          "type": "uint256"
        },
        {
          "indexed": false,
          "internalType": "address",
          "name": "inputToken",
          "type": "address"
        },
        {
          "indexed": false,
          "internalType": "uint256",
          "name": "outputAmount",
          "type": "uint256"
        },
        {
          "indexed": false,
          "internalType": "uint256",
          "name": "remainingAmount",
          "type": "uint256"
        },
        {
          "indexed": false,
          "internalType": "address",
          "name": "outputToken",
          "type": "address"
        },
        {
          "components": [
            {
              "internalType": "uint256",
              "name": "protocolFee",
              "type": "uint256"
            },
            {
              "internalType": "uint256",
              "name": "lockerFee",
              "type": "uint256"
            },
            {
              "internalType": "uint256",
              "name": "thirdPartyFee",
              "type": "uint256"
            }
          ],
          "indexed": false,
          "internalType": "struct IRuneRouter.fees",
          "name": "fee",
          "type": "tuple"
        },
        {
          "indexed": false,
          "internalType": "uint256",
          "name": "unwrapFee",
          "type": "uint256"
        },
        {
          "indexed": false,
          "internalType": "address",
          "name": "thirdPartyAddress",
          "type": "address"
        },
        {
          "indexed": false,
          "internalType": "uint256",
          "name": "reqIdx",
          "type": "uint256"
        }
      ],
      "name": "NewRuneSwapAndUnwrap",
      "type": "event"
    },
    {
      "anonymous": false,
      "inputs": [
        {
          "indexed": false,
          "internalType": "address",
          "name": "user",
          "type": "address"
        },
        {
          "indexed": false,
          "internalType": "bytes",
          "name": "userScript",
          "type": "bytes"
        },
        {
          "indexed": false,
          "internalType": "enum ScriptTypes",
          "name": "scriptType",
          "type": "uint8"
        },
        {
          "indexed": false,
          "internalType": "address",
          "name": "inputToken",
          "type": "address"
        },
        {
          "indexed": false,
          "internalType": "uint256",
          "name": "inputAmount",
          "type": "uint256"
        },
        {
          "indexed": false,
          "internalType": "uint256",
          "name": "remainingAmount",
          "type": "uint256"
        },
        {
          "components": [
            {
              "internalType": "uint256",
              "name": "protocolFee",
              "type": "uint256"
            },
            {
              "internalType": "uint256",
              "name": "lockerFee",
              "type": "uint256"
            },
            {
              "internalType": "uint256",
              "name": "thirdPartyFee",
              "type": "uint256"
            }
          ],
          "indexed": false,
          "internalType": "struct IRuneRouter.fees",
          "name": "fee",
          "type": "tuple"
        },
        {
          "indexed": false,
          "internalType": "uint256",
          "name": "unwrapFee",
          "type": "uint256"
        },
        {
          "indexed": false,
          "internalType": "address",
          "name": "thirdPartyAddress",
          "type": "address"
        },
        {
          "indexed": false,
          "internalType": "uint256",
          "name": "reqIdx",
          "type": "uint256"
        }
      ],
      "name": "NewRuneUnwrap",
      "type": "event"
    },
    {
      "anonymous": false,
      "inputs": [
        {
          "indexed": false,
          "internalType": "address",
          "name": "user",
          "type": "address"
        },
        {
          "indexed": false,
          "internalType": "uint256",
          "name": "remainingAmount",
          "type": "uint256"
        },
        {
          "indexed": false,
          "internalType": "address",
          "name": "inputToken",
          "type": "address"
        },
        {
          "components": [
            {
              "internalType": "uint256",
              "name": "protocolFee",
              "type": "uint256"
            },
            {
              "internalType": "uint256",
              "name": "lockerFee",
              "type": "uint256"
            },
            {
              "internalType": "uint256",
              "name": "thirdPartyFee",
              "type": "uint256"
            }
          ],
          "indexed": false,
          "internalType": "struct IRuneRouter.fees",
          "name": "fee",
          "type": "tuple"
        },
        {
          "indexed": false,
          "internalType": "address",
          "name": "thirdPartyAddress",
          "type": "address"
        },
        {
          "indexed": false,
          "internalType": "bytes32",
          "name": "txId",
          "type": "bytes32"
        }
      ],
      "name": "NewRuneWrap",
      "type": "event"
    },
    {
      "anonymous": false,
      "inputs": [
        {
          "indexed": false,
          "internalType": "address",
          "name": "user",
          "type": "address"
        },
        {
          "indexed": false,
          "internalType": "uint256",
          "name": "remainingAmount",
          "type": "uint256"
        },
        {
          "indexed": false,
          "internalType": "address",
          "name": "inputToken",
          "type": "address"
        },
        {
          "indexed": false,
          "internalType": "uint256",
          "name": "outputAmount",
          "type": "uint256"
        },
        {
          "indexed": false,
          "internalType": "address",
          "name": "outputToken",
          "type": "address"
        },
        {
          "components": [
            {
              "internalType": "uint256",
              "name": "protocolFee",
              "type": "uint256"
            },
            {
              "internalType": "uint256",
              "name": "lockerFee",
              "type": "uint256"
            },
            {
              "internalType": "uint256",
              "name": "thirdPartyFee",
              "type": "uint256"
            }
          ],
          "indexed": false,
          "internalType": "struct IRuneRouter.fees",
          "name": "fee",
          "type": "tuple"
        },
        {
          "indexed": false,
          "internalType": "address",
          "name": "thirdPartyAddress",
          "type": "address"
        },
        {
          "indexed": false,
          "internalType": "bytes32",
          "name": "txId",
          "type": "bytes32"
        }
      ],
      "name": "NewRuneWrapAndSwap",
      "type": "event"
    },
    {
      "anonymous": false,
      "inputs": [
        {
          "indexed": false,
          "internalType": "address",
          "name": "oldTeleporter",
          "type": "address"
        },
        {
          "indexed": false,
          "internalType": "address",
          "name": "newTeleporter",
          "type": "address"
        }
      ],
      "name": "NewTeleporter",
      "type": "event"
    },
    {
      "anonymous": false,
      "inputs": [
        {
          "indexed": false,
          "internalType": "address",
          "name": "oldTreasury",
          "type": "address"
        },
        {
          "indexed": false,
          "internalType": "address",
          "name": "newTreasury",
          "type": "address"
        }
      ],
      "name": "NewTreasury",
      "type": "event"
    },
    {
      "anonymous": false,
      "inputs": [
        {
          "indexed": true,
          "internalType": "address",
          "name": "previousOwner",
          "type": "address"
        },
        {
          "indexed": true,
          "internalType": "address",
          "name": "newOwner",
          "type": "address"
        }
      ],
      "name": "OwnershipTransferred",
      "type": "event"
    },
    {
      "anonymous": false,
      "inputs": [
        {
          "indexed": false,
          "internalType": "uint256",
          "name": "tokenId",
          "type": "uint256"
        },
        {
          "indexed": false,
          "internalType": "address",
          "name": "wRuneProxy",
          "type": "address"
        }
      ],
      "name": "RuneRemoved",
      "type": "event"
    },
    {
      "anonymous": false,
      "inputs": [
        {
          "indexed": false,
          "internalType": "uint256",
          "name": "appId",
          "type": "uint256"
        },
        {
          "indexed": false,
          "internalType": "address",
          "name": "exchangeConnector",
          "type": "address"
        }
      ],
      "name": "SetExchangeConnector",
      "type": "event"
    },
    {
      "anonymous": false,
      "inputs": [
        {
          "indexed": false,
          "internalType": "uint256",
          "name": "thirdPartyId",
          "type": "uint256"
        },
        {
          "indexed": false,
          "internalType": "address",
          "name": "oldAddress",
          "type": "address"
        },
        {
          "indexed": false,
          "internalType": "uint256",
          "name": "oldFee",
          "type": "uint256"
        },
        {
          "indexed": false,
          "internalType": "address",
          "name": "newAddress",
          "type": "address"
        },
        {
          "indexed": false,
          "internalType": "uint256",
          "name": "newFee",
          "type": "uint256"
        }
      ],
      "name": "ThirdPartyInfoUpdated",
      "type": "event"
    },
    {
      "anonymous": false,
      "inputs": [
        {
          "indexed": false,
          "internalType": "uint256",
          "name": "oldFee",
          "type": "uint256"
        },
        {
          "indexed": false,
          "internalType": "uint256",
          "name": "newFee",
          "type": "uint256"
        }
      ],
      "name": "UnwrapFeeUpdated",
      "type": "event"
    },
    {
      "anonymous": false,
      "inputs": [
        {
          "indexed": false,
          "internalType": "address",
          "name": "user",
          "type": "address"
        },
        {
          "indexed": false,
          "internalType": "uint256",
          "name": "remainingAmount",
          "type": "uint256"
        },
        {
          "indexed": false,
          "internalType": "bytes",
          "name": "userScript",
          "type": "bytes"
        },
        {
          "indexed": false,
          "internalType": "enum ScriptTypes",
          "name": "scriptType",
          "type": "uint8"
        },
        {
          "indexed": false,
          "internalType": "uint256",
          "name": "reqIdx",
          "type": "uint256"
        },
        {
          "indexed": false,
          "internalType": "bytes32",
          "name": "txId",
          "type": "bytes32"
        }
      ],
      "name": "UnwrapRuneProcessed",
      "type": "event"
    },
    {
      "inputs": [
        {
          "internalType": "string",
          "name": "_name",
          "type": "string"
        },
        {
          "internalType": "string",
          "name": "_symbol",
          "type": "string"
        },
        {
          "internalType": "string",
          "name": "_runeId",
          "type": "string"
        },
        {
          "internalType": "uint8",
          "name": "_decimal",
          "type": "uint8"
        },
        {
          "internalType": "uint256",
          "name": "_internalId",
          "type": "uint256"
        }
      ],
      "name": "addRune",
      "outputs": [],
      "stateMutability": "nonpayable",
      "type": "function"
    },
    {
      "inputs": [],
      "name": "chainId",
      "outputs": [
        {
          "internalType": "uint256",
          "name": "",
          "type": "uint256"
        }
      ],
      "stateMutability": "view",
      "type": "function"
    },
    {
      "inputs": [
        {
          "internalType": "uint256",
          "name": "",
          "type": "uint256"
        }
      ],
      "name": "exchangeConnector",
      "outputs": [
        {
          "internalType": "address",
          "name": "",
          "type": "address"
        }
      ],
      "stateMutability": "view",
      "type": "function"
    },
    {
      "inputs": [
        {
          "internalType": "uint256",
          "name": "_startingBlockNumber",
          "type": "uint256"
        },
        {
          "internalType": "uint256",
          "name": "_protocolPercentageFee",
          "type": "uint256"
        },
        {
          "internalType": "uint256",
          "name": "_lockerPercentageFee",
          "type": "uint256"
        },
        {
          "internalType": "uint256",
          "name": "_chainId",
          "type": "uint256"
        },
        {
          "internalType": "address",
          "name": "_relay",
          "type": "address"
        },
        {
          "internalType": "address",
          "name": "_locker",
          "type": "address"
        },
        {
          "internalType": "bytes",
          "name": "_lockerLockingScript",
          "type": "bytes"
        },
        {
          "internalType": "enum ScriptTypes",
          "name": "_lockerScriptType",
          "type": "uint8"
        },
        {
          "internalType": "address",
          "name": "_teleporter",
          "type": "address"
        },
        {
          "internalType": "address",
          "name": "_treasury",
          "type": "address"
        },
        {
          "internalType": "address",
          "name": "_wrappedNativeToken",
          "type": "address"
        }
      ],
      "name": "initialize",
      "outputs": [],
      "stateMutability": "nonpayable",
      "type": "function"
    },
    {
      "inputs": [
        {
          "internalType": "address",
          "name": "",
          "type": "address"
        }
      ],
      "name": "internalIds",
      "outputs": [
        {
          "internalType": "uint256",
          "name": "",
          "type": "uint256"
        }
      ],
      "stateMutability": "view",
      "type": "function"
    },
    {
      "inputs": [
        {
          "internalType": "uint256",
          "name": "_reqIdx",
          "type": "uint256"
        }
      ],
      "name": "isUnwrapRequestProcessed",
      "outputs": [
        {
          "internalType": "bool",
          "name": "",
          "type": "bool"
        }
      ],
      "stateMutability": "view",
      "type": "function"
    },
    {
      "inputs": [
        {
          "internalType": "bytes32",
          "name": "_txId",
          "type": "bytes32"
        }
      ],
      "name": "isWrapRequestProcessed",
      "outputs": [
        {
          "internalType": "bool",
          "name": "",
          "type": "bool"
        }
      ],
      "stateMutability": "view",
      "type": "function"
    },
    {
      "inputs": [],
      "name": "locker",
      "outputs": [
        {
          "internalType": "address",
          "name": "",
          "type": "address"
        }
      ],
      "stateMutability": "view",
      "type": "function"
    },
    {
      "inputs": [],
      "name": "lockerLockingScript",
      "outputs": [
        {
          "internalType": "bytes",
          "name": "",
          "type": "bytes"
        }
      ],
      "stateMutability": "view",
      "type": "function"
    },
    {
      "inputs": [],
      "name": "lockerPercentageFee",
      "outputs": [
        {
          "internalType": "uint256",
          "name": "",
          "type": "uint256"
        }
      ],
      "stateMutability": "view",
      "type": "function"
    },
    {
      "inputs": [],
      "name": "lockerScriptType",
      "outputs": [
        {
          "internalType": "enum ScriptTypes",
          "name": "",
          "type": "uint8"
        }
      ],
      "stateMutability": "view",
      "type": "function"
    },
    {
      "inputs": [],
      "name": "owner",
      "outputs": [
        {
          "internalType": "address",
          "name": "",
          "type": "address"
        }
      ],
      "stateMutability": "view",
      "type": "function"
    },
    {
      "inputs": [],
      "name": "protocolPercentageFee",
      "outputs": [
        {
          "internalType": "uint256",
          "name": "",
          "type": "uint256"
        }
      ],
      "stateMutability": "view",
      "type": "function"
    },
    {
      "inputs": [],
      "name": "relay",
      "outputs": [
        {
          "internalType": "address",
          "name": "",
          "type": "address"
        }
      ],
      "stateMutability": "view",
      "type": "function"
    },
    {
      "inputs": [
        {
          "internalType": "uint256",
          "name": "_internalId",
          "type": "uint256"
        }
      ],
      "name": "removeRune",
      "outputs": [],
      "stateMutability": "nonpayable",
      "type": "function"
    },
    {
      "inputs": [],
      "name": "renounceOwnership",
      "outputs": [],
      "stateMutability": "nonpayable",
      "type": "function"
    },
    {
      "inputs": [],
      "name": "rewardDistributor",
      "outputs": [
        {
          "internalType": "address",
          "name": "",
          "type": "address"
        }
      ],
      "stateMutability": "view",
      "type": "function"
    },
    {
      "inputs": [
        {
          "internalType": "address",
          "name": "",
          "type": "address"
        }
      ],
      "name": "runeIds",
      "outputs": [
        {
          "internalType": "string",
          "name": "",
          "type": "string"
        }
      ],
      "stateMutability": "view",
      "type": "function"
    },
    {
      "inputs": [],
      "name": "runeUnwrapCounter",
      "outputs": [
        {
          "internalType": "uint256",
          "name": "",
          "type": "uint256"
        }
      ],
      "stateMutability": "view",
      "type": "function"
    },
    {
      "inputs": [
        {
          "internalType": "uint256",
          "name": "",
          "type": "uint256"
        }
      ],
      "name": "runeUnwrapRequests",
      "outputs": [
        {
          "internalType": "bool",
          "name": "isProcessed",
          "type": "bool"
        },
        {
          "internalType": "uint256",
          "name": "amount",
          "type": "uint256"
        },
        {
          "internalType": "uint256",
          "name": "burntAmount",
          "type": "uint256"
        },
        {
          "internalType": "uint256",
          "name": "appId",
          "type": "uint256"
        },
        {
          "internalType": "address",
          "name": "sender",
          "type": "address"
        },
        {
          "internalType": "bytes",
          "name": "userScript",
          "type": "bytes"
        },
        {
          "internalType": "enum ScriptTypes",
          "name": "scriptType",
          "type": "uint8"
        }
      ],
      "stateMutability": "view",
      "type": "function"
    },
    {
      "inputs": [
        {
          "internalType": "bytes32",
          "name": "",
          "type": "bytes32"
        }
      ],
      "name": "runeWrapRequests",
      "outputs": [
        {
          "internalType": "bool",
          "name": "isUsed",
          "type": "bool"
        },
        {
          "internalType": "uint256",
          "name": "chainId",
          "type": "uint256"
        },
        {
          "internalType": "uint256",
          "name": "appId",
          "type": "uint256"
        },
        {
          "internalType": "uint256",
          "name": "tokenId",
          "type": "uint256"
        },
        {
          "internalType": "uint256",
          "name": "inputAmount",
          "type": "uint256"
        },
        {
          "internalType": "address",
          "name": "inputToken",
          "type": "address"
        },
        {
          "internalType": "address",
          "name": "recipientAddress",
          "type": "address"
        },
        {
          "internalType": "uint256",
          "name": "thirdPartyId",
          "type": "uint256"
        },
        {
          "internalType": "uint256",
          "name": "fee",
          "type": "uint256"
        },
        {
          "internalType": "uint256",
          "name": "outputAmount",
          "type": "uint256"
        },
        {
          "internalType": "address",
          "name": "outputToken",
          "type": "address"
        }
      ],
      "stateMutability": "view",
      "type": "function"
    },
    {
      "inputs": [
        {
          "internalType": "uint256",
          "name": "_chainId",
          "type": "uint256"
        }
      ],
      "name": "setChainId",
      "outputs": [],
      "stateMutability": "nonpayable",
      "type": "function"
    },
    {
      "inputs": [
        {
          "internalType": "uint256",
          "name": "_appId",
          "type": "uint256"
        },
        {
          "internalType": "address",
          "name": "_exchangeConnector",
          "type": "address"
        }
      ],
      "name": "setExchangeConnector",
      "outputs": [],
      "stateMutability": "nonpayable",
      "type": "function"
    },
    {
      "inputs": [
        {
          "internalType": "address",
          "name": "_locker",
          "type": "address"
        }
      ],
      "name": "setLocker",
      "outputs": [],
      "stateMutability": "nonpayable",
      "type": "function"
    },
    {
      "inputs": [
        {
          "internalType": "bytes",
          "name": "_lockerLockingScript",
          "type": "bytes"
        },
        {
          "internalType": "enum ScriptTypes",
          "name": "_lockerScriptType",
          "type": "uint8"
        }
      ],
      "name": "setLockerLockingScript",
      "outputs": [],
      "stateMutability": "nonpayable",
      "type": "function"
    },
    {
      "inputs": [
        {
          "internalType": "uint256",
          "name": "_lockerPercentageFee",
          "type": "uint256"
        }
      ],
      "name": "setLockerPercentageFee",
      "outputs": [],
      "stateMutability": "nonpayable",
      "type": "function"
    },
    {
      "inputs": [
        {
          "internalType": "uint256",
          "name": "_protocolPercentageFee",
          "type": "uint256"
        }
      ],
      "name": "setProtocolPercentageFee",
      "outputs": [],
      "stateMutability": "nonpayable",
      "type": "function"
    },
    {
      "inputs": [
        {
          "internalType": "address",
          "name": "_relay",
          "type": "address"
        }
      ],
      "name": "setRelay",
      "outputs": [],
      "stateMutability": "nonpayable",
      "type": "function"
    },
    {
      "inputs": [
        {
          "internalType": "address",
          "name": "_rewardDistributor",
          "type": "address"
        }
      ],
      "name": "setRewardDistributor",
      "outputs": [],
      "stateMutability": "nonpayable",
      "type": "function"
    },
    {
      "inputs": [
        {
          "internalType": "uint256",
          "name": "_startingBlockNumber",
          "type": "uint256"
        }
      ],
      "name": "setStartingBlockNumber",
      "outputs": [],
      "stateMutability": "nonpayable",
      "type": "function"
    },
    {
      "inputs": [
        {
          "internalType": "address",
          "name": "_teleporter",
          "type": "address"
        }
      ],
      "name": "setTeleporter",
      "outputs": [],
      "stateMutability": "nonpayable",
      "type": "function"
    },
    {
      "inputs": [
        {
          "internalType": "uint256",
          "name": "_thirdPartyId",
          "type": "uint256"
        },
        {
          "internalType": "address",
          "name": "_thirdPartyAddress",
          "type": "address"
        },
        {
          "internalType": "uint256",
          "name": "_thirdPartyFee",
          "type": "uint256"
        }
      ],
      "name": "setThirdParty",
      "outputs": [],
      "stateMutability": "nonpayable",
      "type": "function"
    },
    {
      "inputs": [
        {
          "internalType": "address",
          "name": "_treasury",
          "type": "address"
        }
      ],
      "name": "setTreasury",
      "outputs": [],
      "stateMutability": "nonpayable",
      "type": "function"
    },
    {
      "inputs": [
        {
          "internalType": "uint256",
          "name": "_newFee",
          "type": "uint256"
        }
      ],
      "name": "setUnwrapFee",
      "outputs": [],
      "stateMutability": "nonpayable",
      "type": "function"
    },
    {
      "inputs": [
        {
          "internalType": "address",
          "name": "_wrappedRune",
          "type": "address"
        },
        {
          "internalType": "address",
          "name": "_virtualLocker",
          "type": "address"
        }
      ],
      "name": "setVirtualLocker",
      "outputs": [],
      "stateMutability": "nonpayable",
      "type": "function"
    },
    {
      "inputs": [
        {
          "internalType": "address",
          "name": "_wrappedNativeToken",
          "type": "address"
        }
      ],
      "name": "setWrappedNativeToken",
      "outputs": [],
      "stateMutability": "nonpayable",
      "type": "function"
    },
    {
      "inputs": [],
      "name": "startingBlockNumber",
      "outputs": [
        {
          "internalType": "uint256",
          "name": "",
          "type": "uint256"
        }
      ],
      "stateMutability": "view",
      "type": "function"
    },
    {
      "inputs": [
        {
          "internalType": "uint256",
          "name": "",
          "type": "uint256"
        }
      ],
      "name": "supportedRunes",
      "outputs": [
        {
          "internalType": "address",
          "name": "",
          "type": "address"
        }
      ],
      "stateMutability": "view",
      "type": "function"
    },
    {
      "inputs": [],
      "name": "teleporter",
      "outputs": [
        {
          "internalType": "address",
          "name": "",
          "type": "address"
        }
      ],
      "stateMutability": "view",
      "type": "function"
    },
    {
      "inputs": [
        {
          "internalType": "uint256",
          "name": "",
          "type": "uint256"
        }
      ],
      "name": "thirdParties",
      "outputs": [
        {
          "internalType": "address",
          "name": "thirdPartyAddress",
          "type": "address"
        },
        {
          "internalType": "uint256",
          "name": "thirdPartyFee",
          "type": "uint256"
        }
      ],
      "stateMutability": "view",
      "type": "function"
    },
    {
      "inputs": [],
      "name": "totalRuneUnwrapRequests",
      "outputs": [
        {
          "internalType": "uint256",
          "name": "",
          "type": "uint256"
        }
      ],
      "stateMutability": "view",
      "type": "function"
    },
    {
      "inputs": [
        {
          "internalType": "address",
          "name": "newOwner",
          "type": "address"
        }
      ],
      "name": "transferOwnership",
      "outputs": [],
      "stateMutability": "nonpayable",
      "type": "function"
    },
    {
      "inputs": [],
      "name": "treasury",
      "outputs": [
        {
          "internalType": "address",
          "name": "",
          "type": "address"
        }
      ],
      "stateMutability": "view",
      "type": "function"
    },
    {
      "inputs": [],
      "name": "unwrapFee",
      "outputs": [
        {
          "internalType": "uint256",
          "name": "",
          "type": "uint256"
        }
      ],
      "stateMutability": "view",
      "type": "function"
    },
    {
      "inputs": [
        {
          "internalType": "bytes4",
          "name": "_version",
          "type": "bytes4"
        },
        {
          "internalType": "bytes",
          "name": "_vin",
          "type": "bytes"
        },
        {
          "internalType": "bytes",
          "name": "_vout",
          "type": "bytes"
        },
        {
          "internalType": "bytes4",
          "name": "_locktime",
          "type": "bytes4"
        },
        {
          "internalType": "uint256",
          "name": "_blockNumber",
          "type": "uint256"
        },
        {
          "internalType": "bytes",
          "name": "_intermediateNodes",
          "type": "bytes"
        },
        {
          "internalType": "uint256",
          "name": "_index",
          "type": "uint256"
        },
        {
          "internalType": "uint256[]",
          "name": "_reqIndexes",
          "type": "uint256[]"
        }
      ],
      "name": "unwrapProofRune",
      "outputs": [],
      "stateMutability": "payable",
      "type": "function"
    },
    {
      "inputs": [
        {
          "internalType": "uint256",
          "name": "_thirdPartyId",
          "type": "uint256"
        },
        {
          "internalType": "uint256",
          "name": "_internalId",
          "type": "uint256"
        },
        {
          "internalType": "uint256",
          "name": "_amount",
          "type": "uint256"
        },
        {
          "internalType": "bytes",
          "name": "_userScript",
          "type": "bytes"
        },
        {
          "internalType": "enum ScriptTypes",
          "name": "_scriptType",
          "type": "uint8"
        },
        {
          "internalType": "uint256",
          "name": "_appId",
          "type": "uint256"
        },
        {
          "internalType": "uint256",
          "name": "_inputAmount",
          "type": "uint256"
        },
        {
          "internalType": "address[]",
          "name": "_path",
          "type": "address[]"
        }
      ],
      "name": "unwrapRune",
      "outputs": [],
      "stateMutability": "payable",
      "type": "function"
    },
    {
      "inputs": [
        {
          "internalType": "address",
          "name": "",
          "type": "address"
        }
      ],
      "name": "virtualLocker",
      "outputs": [
        {
          "internalType": "address",
          "name": "",
          "type": "address"
        }
      ],
      "stateMutability": "view",
      "type": "function"
    },
    {
      "inputs": [
        {
          "internalType": "bytes4",
          "name": "_version",
          "type": "bytes4"
        },
        {
          "internalType": "bytes",
          "name": "_vin",
          "type": "bytes"
        },
        {
          "internalType": "bytes",
          "name": "_vout",
          "type": "bytes"
        },
        {
          "internalType": "bytes4",
          "name": "_locktime",
          "type": "bytes4"
        },
        {
          "internalType": "uint256",
          "name": "_blockNumber",
          "type": "uint256"
        },
        {
          "internalType": "bytes",
          "name": "_intermediateNodes",
          "type": "bytes"
        },
        {
          "internalType": "uint256",
          "name": "_index",
          "type": "uint256"
        },
        {
          "internalType": "address[]",
          "name": "_path",
          "type": "address[]"
        }
      ],
      "name": "wrapRune",
      "outputs": [],
      "stateMutability": "payable",
      "type": "function"
    },
    {
      "inputs": [],
      "name": "wrappedNativeToken",
      "outputs": [
        {
          "internalType": "address",
          "name": "",
          "type": "address"
        }
      ],
      "stateMutability": "view",
      "type": "function"
    },
    {
      "stateMutability": "payable",
      "type": "receive"
    }
  ],
  "transactionHash": "0x2eae64b112b341e30714b569ef70d7073bcda6725d4118876a8293acc8567248",
  "args": [],
  "numDeployments": 1,
  "solcInputHash": "6a0ec9ea5d76488bfb518082bad8db06",
  "bytecode": "0x608060405234801561001057600080fd5b50615a06806100206000396000f3fe608060405260043610620002645760003560e01c8063023e25b41462000271578063068bf87414620002c3578063088302a614620002ea5780630e72e41e1462000311578063171060ec146200034757806317fcb39b146200036c5780631812adb6146200038e5780631e7107c714620003b55780633669391e14620003da578063402e01f814620003f257806349c544e1146200041757806361d027b3146200042e5780636390802014620004505780636600203d14620004685780636b2857ef146200048d5780636e8adf6114620004b257806370872aa514620004ec578063715018a6146200050457806375122f62146200051c5780637ed557481462000541578063839ae1d714620005665780638be727e1146200057d5780638da5cb5b14620005a25780638e32009714620005ba57806390665eca14620005df5780639637e4a814620005f65780639a8a0592146200061b5780639aed427914620006335780639cbea0ec146200064b5780639eca44531462000685578063a1809b9514620006d9578063a3696a0914620006fe578063a44c2b9a1462000723578063acc2166a1462000748578063ae2a74ee146200076a578063b3ff9f49146200079b578063b4e183f414620007c2578063b59589d114620007e7578063c805f68b1462000809578063d4603f4c146200082e578063d7b96d4e1462000868578063d8484ef5146200088a578063da058ae314620008b5578063e765078814620008da578063e91ffefd14620009ce578063ef0e2ff414620009e5578063f0f442601462000a0a578063f2fde38b1462000a2f578063f80d19481462000a5457600080fd5b366200026c57005b600080fd5b3480156200027e57600080fd5b50620002ab6200029036600462003b48565b609f602052600090815260409020546001600160a01b031681565b604051620002ba9190620041cc565b60405180910390f35b348015620002d057600080fd5b50620002e8620002e236600462003db3565b62000a79565b005b348015620002f757600080fd5b506200030262000d89565b604051620002ba9190620045e1565b3480156200031e57600080fd5b50620003366200033036600462003b48565b62000e1f565b6040519015158152602001620002ba565b3480156200035457600080fd5b50620002e862000366366004620039fe565b62000e6d565b3480156200037957600080fd5b5060a954620002ab906001600160a01b031681565b3480156200039b57600080fd5b50620003a660995481565b604051908152602001620002ba565b348015620003c257600080fd5b50620002e8620003d436600462003b48565b62000f0d565b348015620003e757600080fd5b50620003a6609b5481565b348015620003ff57600080fd5b506200030262000411366004620039fe565b62000f6d565b620002e86200042836600462003b7a565b62000f88565b3480156200043b57600080fd5b50609d54620002ab906001600160a01b031681565b3480156200045d57600080fd5b50620003a6609a5481565b3480156200047557600080fd5b50620002e86200048736600462003b48565b6200177a565b3480156200049a57600080fd5b50620002e8620004ac36600462003ea6565b620017ea565b348015620004bf57600080fd5b50620002ab620004d136600462003b48565b60a3602052600090815260409020546001600160a01b031681565b348015620004f957600080fd5b50620003a660975481565b3480156200051157600080fd5b50620002e86200185d565b3480156200052957600080fd5b50620002e86200053b36600462003ecd565b62001869565b3480156200054e57600080fd5b50620002e86200056036600462003b48565b6200192a565b620002e86200057736600462003c75565b6200199a565b3480156200058a57600080fd5b50620002e86200059c36600462003b48565b62001e11565b348015620005af57600080fd5b50620002ab62001f11565b348015620005c757600080fd5b50620002e8620005d936600462003a3c565b62001f20565b348015620005ec57600080fd5b5060a454620003a6565b3480156200060357600080fd5b50620002e86200061536600462003b48565b62001f58565b3480156200062857600080fd5b50620003a660985481565b3480156200064057600080fd5b50620003a660a85481565b3480156200065857600080fd5b50620002ab6200066a366004620039fe565b60ab602052600090815260409020546001600160a01b031681565b3480156200069257600080fd5b50620006c9620006a436600462003b48565b60a760205260009081526040902080546001909101546001600160a01b039091169082565b604051620002ba9291906200436b565b348015620006e657600080fd5b50620002e8620006f8366004620039fe565b62001fa3565b3480156200070b57600080fd5b50620002e86200071d366004620039fe565b62001fcf565b3480156200073057600080fd5b50620003366200074236600462003b48565b6200207c565b3480156200075557600080fd5b5060aa54620002ab906001600160a01b031681565b3480156200077757600080fd5b50620003a662000789366004620039fe565b60a16020526000908152604090205481565b348015620007a857600080fd5b5060a654620002ab9061010090046001600160a01b031681565b348015620007cf57600080fd5b50620002e8620007e136600462003d62565b6200209b565b348015620007f457600080fd5b50609c54620002ab906001600160a01b031681565b3480156200081657600080fd5b50620002e862000828366004620039fe565b620020f2565b3480156200083b57600080fd5b50620008536200084d36600462003b48565b62002192565b604051620002ba979695949392919062004587565b3480156200087557600080fd5b50609e54620002ab906001600160a01b031681565b3480156200089757600080fd5b5060a654620008a69060ff1681565b604051620002ba9190620045f6565b348015620008c257600080fd5b50620002e8620008d4366004620039fe565b62002286565b348015620008e757600080fd5b5062000964620008f936600462003b48565b60a260205260009081526040902080546001820154600283015460038401546004850154600586015460068701546007880154600889015460098a0154600a909a015460ff9099169997989697959694956001600160a01b039485169593851694929391929091168b565b604080519b15158c5260208c019a909a52988a0197909752606089019590955260808801939093526001600160a01b0391821660a0880152811660c087015260e08601919091526101008501919091526101208401919091521661014082015261016001620002ba565b620002e8620009df36600462003f60565b620022dd565b348015620009f257600080fd5b50620002e862000a0436600462003b48565b62002875565b34801562000a1757600080fd5b50620002e862000a29366004620039fe565b62002884565b34801562000a3c57600080fd5b50620002e862000a4e366004620039fe565b62002924565b34801562000a6157600080fd5b50620002e862000a7336600462003ffa565b620029a3565b62000a8362002b3b565b6000818152609f60205260409020546001600160a01b03161562000ae95760405162461bcd60e51b8152602060048201526018602482015277149d5b99549bdd5d195c931bd9da58ce881d5cd959081a5960421b60448201526064015b60405180910390fd5b600073c5001e0B89a0F721510CeaF7dcaBAB31658d5D386374c6d02c6040518163ffffffff1660e01b815260040160206040518083038186803b15801562000b3057600080fd5b505af415801562000b45573d6000803e3d6000fd5b505050506040513d601f19601f8201168201806040525081019062000b6b919062003a1d565b9050606060008262000b7c62001f11565b8360405162000b8b90620036c6565b62000b9993929190620041fa565b604051809103906000f08015801562000bb6573d6000803e3d6000fd5b50604051630b127b6360e11b815290915081906001600160a01b03821690631624f6c69062000bee908c908c908b9060040162004678565b600060405180830381600087803b15801562000c0957600080fd5b505af115801562000c1e573d6000803e3d6000fd5b5050604051634c1d96ab60e11b81526001600160a01b038416925063983b2d56915062000c50903090600401620041cc565b600060405180830381600087803b15801562000c6b57600080fd5b505af115801562000c80573d6000803e3d6000fd5b5050604051637a231bdd60e11b81526001600160a01b038416925063f44637ba915062000cb2903090600401620041cc565b600060405180830381600087803b15801562000ccd57600080fd5b505af115801562000ce2573d6000803e3d6000fd5b5050506000868152609f6020908152604080832080546001600160a01b0319166001600160a01b038716908117909155835260a1825280832089905560a08252909120895162000d38935090918a0190620036d4565b507f175ec5a73d18c14429b1199d5fac7097c1c021f98a45d4bcfdeddedfbcc04f3c8989898989868a60405162000d76979695949392919062004606565b60405180910390a1505050505050505050565b60a5805462000d989062004a07565b80601f016020809104026020016040519081016040528092919081815260200182805462000dc69062004a07565b801562000e175780601f1062000deb5761010080835404028352916020019162000e17565b820191906000526020600020905b81548152906001019060200180831162000df957829003601f168201915b505050505081565b600060a4828154811062000e4357634e487b7160e01b600052603260045260246000fd5b600091825260209091206007909102015460ff1662000e6457600062000e67565b60015b92915050565b806001600160a01b03811662000e975760405162461bcd60e51b815260040162000ae09062004737565b62000ea162002b3b565b609e546040517f69253c7023f628e3a302b63087a3bfc1dfdb256780182f81b9f0df9eff9542b09162000ee2916001600160a01b03909116908590620041e0565b60405180910390a150609e80546001600160a01b0319166001600160a01b0392909216919091179055565b62000f1762002b3b565b609754811162000f685760405162461bcd60e51b815260206004820152601b60248201527a293ab732a937baba32b92637b3b4b19d103637bb90373ab6b132b960291b604482015260640162000ae0565b609755565b60a0602052600090815260409020805462000d989062004a07565b62000f9262002b9e565b60a65461010090046001600160a01b0316336001600160a01b03161462000ffc5760405162461bcd60e51b815260206004820152601f60248201527f52756e65526f757465724c6f6769633a206e6f742074656c65706f7274657200604482015260640162000ae0565b600073c5001e0B89a0F721510CeaF7dcaBAB31658d5D3863e291283d609754609c60009054906101000a90046001600160a01b03168e8e8e8e8e8e8e8e8e6040518c63ffffffff1660e01b8152600401620010629b9a9998979695949392919062004785565b60206040518083038186803b1580156200107b57600080fd5b505af415801562001090573d6000803e3d6000fd5b505050506040513d601f19601f82011682018060405250810190620010b6919062003b61565b905060008060008073c5001e0B89a0F721510CeaF7dcaBAB31658d5D3863d27fd71f6098548f8f8960a2609f60a7609954609a546040518a63ffffffff1660e01b81526004016200111099989796959493929190620048ab565b60c06040518083038186803b1580156200112957600080fd5b505af41580156200113e573d6000803e3d6000fd5b505050506040513d601f19601f8201168201806040525081019062001164919062003f07565b9350935093509350806001600160a01b03166340c10f1930868660400151876020015188600001516200119891906200499f565b620011a491906200499f565b620011b091906200499f565b6040518363ffffffff1660e01b8152600401620011cf9291906200436b565b602060405180830381600087803b158015620011ea57600080fd5b505af1158015620011ff573d6000803e3d6000fd5b505050506040513d601f19601f8201168201806040525081019062001225919062003a79565b50609d54835160405163a9059cbb60e01b81526001600160a01b038481169363a9059cbb936200125d9392909116916004016200436b565b602060405180830381600087803b1580156200127857600080fd5b505af11580156200128d573d6000803e3d6000fd5b505050506040513d601f19601f82011682018060405250810190620012b3919062003a79565b50620012c483602001518262002bfa565b6001600160a01b038216156200135f57604080840151905163a9059cbb60e01b81526001600160a01b0383169163a9059cbb91620013079186916004016200436b565b602060405180830381600087803b1580156200132257600080fd5b505af115801562001337573d6000803e3d6000fd5b505050506040513d601f19601f820116820180604052508101906200135d919062003a79565b505b600085815260a26020908152604091829020825161016081018452815460ff16151581526001820154928101929092526002810154928201839052600381015460608301526004810154608083015260058101546001600160a01b0390811660a08401526006820154811660c0840152600782015460e084015260088201546101008401526009820154610120840152600a909101541661014082015290620014da5760c081015160405163a9059cbb60e01b81526001600160a01b0384169163a9059cbb9162001436919089906004016200436b565b602060405180830381600087803b1580156200145157600080fd5b505af115801562001466573d6000803e3d6000fd5b505050506040513d601f19601f820116820180604052508101906200148c919062003a79565b507f43c9c64e3d0a7d664252e89fe26c8958a77098900ebf13f7aa95030a371bc4328160c00151868487878b604051620014cc9695949392919062004384565b60405180910390a16200175d565b8060a001516001600160a01b0316876000815181106200150a57634e487b7160e01b600052603260045260246000fd5b60200260200101516001600160a01b03161480156200157657508061014001516001600160a01b03168760018951620015449190620049ba565b815181106200156357634e487b7160e01b600052603260045260246000fd5b60200260200101516001600160a01b0316145b620015c25760405162461bcd60e51b815260206004820152601b60248201527a0a4eadccaa4deeae8cae498deced2c67440eee4dedcce40e0c2e8d602b1b604482015260640162000ae0565b600080620015e183604001518460c00151898661012001518d62002d9f565b91509150811562001679577fed12b1e275b408eb8b01de7d246293c2daf02f98422b51b0af3012463e2a725e8360c0015188868460018651620016259190620049ba565b815181106200164457634e487b7160e01b600052603260045260246000fd5b60200260200101518761014001518b8b8f6040516200166b989796959493929190620043ca565b60405180910390a16200175a565b7f2eefdda27738a7be93aea5dafceb4d8af2e8e046fd411a8c94bb449508af05a28360c0015188868661012001518761014001518b8b8f604051620016c6989796959493929190620043ca565b60405180910390a160c083015160405163a9059cbb60e01b81526001600160a01b0386169163a9059cbb916200170291908b906004016200436b565b602060405180830381600087803b1580156200171d57600080fd5b505af115801562001732573d6000803e3d6000fd5b505050506040513d601f19601f8201168201806040525081019062001758919062003a79565b505b50505b5050505050506200176e6001606555565b50505050505050505050565b6200178462002b3b565b806127101015620017a95760405162461bcd60e51b815260040162000ae090620046b5565b609a5460408051918252602082018390527f44c6802691f6adea249930369a511db979a5e9a3603bdb37ceee1036da80e980910160405180910390a1609a55565b620017f462002b3b565b7f31a8c4e62daac2a3ed5d713004d9ae867d6dcddfa35603db2a4b65d9236b1bc18282604051620018279291906200476e565b60405180910390a1600091825260a3602052604090912080546001600160a01b0319166001600160a01b03909216919091179055565b6200186762002b3b565b565b6200187362002b3b565b600083815260a76020908152604091829020805460019091015483518781526001600160a01b039283169381019390935282840152841660608201526080810183905290517f23385740814648db624aa52a0c990fc42def14e1b04e7fe5b2bf87b85e1294529181900360a00190a16040805180820182526001600160a01b0393841681526020808201938452600095865260a790529320925183546001600160a01b031916921691909117825551600190910155565b6200193462002b3b565b806127101015620019595760405162461bcd60e51b815260040162000ae090620046b5565b60995460408051918252602082018390527f7d205f60891f60851c61cd244ba387d72b6589e7c0ac41b9d909ab0ce2c2a53b910160405180910390a1609955565b620019a462002b9e565b609e546001600160a01b0316336001600160a01b03161462001a075760405162461bcd60e51b815260206004820152601b60248201527a293ab732a937baba32b92637b3b4b19d103737ba103637b1b5b2b960291b604482015260640162000ae0565b609754609c5460405163e291283d60e01b815260009273c5001e0B89a0F721510CeaF7dcaBAB31658d5D389263e291283d9262001a6092916001600160a01b0316908e908e908e908e908e908e908e906004016200481a565b60206040518083038186803b15801562001a7957600080fd5b505af415801562001a8e573d6000803e3d6000fd5b505050506040513d601f19601f8201168201806040525081019062001ab4919062003b61565b905060005b825181101562001dfa5760a483828151811062001ae657634e487b7160e01b600052603260045260246000fd5b60200260200101518154811062001b0d57634e487b7160e01b600052603260045260246000fd5b600091825260209091206007909102015460ff161562001b7b5760405162461bcd60e51b815260206004820152602260248201527f52756e65526f757465724c6f6769633a20616c72656164792070726f63657373604482015261195960f21b606482015260840162000ae0565b600160a484838151811062001ba057634e487b7160e01b600052603260045260246000fd5b60200260200101518154811062001bc757634e487b7160e01b600052603260045260246000fd5b906000526020600020906007020160000160006101000a81548160ff0219169083151502179055507f3922cf2b1e70997609e6dbe5a0af9360f827a7ef03e3f6cf8728e23afa52ba8260a484838151811062001c3357634e487b7160e01b600052603260045260246000fd5b60200260200101518154811062001c5a57634e487b7160e01b600052603260045260246000fd5b906000526020600020906007020160040160009054906101000a90046001600160a01b031660a485848151811062001ca257634e487b7160e01b600052603260045260246000fd5b60200260200101518154811062001cc957634e487b7160e01b600052603260045260246000fd5b90600052602060002090600702016002015460a486858151811062001cfe57634e487b7160e01b600052603260045260246000fd5b60200260200101518154811062001d2557634e487b7160e01b600052603260045260246000fd5b906000526020600020906007020160050160a487868151811062001d5957634e487b7160e01b600052603260045260246000fd5b60200260200101518154811062001d8057634e487b7160e01b600052603260045260246000fd5b906000526020600020906007020160060160009054906101000a900460ff1687868151811062001dc057634e487b7160e01b600052603260045260246000fd5b60200260200101518760405162001ddd9695949392919062004423565b60405180910390a18062001df18162004a44565b91505062001ab9565b505062001e076001606555565b5050505050505050565b62001e1b62002b3b565b6000818152609f60205260409020546001600160a01b03168062001e7e5760405162461bcd60e51b8152602060048201526019602482015278293ab732a937baba32b92637b3b4b19d103737903a37b5b2b760391b604482015260640162000ae0565b7ff61991393940604b8433d5f9a855624b8452e131d66e476a45c7139651df9699828260405162001eb19291906200476e565b60405180910390a16001600160a01b038116600090815260a06020526040812062001edc9162003763565b6001600160a01b0316600090815260a160209081526040808320839055928252609f90522080546001600160a01b0319169055565b6033546001600160a01b031690565b62001f2a62002b3b565b6001600160a01b03918216600090815260ab6020526040902080546001600160a01b03191691909216179055565b62001f6262002b3b565b60a85460408051918252602082018390527f24a1cf21e7b4eac23dffa41704078ed28bbe2a42187f6aa014899c5413cd01b7910160405180910390a160a855565b62001fad62002b3b565b60aa80546001600160a01b0319166001600160a01b0392909216919091179055565b806001600160a01b03811662001ff95760405162461bcd60e51b815260040162000ae09062004737565b6200200362002b3b565b7f150b77d21bd499fd0dccea9fe32513c7b65aa34ccde41e7dafac74ace8e19c9460a660019054906101000a90046001600160a01b0316836040516200204b929190620041e0565b60405180910390a15060a680546001600160a01b0390921661010002610100600160a81b0319909216919091179055565b600081815260a2602052604081205460ff1662000e6457600062000e67565b620020a562002b3b565b8151620020ba9060a5906020850190620036d4565b5060a6805482919060ff19166001836005811115620020e957634e487b7160e01b600052602160045260246000fd5b02179055505050565b806001600160a01b0381166200211c5760405162461bcd60e51b815260040162000ae09062004737565b6200212662002b3b565b609c546040517f4c28a3f61a715259c4dc930c23e7423b8fa52e13232c061a6e488729c66184f49162002167916001600160a01b03909116908590620041e0565b60405180910390a150609c80546001600160a01b0319166001600160a01b0392909216919091179055565b60a48181548110620021a357600080fd5b600091825260209091206007909102018054600182015460028301546003840154600485015460058601805460ff90961697509395929491936001600160a01b039091169291620021f49062004a07565b80601f0160208091040260200160405190810160405280929190818152602001828054620022229062004a07565b8015620022735780601f10620022475761010080835404028352916020019162002273565b820191906000526020600020905b8154815290600101906020018083116200225557829003601f168201915b5050506006909301549192505060ff1687565b806001600160a01b038116620022b05760405162461bcd60e51b815260040162000ae09062004737565b620022ba62002b3b565b5060a980546001600160a01b0319166001600160a01b0392909216919091179055565b620022e762002b9e565b6000878152609f60205260409020546001600160a01b0316806200234e5760405162461bcd60e51b815260206004820152601e60248201527f52756e65526f757465724c6f6769633a206e6f7420737570706f727465640000604482015260640162000ae0565b60a854341115620024b45760a8546200236890846200499f565b3414620023b75760405162461bcd60e51b815260206004820152601c60248201527b52756e65526f757465724c6f6769633a2077726f6e672076616c756560201b604482015260640162000ae0565b81600081518110620023d957634e487b7160e01b600052603260045260246000fd5b602090810291909101015160a9546001600160a01b03908116911614620024435760405162461bcd60e51b815260206004820152601d60248201527f52756e65526f757465724c6f6769633a20696e76616c69642070617468000000604482015260640162000ae0565b60a960009054906101000a90046001600160a01b03166001600160a01b031663d0e30db0846040518263ffffffff1660e01b81526004016000604051808303818588803b1580156200249457600080fd5b505af1158015620024a9573d6000803e3d6000fd5b505050505062002504565b60a8543414620025045760405162461bcd60e51b815260206004820152601a60248201527952756e65526f757465724c6f6769633a2077726f6e672066656560301b604482015260640162000ae0565b815115620026775760a854341415620025d157816000815181106200253957634e487b7160e01b600052603260045260246000fd5b60200260200101516001600160a01b03166323b872dd620025573390565b30866040518463ffffffff1660e01b8152600401620025799392919062004231565b602060405180830381600087803b1580156200259457600080fd5b505af1158015620025a9573d6000803e3d6000fd5b505050506040513d601f19601f82011682018060405250810190620025cf919062003a79565b505b600080620025e38630878c8862002d9f565b9150915081620026355760405162461bcd60e51b815260206004820152601c60248201527b149d5b99549bdd5d195c931bd9da58ce881cddd85c0819985a5b195960221b604482015260640162000ae0565b8060018251620026469190620049ba565b815181106200266557634e487b7160e01b600052603260045260246000fd5b6020026020010151985050506200274d565b6040516323b872dd60e01b81526001600160a01b038216906323b872dd90620026a990339030908c9060040162004231565b602060405180830381600087803b158015620026c457600080fd5b505af1158015620026d9573d6000803e3d6000fd5b505050506040513d601f19601f82011682018060405250810190620026ff919062003a79565b6200274d5760405162461bcd60e51b815260206004820181905260248201527f52756e65526f757465724c6f6769633a207472616e73666572206661696c6564604482015260640162000ae0565b6000806000620027618c858c8c8c62002ff6565b925092509250845160001415620027d8577f7ded23d6204f0918dc93f275df51659538e59e8aaf5698ce1f49180c22857b53338a8a878e868960a8548a600160a480549050620027b29190620049ba565b604051620027ca9a9998979695949392919062004255565b60405180910390a162002866565b7fe17d30e84f141d5effc904ed29262988eb565f53a8c01270148776b88451bb71338a8a89896000815181106200281f57634e487b7160e01b600052603260045260246000fd5b60200260200101518f878b8b60a8548c600160a480549050620028439190620049ba565b6040516200285d9c9b9a99989796959493929190620042d9565b60405180910390a15b5050505062001e076001606555565b6200287f62002b3b565b609855565b806001600160a01b038116620028ae5760405162461bcd60e51b815260040162000ae09062004737565b620028b862002b3b565b609d546040517f567657fa3f286518b318f4a29870674f433f622fdfc819691acb13105b22822591620028f9916001600160a01b03909116908590620041e0565b60405180910390a150609d80546001600160a01b0319166001600160a01b0392909216919091179055565b6200292e62002b3b565b6001600160a01b038116620029955760405162461bcd60e51b815260206004820152602660248201527f4f776e61626c653a206e6577206f776e657220697320746865207a65726f206160448201526564647265737360d01b606482015260840162000ae0565b620029a081620032bd565b50565b600054610100900460ff1615808015620029c45750600054600160ff909116105b80620029e05750303b158015620029e0575060005460ff166001145b62002a455760405162461bcd60e51b815260206004820152602e60248201527f496e697469616c697a61626c653a20636f6e747261637420697320616c72656160448201526d191e481a5b9a5d1a585b1a5e995960921b606482015260840162000ae0565b6000805460ff19166001179055801562002a69576000805461ff0019166101001790555b62002a736200330f565b62002a7d62003343565b609889905562002a8d8c62000f0d565b62002a988b6200192a565b62002aa38a6200177a565b62002aae88620020f2565b62002ab98762000e6d565b62002ac586866200209b565b62002ad08462001fcf565b62002adb8362002884565b62002ae68262002286565b801562002b2d576000805461ff0019169055604051600181527f7f26b83ff96e1f2b6a682f133852f6798a09c465da95921460cefb38474024989060200160405180910390a15b505050505050505050505050565b3362002b4662001f11565b6001600160a01b031614620018675760405162461bcd60e51b815260206004820181905260248201527f4f776e61626c653a2063616c6c6572206973206e6f7420746865206f776e6572604482015260640162000ae0565b6002606554141562002bf35760405162461bcd60e51b815260206004820152601f60248201527f5265656e7472616e637947756172643a207265656e7472616e742063616c6c00604482015260640162000ae0565b6002606555565b811562002d9b5760aa546001600160a01b031662002ca357609e5460405163a9059cbb60e01b81526001600160a01b038381169263a9059cbb9262002c48929091169086906004016200436b565b602060405180830381600087803b15801562002c6357600080fd5b505af115801562002c78573d6000803e3d6000fd5b505050506040513d601f19601f8201168201806040525081019062002c9e919062003a79565b505050565b60aa5460405163095ea7b360e01b81526001600160a01b038381169263095ea7b39262002cd9929091169086906004016200436b565b602060405180830381600087803b15801562002cf457600080fd5b505af115801562002d09573d6000803e3d6000fd5b505050506040513d601f19601f8201168201806040525081019062002d2f919062003a79565b5060aa546001600160a01b03828116600090815260ab60205260409081902054905162002c9e9383169262002d6b92169086906024016200436b565b60408051601f198184030181529190526020810180516001600160e01b0316637db4e28f60e01b17905262003377565b5050565b600085815260a360205260408120546060906001600160a01b03168062002e095760405162461bcd60e51b815260206004820152601e60248201527f52756e65526f757465724c6f6769633a20696e76616c69642061707049640000604482015260640162000ae0565b8360008151811062002e2b57634e487b7160e01b600052603260045260246000fd5b60200260200101516001600160a01b031663095ea7b382886040518363ffffffff1660e01b815260040162002e629291906200436b565b602060405180830381600087803b15801562002e7d57600080fd5b505af115801562002e92573d6000803e3d6000fd5b505050506040513d601f19601f8201168201806040525081019062002eb8919062003a79565b506040516326d2f28960e21b81526001600160a01b03821690639b4bca249062002ee790879060040162004572565b60206040518083038186803b15801562002f0057600080fd5b505afa15801562002f15573d6000803e3d6000fd5b505050506040513d601f19601f8201168201806040525081019062002f3b919062003a79565b1562002fdf5760405163161779b160e31b81526001600160a01b0382169063b0bbcd889062002f7a908990899089908d904290600190600401620048fc565b600060405180830381600087803b15801562002f9557600080fd5b505af115801562002faa573d6000803e3d6000fd5b505050506040513d6000823e601f3d908101601f1916820160405262002fd4919081019062003a96565b909350915062002fe4565b600092505b509550959350505050565b6001606555565b6200301b60405180606001604052806000815260200160008152602001600081525090565b60008073c5001e0B89a0F721510CeaF7dcaBAB31658d5D386394d8bc6a33609954609a5460a460a78e8d8d8d6040518a63ffffffff1660e01b81526004016200306d9998979695949392919062004509565b60a06040518083038186803b1580156200308657600080fd5b505af41580156200309b573d6000803e3d6000fd5b505050506040513d601f19601f82011682018060405250810190620030c1919062003e61565b609b805493965091945092506000620030da8362004a44565b9091555050609d54835160405163a9059cbb60e01b81526001600160a01b038a81169363a9059cbb93620031169392909116916004016200436b565b602060405180830381600087803b1580156200313157600080fd5b505af115801562003146573d6000803e3d6000fd5b505050506040513d601f19601f820116820180604052508101906200316c919062003a79565b506200317d83602001518862002bfa565b6001600160a01b038216156200321857604080840151905163a9059cbb60e01b81526001600160a01b0389169163a9059cbb91620031c09186916004016200436b565b602060405180830381600087803b158015620031db57600080fd5b505af1158015620031f0573d6000803e3d6000fd5b505050506040513d601f19601f8201168201806040525081019062003216919062003a79565b505b609e5460a85462003233916001600160a01b031690620033c2565b604051630852cd8d60e31b8152600481018290526001600160a01b038816906342966c6890602401602060405180830381600087803b1580156200327657600080fd5b505af11580156200328b573d6000803e3d6000fd5b505050506040513d601f19601f82011682018060405250810190620032b1919062003a79565b50955095509592505050565b603380546001600160a01b038381166001600160a01b0319831681179093556040519116919082907f8be0079c531659141344cd1fd0a4f28419497f9722a3daafe3b4186f6b6457e090600090a35050565b600054610100900460ff16620033395760405162461bcd60e51b815260040162000ae090620046ec565b62001867620034de565b600054610100900460ff166200336d5760405162461bcd60e51b815260040162000ae090620046ec565b6200186762003513565b6060620033bb83836040518060400160405280601e81526020017f416464726573733a206c6f772d6c6576656c2063616c6c206661696c656400008152506200353d565b9392505050565b80471015620034145760405162461bcd60e51b815260206004820152601d60248201527f416464726573733a20696e73756666696369656e742062616c616e6365000000604482015260640162000ae0565b6000826001600160a01b03168260405160006040518083038185875af1925050503d806000811462003463576040519150601f19603f3d011682016040523d82523d6000602084013e62003468565b606091505b505090508062002c9e5760405162461bcd60e51b815260206004820152603a60248201527f416464726573733a20756e61626c6520746f2073656e642076616c75652c20726044820152791958da5c1a595b9d081b585e481a185d99481c995d995c9d195960321b606482015260840162000ae0565b600054610100900460ff16620035085760405162461bcd60e51b815260040162000ae090620046ec565b6200186733620032bd565b600054610100900460ff1662002fef5760405162461bcd60e51b815260040162000ae090620046ec565b60606200354e848460008562003556565b949350505050565b606082471015620035b95760405162461bcd60e51b815260206004820152602660248201527f416464726573733a20696e73756666696369656e742062616c616e636520666f6044820152651c8818d85b1b60d21b606482015260840162000ae0565b843b620036095760405162461bcd60e51b815260206004820152601d60248201527f416464726573733a2063616c6c20746f206e6f6e2d636f6e7472616374000000604482015260640162000ae0565b600080866001600160a01b03168587604051620036279190620041ae565b60006040518083038185875af1925050503d806000811462003666576040519150601f19603f3d011682016040523d82523d6000602084013e6200366b565b606091505b50915091506200367d82828662003688565b979650505050505050565b6060831562003699575081620033bb565b825115620036aa5782518084602001fd5b8160405162461bcd60e51b815260040162000ae09190620045e1565b610f2c8062004aa583390190565b828054620036e29062004a07565b90600052602060002090601f01602090048101928262003706576000855562003751565b82601f106200372157805160ff191683800117855562003751565b8280016001018555821562003751579182015b828111156200375157825182559160200191906001019062003734565b506200375f9291506200379d565b5090565b508054620037719062004a07565b6000825580601f1062003782575050565b601f016020900490600052602060002090810190620029a091905b5b808211156200375f57600081556001016200379e565b8035620037c18162004a8e565b919050565b600082601f830112620037d7578081fd5b81356020620037f0620037ea8362004979565b62004946565b80838252828201915082860187848660051b890101111562003810578586fd5b855b858110156200383b578135620038288162004a8e565b8452928401929084019060010162003812565b5090979650505050505050565b600082601f83011262003859578081fd5b813560206200386c620037ea8362004979565b80838252828201915082860187848660051b89010111156200388c578586fd5b855b858110156200383b578135845292840192908401906001016200388e565b80518015158114620037c157600080fd5b80356001600160e01b031981168114620037c157600080fd5b60008083601f840112620038e8578182fd5b5081356001600160401b03811115620038ff578182fd5b6020830191508360208285010111156200391857600080fd5b9250929050565b600082601f83011262003930578081fd5b81356001600160401b038111156200394c576200394c62004a78565b62003961601f8201601f191660200162004946565b81815284602083860101111562003976578283fd5b816020850160208301379081016020019190915292915050565b803560068110620037c157600080fd5b600060608284031215620039b2578081fd5b604051606081016001600160401b0381118282101715620039d757620039d762004a78565b80604052508091508251815260208301516020820152604083015160408201525092915050565b60006020828403121562003a10578081fd5b8135620033bb8162004a8e565b60006020828403121562003a2f578081fd5b8151620033bb8162004a8e565b6000806040838503121562003a4f578081fd5b823562003a5c8162004a8e565b9150602083013562003a6e8162004a8e565b809150509250929050565b60006020828403121562003a8b578081fd5b620033bb82620038ac565b6000806040838503121562003aa9578182fd5b62003ab483620038ac565b602084810151919350906001600160401b0381111562003ad2578283fd5b8401601f8101861362003ae3578283fd5b805162003af4620037ea8262004979565b80828252848201915084840189868560051b870101111562003b14578687fd5b8694505b8385101562003b3857805183526001949094019391850191850162003b18565b5080955050505050509250929050565b60006020828403121562003b5a578081fd5b5035919050565b60006020828403121562003b73578081fd5b5051919050565b6000806000806000806000806000806101008b8d03121562003b9a578586fd5b62003ba58b620038bd565b995060208b01356001600160401b038082111562003bc1578788fd5b62003bcf8e838f016200391f565b9a5060408d013591508082111562003be5578788fd5b62003bf38e838f01620038d6565b909a50985088915062003c0960608e01620038bd565b975060808d0135965060a08d013591508082111562003c26578586fd5b62003c348e838f01620038d6565b909650945060c08d0135935060e08d013591508082111562003c54578283fd5b5062003c638d828e01620037c6565b9150509295989b9194979a5092959850565b600080600080600080600080610100898b03121562003c92578182fd5b62003c9d89620038bd565b975060208901356001600160401b038082111562003cb9578384fd5b62003cc78c838d016200391f565b985060408b013591508082111562003cdd578384fd5b62003ceb8c838d016200391f565b975062003cfb60608c01620038bd565b965060808b0135955060a08b013591508082111562003d18578384fd5b62003d268c838d016200391f565b945060c08b0135935060e08b013591508082111562003d43578283fd5b5062003d528b828c0162003848565b9150509295985092959890939650565b6000806040838503121562003d75578182fd5b82356001600160401b0381111562003d8b578283fd5b62003d99858286016200391f565b92505062003daa6020840162003990565b90509250929050565b600080600080600060a0868803121562003dcb578283fd5b85356001600160401b038082111562003de2578485fd5b62003df089838a016200391f565b9650602088013591508082111562003e06578485fd5b62003e1489838a016200391f565b9550604088013591508082111562003e2a578485fd5b5062003e39888289016200391f565b935050606086013560ff8116811462003e50578182fd5b949793965091946080013592915050565b600080600060a0848603121562003e76578081fd5b62003e828585620039a0565b9250606084015162003e948162004a8e565b80925050608084015190509250925092565b6000806040838503121562003eb9578182fd5b82359150602083013562003a6e8162004a8e565b60008060006060848603121562003ee2578081fd5b83359250602084013562003ef68162004a8e565b929592945050506040919091013590565b60008060008060c0858703121562003f1d578182fd5b8451935062003f308660208701620039a0565b9250608085015162003f428162004a8e565b60a086015190925062003f558162004a8e565b939692955090935050565b600080600080600080600080610100898b03121562003f7d578182fd5b88359750602089013596506040890135955060608901356001600160401b038082111562003fa9578384fd5b62003fb78c838d016200391f565b965062003fc760808c0162003990565b955060a08b0135945060c08b0135935060e08b013591508082111562003feb578283fd5b5062003d528b828c01620037c6565b60008060008060008060008060008060006101608c8e0312156200401c578485fd5b8b359a5060208c0135995060408c0135985060608c0135975060808c0135620040458162004a8e565b965060a08c0135620040578162004a8e565b955060c08c01356001600160401b0381111562004072578586fd5b620040808e828f016200391f565b9550506200409160e08d0162003990565b9350620040a26101008d01620037b4565b9250620040b36101208d01620037b4565b9150620040c46101408d01620037b4565b90509295989b509295989b9093969950565b6000815180845260208085019450808401835b83811015620041105781516001600160a01b031687529582019590820190600101620040e9565b509495945050505050565b81835281816020850137506000828201602090810191909152601f909101601f19169091010190565b600081518084526200415e816020860160208601620049d4565b601f01601f19169290920160200192915050565b600681106200419157634e487b7160e01b600052602160045260246000fd5b9052565b8051825260208082015190830152604090810151910152565b60008251620041c2818460208701620049d4565b9190910192915050565b6001600160a01b0391909116815260200190565b6001600160a01b0392831681529116602082015260400190565b6001600160a01b03848116825283166020820152606060408201819052600090620042289083018462004144565b95945050505050565b6001600160a01b039384168152919092166020820152604081019190915260600190565b6001600160a01b038b81168252610180602083018190526000916200427d8483018e62004144565b92506200428e604085018d62004172565b808b1660608501528960808501528860a0850152620042b160c085018962004195565b866101208501528086166101408501525050826101608301529b9a5050505050505050505050565b600060018060a01b03808f1683526101c06020840152620042ff6101c084018f62004144565b915062004310604084018e62004172565b8b6060840152808b1660808401528960a08401528860c084015280881660e08401526200434261010084018862004195565b8561016084015280851661018084015250826101a08301529d9c50505050505050505050505050565b6001600160a01b03929092168252602082015260400190565b6001600160a01b038781168252602082018790528581166040830152610100820190620043b5606084018762004195565b9390931660c082015260e00152949350505050565b6001600160a01b0389811682526020820189905287811660408301526060820187905285811660808301526101408201906200440a60a084018762004195565b9390931661010082015261012001529695505050505050565b6001600160a01b0387168152602080820187905260c060408301528554600091908290600181811c90828116806200445c57607f831692505b8583108114156200447b57634e487b7160e01b87526022600452602487fd5b60c0880183905260e088018180156200449d5760018114620044af57620044db565b60ff19861682528782019650620044db565b60008e815260209020895b86811015620044d557815484820152908501908901620044ba565b83019750505b5050505050508092505050620044f5606083018662004172565b608082019390935260a00152949350505050565b600061012060018060a01b038c1683528a60208401528960408401528860608401528760808401528660a08401528560c08401528060e0840152620045518184018662004144565b9150506200456461010083018462004172565b9a9950505050505050505050565b602081526000620033bb6020830184620040d6565b871515815286602082015285604082015284606082015260018060a01b038416608082015260e060a08201526000620045c460e083018562004144565b9050620045d560c083018462004172565b98975050505050505050565b602081526000620033bb602083018462004144565b6020810162000e67828462004172565b60e0815260006200461b60e083018a62004144565b82810360208401526200462f818a62004144565b9050828103604084015262004645818962004144565b60ff979097166060840152505060808101939093526001600160a01b0391821660a08401521660c0909101529392505050565b6060815260006200468d606083018662004144565b8281036020840152620046a1818662004144565b91505060ff83166040830152949350505050565b6020808252601d908201527f52756e65526f757465724c6f6769633a206f7574206f662072616e6765000000604082015260600190565b6020808252602b908201527f496e697469616c697a61626c653a20636f6e7472616374206973206e6f74206960408201526a6e697469616c697a696e6760a81b606082015260800190565b6020808252601d908201527f52756e65526f757465724c6f6769633a207a65726f2061646472657373000000604082015260600190565b9182526001600160a01b0316602082015260400190565b8b81526001600160a01b038b1660208201526001600160e01b03198a8116604083015261012060608301819052600091620047c38483018d62004144565b91508382036080850152620047da828b8d6200411b565b915080891660a0850152508660c084015282810360e0840152620048008186886200411b565b915050826101008301529c9b505050505050505050505050565b8981526001600160a01b03891660208201526001600160e01b0319888116604083015261012060608301819052600091620048588483018b62004144565b915083820360808501526200486e828a62004144565b915080881660a0850152508560c084015282810360e084015262004893818662004144565b915050826101008301529a9950505050505050505050565b60006101008b8352806020840152620048c88184018b8d6200411b565b604084019990995250506060810195909552608085019390935260a084019190915260c083015260e0909101529392505050565b86815285602082015260c0604082015260006200491d60c0830187620040d6565b6001600160a01b03959095166060830152506080810192909252151560a0909101529392505050565b604051601f8201601f191681016001600160401b038111828210171562004971576200497162004a78565b604052919050565b60006001600160401b0382111562004995576200499562004a78565b5060051b60200190565b60008219821115620049b557620049b562004a62565b500190565b600082821015620049cf57620049cf62004a62565b500390565b60005b83811015620049f1578181015183820152602001620049d7565b8381111562004a01576000848401525b50505050565b600181811c9082168062004a1c57607f821691505b6020821081141562004a3e57634e487b7160e01b600052602260045260246000fd5b50919050565b600060001982141562004a5b5762004a5b62004a62565b5060010190565b634e487b7160e01b600052601160045260246000fd5b634e487b7160e01b600052604160045260246000fd5b6001600160a01b0381168114620029a057600080fdfe608060405260405162000f2c38038062000f2c8339810160408190526200002691620004e0565b82828282816200005860017f360894a13ba1a3210667c828492db98dca3e2076cc3735a920a3ca505d382bbd6200060f565b60008051602062000ee5833981519152146200008457634e487b7160e01b600052600160045260246000fd5b620000928282600062000105565b50620000c2905060017fb53127684a568b3173ae13b9f8a6016e243e63b6e8ee1178d6a717850b5d61046200060f565b60008051602062000ec583398151915214620000ee57634e487b7160e01b600052600160045260246000fd5b620000f98262000142565b50505050505062000678565b62000110836200019d565b6000825111806200011e5750805b156200013d576200013b8383620001df60201b620002601760201c565b505b505050565b7f7e644d79422f17c01e4894b5f4f588d331ebfa28653d42ae832dc59e38c9798f6200016d6200020e565b604080516001600160a01b03928316815291841660208301520160405180910390a16200019a8162000247565b50565b620001a881620002fc565b6040516001600160a01b038216907fbc7cd75a20ee27fd9adebab32041f755214dbc6bffa90cc0225b39da2e5c2d3b90600090a250565b606062000207838360405180606001604052806027815260200162000f05602791396200039f565b9392505050565b60006200023860008051602062000ec583398151915260001b6200047c60201b620002081760201c565b546001600160a01b0316919050565b6001600160a01b038116620002b25760405162461bcd60e51b815260206004820152602660248201527f455243313936373a206e65772061646d696e20697320746865207a65726f206160448201526564647265737360d01b60648201526084015b60405180910390fd5b80620002db60008051602062000ec583398151915260001b6200047c60201b620002081760201c565b80546001600160a01b0319166001600160a01b039290921691909117905550565b62000312816200047f60201b6200028c1760201c565b620003765760405162461bcd60e51b815260206004820152602d60248201527f455243313936373a206e657720696d706c656d656e746174696f6e206973206e60448201526c1bdd08184818dbdb9d1c9858dd609a1b6064820152608401620002a9565b80620002db60008051602062000ee583398151915260001b6200047c60201b620002081760201c565b6060833b620004005760405162461bcd60e51b815260206004820152602660248201527f416464726573733a2064656c65676174652063616c6c20746f206e6f6e2d636f6044820152651b9d1c9858dd60d21b6064820152608401620002a9565b600080856001600160a01b0316856040516200041d9190620005bc565b600060405180830381855af49150503d80600081146200045a576040519150601f19603f3d011682016040523d82523d6000602084013e6200045f565b606091505b5090925090506200047282828662000485565b9695505050505050565b90565b3b151590565b606083156200049657508162000207565b825115620004a75782518084602001fd5b8160405162461bcd60e51b8152600401620002a99190620005da565b80516001600160a01b0381168114620004db57600080fd5b919050565b600080600060608486031215620004f5578283fd5b6200050084620004c3565b92506200051060208501620004c3565b60408501519092506001600160401b03808211156200052d578283fd5b818601915086601f83011262000541578283fd5b81518181111562000556576200055662000662565b604051601f8201601f19908116603f0116810190838211818310171562000581576200058162000662565b816040528281528960208487010111156200059a578586fd5b620005ad83602083016020880162000633565b80955050505050509250925092565b60008251620005d081846020870162000633565b9190910192915050565b6020815260008251806020840152620005fb81604085016020870162000633565b601f01601f19169190910160400192915050565b6000828210156200062e57634e487b7160e01b81526011600452602481fd5b500390565b60005b838110156200065057818101518382015260200162000636565b838111156200013b5750506000910152565b634e487b7160e01b600052604160045260246000fd5b61083d80620006886000396000f3fe60806040526004361061004e5760003560e01c80633659cfe6146100655780634f1ef286146100855780635c60da1b146100985780638f283970146100c9578063f851a440146100e95761005d565b3661005d5761005b6100fe565b005b61005b6100fe565b34801561007157600080fd5b5061005b61008036600461068e565b610118565b61005b6100933660046106a8565b61015f565b3480156100a457600080fd5b506100ad6101d0565b6040516001600160a01b03909116815260200160405180910390f35b3480156100d557600080fd5b5061005b6100e436600461068e565b61020b565b3480156100f557600080fd5b506100ad610235565b610106610292565b610116610111610331565b61033b565b565b61012061035f565b6001600160a01b0316336001600160a01b031614156101575761015481604051806020016040528060008152506000610380565b50565b6101546100fe565b61016761035f565b6001600160a01b0316336001600160a01b031614156101c8576101c38383838080601f01602080910402602001604051908101604052809392919081815260200183838082843760009201919091525060019250610380915050565b505050565b6101c36100fe565b60006101da61035f565b6001600160a01b0316336001600160a01b03161415610200576101fb610331565b905090565b6102086100fe565b90565b61021361035f565b6001600160a01b0316336001600160a01b0316141561015757610154816103ab565b600061023f61035f565b6001600160a01b0316336001600160a01b03161415610200576101fb61035f565b606061028583836040518060600160405280602781526020016107e1602791396103ff565b9392505050565b3b151590565b61029a61035f565b6001600160a01b0316336001600160a01b031614156101165760405162461bcd60e51b815260206004820152604260248201527f5472616e73706172656e745570677261646561626c6550726f78793a2061646d60448201527f696e2063616e6e6f742066616c6c6261636b20746f2070726f78792074617267606482015261195d60f21b608482015260a4015b60405180910390fd5b60006101fb6104d3565b3660008037600080366000845af43d6000803e80801561035a573d6000f35b3d6000fd5b60006000805160206107a18339815191525b546001600160a01b0316919050565b610389836104e9565b6000825111806103965750805b156101c3576103a58383610260565b50505050565b7f7e644d79422f17c01e4894b5f4f588d331ebfa28653d42ae832dc59e38c9798f6103d461035f565b604080516001600160a01b03928316815291841660208301520160405180910390a161015481610529565b6060833b61045e5760405162461bcd60e51b815260206004820152602660248201527f416464726573733a2064656c65676174652063616c6c20746f206e6f6e2d636f6044820152651b9d1c9858dd60d21b6064820152608401610328565b600080856001600160a01b0316856040516104799190610725565b600060405180830381855af49150503d80600081146104b4576040519150601f19603f3d011682016040523d82523d6000602084013e6104b9565b606091505b50915091506104c98282866105c0565b9695505050505050565b60006000805160206107c1833981519152610371565b6104f2816105f9565b6040516001600160a01b038216907fbc7cd75a20ee27fd9adebab32041f755214dbc6bffa90cc0225b39da2e5c2d3b90600090a250565b6001600160a01b03811661058e5760405162461bcd60e51b815260206004820152602660248201527f455243313936373a206e65772061646d696e20697320746865207a65726f206160448201526564647265737360d01b6064820152608401610328565b806000805160206107a18339815191525b80546001600160a01b0319166001600160a01b039290921691909117905550565b606083156105cf575081610285565b8251156105df5782518084602001fd5b8160405162461bcd60e51b81526004016103289190610741565b803b61065d5760405162461bcd60e51b815260206004820152602d60248201527f455243313936373a206e657720696d706c656d656e746174696f6e206973206e60448201526c1bdd08184818dbdb9d1c9858dd609a1b6064820152608401610328565b806000805160206107c183398151915261059f565b80356001600160a01b038116811461068957600080fd5b919050565b60006020828403121561069f578081fd5b61028582610672565b6000806000604084860312156106bc578182fd5b6106c584610672565b925060208401356001600160401b03808211156106e0578384fd5b818601915086601f8301126106f3578384fd5b813581811115610701578485fd5b876020828501011115610712578485fd5b6020830194508093505050509250925092565b60008251610737818460208701610774565b9190910192915050565b6020815260008251806020840152610760816040850160208701610774565b601f01601f19169190910160400192915050565b60005b8381101561078f578181015183820152602001610777565b838111156103a5575050600091015256feb53127684a568b3173ae13b9f8a6016e243e63b6e8ee1178d6a717850b5d6103360894a13ba1a3210667c828492db98dca3e2076cc3735a920a3ca505d382bbc416464726573733a206c6f772d6c6576656c2064656c65676174652063616c6c206661696c6564a264697066735822122064b11b2157d61600a09abbd0eaeb0a67e43f14e3005703114add6fac6fd353ec64736f6c63430008040033b53127684a568b3173ae13b9f8a6016e243e63b6e8ee1178d6a717850b5d6103360894a13ba1a3210667c828492db98dca3e2076cc3735a920a3ca505d382bbc416464726573733a206c6f772d6c6576656c2064656c65676174652063616c6c206661696c6564a264697066735822122072e0c1c9919d55743070341a6c415c6649004e52fa436aedd9375444d8c9135d64736f6c63430008040033",
  "deployedBytecode": "0x608060405260043610620002645760003560e01c8063023e25b41462000271578063068bf87414620002c3578063088302a614620002ea5780630e72e41e1462000311578063171060ec146200034757806317fcb39b146200036c5780631812adb6146200038e5780631e7107c714620003b55780633669391e14620003da578063402e01f814620003f257806349c544e1146200041757806361d027b3146200042e5780636390802014620004505780636600203d14620004685780636b2857ef146200048d5780636e8adf6114620004b257806370872aa514620004ec578063715018a6146200050457806375122f62146200051c5780637ed557481462000541578063839ae1d714620005665780638be727e1146200057d5780638da5cb5b14620005a25780638e32009714620005ba57806390665eca14620005df5780639637e4a814620005f65780639a8a0592146200061b5780639aed427914620006335780639cbea0ec146200064b5780639eca44531462000685578063a1809b9514620006d9578063a3696a0914620006fe578063a44c2b9a1462000723578063acc2166a1462000748578063ae2a74ee146200076a578063b3ff9f49146200079b578063b4e183f414620007c2578063b59589d114620007e7578063c805f68b1462000809578063d4603f4c146200082e578063d7b96d4e1462000868578063d8484ef5146200088a578063da058ae314620008b5578063e765078814620008da578063e91ffefd14620009ce578063ef0e2ff414620009e5578063f0f442601462000a0a578063f2fde38b1462000a2f578063f80d19481462000a5457600080fd5b366200026c57005b600080fd5b3480156200027e57600080fd5b50620002ab6200029036600462003b48565b609f602052600090815260409020546001600160a01b031681565b604051620002ba9190620041cc565b60405180910390f35b348015620002d057600080fd5b50620002e8620002e236600462003db3565b62000a79565b005b348015620002f757600080fd5b506200030262000d89565b604051620002ba9190620045e1565b3480156200031e57600080fd5b50620003366200033036600462003b48565b62000e1f565b6040519015158152602001620002ba565b3480156200035457600080fd5b50620002e862000366366004620039fe565b62000e6d565b3480156200037957600080fd5b5060a954620002ab906001600160a01b031681565b3480156200039b57600080fd5b50620003a660995481565b604051908152602001620002ba565b348015620003c257600080fd5b50620002e8620003d436600462003b48565b62000f0d565b348015620003e757600080fd5b50620003a6609b5481565b348015620003ff57600080fd5b506200030262000411366004620039fe565b62000f6d565b620002e86200042836600462003b7a565b62000f88565b3480156200043b57600080fd5b50609d54620002ab906001600160a01b031681565b3480156200045d57600080fd5b50620003a6609a5481565b3480156200047557600080fd5b50620002e86200048736600462003b48565b6200177a565b3480156200049a57600080fd5b50620002e8620004ac36600462003ea6565b620017ea565b348015620004bf57600080fd5b50620002ab620004d136600462003b48565b60a3602052600090815260409020546001600160a01b031681565b348015620004f957600080fd5b50620003a660975481565b3480156200051157600080fd5b50620002e86200185d565b3480156200052957600080fd5b50620002e86200053b36600462003ecd565b62001869565b3480156200054e57600080fd5b50620002e86200056036600462003b48565b6200192a565b620002e86200057736600462003c75565b6200199a565b3480156200058a57600080fd5b50620002e86200059c36600462003b48565b62001e11565b348015620005af57600080fd5b50620002ab62001f11565b348015620005c757600080fd5b50620002e8620005d936600462003a3c565b62001f20565b348015620005ec57600080fd5b5060a454620003a6565b3480156200060357600080fd5b50620002e86200061536600462003b48565b62001f58565b3480156200062857600080fd5b50620003a660985481565b3480156200064057600080fd5b50620003a660a85481565b3480156200065857600080fd5b50620002ab6200066a366004620039fe565b60ab602052600090815260409020546001600160a01b031681565b3480156200069257600080fd5b50620006c9620006a436600462003b48565b60a760205260009081526040902080546001909101546001600160a01b039091169082565b604051620002ba9291906200436b565b348015620006e657600080fd5b50620002e8620006f8366004620039fe565b62001fa3565b3480156200070b57600080fd5b50620002e86200071d366004620039fe565b62001fcf565b3480156200073057600080fd5b50620003366200074236600462003b48565b6200207c565b3480156200075557600080fd5b5060aa54620002ab906001600160a01b031681565b3480156200077757600080fd5b50620003a662000789366004620039fe565b60a16020526000908152604090205481565b348015620007a857600080fd5b5060a654620002ab9061010090046001600160a01b031681565b348015620007cf57600080fd5b50620002e8620007e136600462003d62565b6200209b565b348015620007f457600080fd5b50609c54620002ab906001600160a01b031681565b3480156200081657600080fd5b50620002e862000828366004620039fe565b620020f2565b3480156200083b57600080fd5b50620008536200084d36600462003b48565b62002192565b604051620002ba979695949392919062004587565b3480156200087557600080fd5b50609e54620002ab906001600160a01b031681565b3480156200089757600080fd5b5060a654620008a69060ff1681565b604051620002ba9190620045f6565b348015620008c257600080fd5b50620002e8620008d4366004620039fe565b62002286565b348015620008e757600080fd5b5062000964620008f936600462003b48565b60a260205260009081526040902080546001820154600283015460038401546004850154600586015460068701546007880154600889015460098a0154600a909a015460ff9099169997989697959694956001600160a01b039485169593851694929391929091168b565b604080519b15158c5260208c019a909a52988a0197909752606089019590955260808801939093526001600160a01b0391821660a0880152811660c087015260e08601919091526101008501919091526101208401919091521661014082015261016001620002ba565b620002e8620009df36600462003f60565b620022dd565b348015620009f257600080fd5b50620002e862000a0436600462003b48565b62002875565b34801562000a1757600080fd5b50620002e862000a29366004620039fe565b62002884565b34801562000a3c57600080fd5b50620002e862000a4e366004620039fe565b62002924565b34801562000a6157600080fd5b50620002e862000a7336600462003ffa565b620029a3565b62000a8362002b3b565b6000818152609f60205260409020546001600160a01b03161562000ae95760405162461bcd60e51b8152602060048201526018602482015277149d5b99549bdd5d195c931bd9da58ce881d5cd959081a5960421b60448201526064015b60405180910390fd5b600073__$67e4a81169bd42f3bd76691a8cba760d26$__6374c6d02c6040518163ffffffff1660e01b815260040160206040518083038186803b15801562000b3057600080fd5b505af415801562000b45573d6000803e3d6000fd5b505050506040513d601f19601f8201168201806040525081019062000b6b919062003a1d565b9050606060008262000b7c62001f11565b8360405162000b8b90620036c6565b62000b9993929190620041fa565b604051809103906000f08015801562000bb6573d6000803e3d6000fd5b50604051630b127b6360e11b815290915081906001600160a01b03821690631624f6c69062000bee908c908c908b9060040162004678565b600060405180830381600087803b15801562000c0957600080fd5b505af115801562000c1e573d6000803e3d6000fd5b5050604051634c1d96ab60e11b81526001600160a01b038416925063983b2d56915062000c50903090600401620041cc565b600060405180830381600087803b15801562000c6b57600080fd5b505af115801562000c80573d6000803e3d6000fd5b5050604051637a231bdd60e11b81526001600160a01b038416925063f44637ba915062000cb2903090600401620041cc565b600060405180830381600087803b15801562000ccd57600080fd5b505af115801562000ce2573d6000803e3d6000fd5b5050506000868152609f6020908152604080832080546001600160a01b0319166001600160a01b038716908117909155835260a1825280832089905560a08252909120895162000d38935090918a0190620036d4565b507f175ec5a73d18c14429b1199d5fac7097c1c021f98a45d4bcfdeddedfbcc04f3c8989898989868a60405162000d76979695949392919062004606565b60405180910390a1505050505050505050565b60a5805462000d989062004a07565b80601f016020809104026020016040519081016040528092919081815260200182805462000dc69062004a07565b801562000e175780601f1062000deb5761010080835404028352916020019162000e17565b820191906000526020600020905b81548152906001019060200180831162000df957829003601f168201915b505050505081565b600060a4828154811062000e4357634e487b7160e01b600052603260045260246000fd5b600091825260209091206007909102015460ff1662000e6457600062000e67565b60015b92915050565b806001600160a01b03811662000e975760405162461bcd60e51b815260040162000ae09062004737565b62000ea162002b3b565b609e546040517f69253c7023f628e3a302b63087a3bfc1dfdb256780182f81b9f0df9eff9542b09162000ee2916001600160a01b03909116908590620041e0565b60405180910390a150609e80546001600160a01b0319166001600160a01b0392909216919091179055565b62000f1762002b3b565b609754811162000f685760405162461bcd60e51b815260206004820152601b60248201527a293ab732a937baba32b92637b3b4b19d103637bb90373ab6b132b960291b604482015260640162000ae0565b609755565b60a0602052600090815260409020805462000d989062004a07565b62000f9262002b9e565b60a65461010090046001600160a01b0316336001600160a01b03161462000ffc5760405162461bcd60e51b815260206004820152601f60248201527f52756e65526f757465724c6f6769633a206e6f742074656c65706f7274657200604482015260640162000ae0565b600073__$67e4a81169bd42f3bd76691a8cba760d26$__63e291283d609754609c60009054906101000a90046001600160a01b03168e8e8e8e8e8e8e8e8e6040518c63ffffffff1660e01b8152600401620010629b9a9998979695949392919062004785565b60206040518083038186803b1580156200107b57600080fd5b505af415801562001090573d6000803e3d6000fd5b505050506040513d601f19601f82011682018060405250810190620010b6919062003b61565b905060008060008073__$67e4a81169bd42f3bd76691a8cba760d26$__63d27fd71f6098548f8f8960a2609f60a7609954609a546040518a63ffffffff1660e01b81526004016200111099989796959493929190620048ab565b60c06040518083038186803b1580156200112957600080fd5b505af41580156200113e573d6000803e3d6000fd5b505050506040513d601f19601f8201168201806040525081019062001164919062003f07565b9350935093509350806001600160a01b03166340c10f1930868660400151876020015188600001516200119891906200499f565b620011a491906200499f565b620011b091906200499f565b6040518363ffffffff1660e01b8152600401620011cf9291906200436b565b602060405180830381600087803b158015620011ea57600080fd5b505af1158015620011ff573d6000803e3d6000fd5b505050506040513d601f19601f8201168201806040525081019062001225919062003a79565b50609d54835160405163a9059cbb60e01b81526001600160a01b038481169363a9059cbb936200125d9392909116916004016200436b565b602060405180830381600087803b1580156200127857600080fd5b505af11580156200128d573d6000803e3d6000fd5b505050506040513d601f19601f82011682018060405250810190620012b3919062003a79565b50620012c483602001518262002bfa565b6001600160a01b038216156200135f57604080840151905163a9059cbb60e01b81526001600160a01b0383169163a9059cbb91620013079186916004016200436b565b602060405180830381600087803b1580156200132257600080fd5b505af115801562001337573d6000803e3d6000fd5b505050506040513d601f19601f820116820180604052508101906200135d919062003a79565b505b600085815260a26020908152604091829020825161016081018452815460ff16151581526001820154928101929092526002810154928201839052600381015460608301526004810154608083015260058101546001600160a01b0390811660a08401526006820154811660c0840152600782015460e084015260088201546101008401526009820154610120840152600a909101541661014082015290620014da5760c081015160405163a9059cbb60e01b81526001600160a01b0384169163a9059cbb9162001436919089906004016200436b565b602060405180830381600087803b1580156200145157600080fd5b505af115801562001466573d6000803e3d6000fd5b505050506040513d601f19601f820116820180604052508101906200148c919062003a79565b507f43c9c64e3d0a7d664252e89fe26c8958a77098900ebf13f7aa95030a371bc4328160c00151868487878b604051620014cc9695949392919062004384565b60405180910390a16200175d565b8060a001516001600160a01b0316876000815181106200150a57634e487b7160e01b600052603260045260246000fd5b60200260200101516001600160a01b03161480156200157657508061014001516001600160a01b03168760018951620015449190620049ba565b815181106200156357634e487b7160e01b600052603260045260246000fd5b60200260200101516001600160a01b0316145b620015c25760405162461bcd60e51b815260206004820152601b60248201527a0a4eadccaa4deeae8cae498deced2c67440eee4dedcce40e0c2e8d602b1b604482015260640162000ae0565b600080620015e183604001518460c00151898661012001518d62002d9f565b91509150811562001679577fed12b1e275b408eb8b01de7d246293c2daf02f98422b51b0af3012463e2a725e8360c0015188868460018651620016259190620049ba565b815181106200164457634e487b7160e01b600052603260045260246000fd5b60200260200101518761014001518b8b8f6040516200166b989796959493929190620043ca565b60405180910390a16200175a565b7f2eefdda27738a7be93aea5dafceb4d8af2e8e046fd411a8c94bb449508af05a28360c0015188868661012001518761014001518b8b8f604051620016c6989796959493929190620043ca565b60405180910390a160c083015160405163a9059cbb60e01b81526001600160a01b0386169163a9059cbb916200170291908b906004016200436b565b602060405180830381600087803b1580156200171d57600080fd5b505af115801562001732573d6000803e3d6000fd5b505050506040513d601f19601f8201168201806040525081019062001758919062003a79565b505b50505b5050505050506200176e6001606555565b50505050505050505050565b6200178462002b3b565b806127101015620017a95760405162461bcd60e51b815260040162000ae090620046b5565b609a5460408051918252602082018390527f44c6802691f6adea249930369a511db979a5e9a3603bdb37ceee1036da80e980910160405180910390a1609a55565b620017f462002b3b565b7f31a8c4e62daac2a3ed5d713004d9ae867d6dcddfa35603db2a4b65d9236b1bc18282604051620018279291906200476e565b60405180910390a1600091825260a3602052604090912080546001600160a01b0319166001600160a01b03909216919091179055565b6200186762002b3b565b565b6200187362002b3b565b600083815260a76020908152604091829020805460019091015483518781526001600160a01b039283169381019390935282840152841660608201526080810183905290517f23385740814648db624aa52a0c990fc42def14e1b04e7fe5b2bf87b85e1294529181900360a00190a16040805180820182526001600160a01b0393841681526020808201938452600095865260a790529320925183546001600160a01b031916921691909117825551600190910155565b6200193462002b3b565b806127101015620019595760405162461bcd60e51b815260040162000ae090620046b5565b60995460408051918252602082018390527f7d205f60891f60851c61cd244ba387d72b6589e7c0ac41b9d909ab0ce2c2a53b910160405180910390a1609955565b620019a462002b9e565b609e546001600160a01b0316336001600160a01b03161462001a075760405162461bcd60e51b815260206004820152601b60248201527a293ab732a937baba32b92637b3b4b19d103737ba103637b1b5b2b960291b604482015260640162000ae0565b609754609c5460405163e291283d60e01b815260009273__$67e4a81169bd42f3bd76691a8cba760d26$__9263e291283d9262001a6092916001600160a01b0316908e908e908e908e908e908e908e906004016200481a565b60206040518083038186803b15801562001a7957600080fd5b505af415801562001a8e573d6000803e3d6000fd5b505050506040513d601f19601f8201168201806040525081019062001ab4919062003b61565b905060005b825181101562001dfa5760a483828151811062001ae657634e487b7160e01b600052603260045260246000fd5b60200260200101518154811062001b0d57634e487b7160e01b600052603260045260246000fd5b600091825260209091206007909102015460ff161562001b7b5760405162461bcd60e51b815260206004820152602260248201527f52756e65526f757465724c6f6769633a20616c72656164792070726f63657373604482015261195960f21b606482015260840162000ae0565b600160a484838151811062001ba057634e487b7160e01b600052603260045260246000fd5b60200260200101518154811062001bc757634e487b7160e01b600052603260045260246000fd5b906000526020600020906007020160000160006101000a81548160ff0219169083151502179055507f3922cf2b1e70997609e6dbe5a0af9360f827a7ef03e3f6cf8728e23afa52ba8260a484838151811062001c3357634e487b7160e01b600052603260045260246000fd5b60200260200101518154811062001c5a57634e487b7160e01b600052603260045260246000fd5b906000526020600020906007020160040160009054906101000a90046001600160a01b031660a485848151811062001ca257634e487b7160e01b600052603260045260246000fd5b60200260200101518154811062001cc957634e487b7160e01b600052603260045260246000fd5b90600052602060002090600702016002015460a486858151811062001cfe57634e487b7160e01b600052603260045260246000fd5b60200260200101518154811062001d2557634e487b7160e01b600052603260045260246000fd5b906000526020600020906007020160050160a487868151811062001d5957634e487b7160e01b600052603260045260246000fd5b60200260200101518154811062001d8057634e487b7160e01b600052603260045260246000fd5b906000526020600020906007020160060160009054906101000a900460ff1687868151811062001dc057634e487b7160e01b600052603260045260246000fd5b60200260200101518760405162001ddd9695949392919062004423565b60405180910390a18062001df18162004a44565b91505062001ab9565b505062001e076001606555565b5050505050505050565b62001e1b62002b3b565b6000818152609f60205260409020546001600160a01b03168062001e7e5760405162461bcd60e51b8152602060048201526019602482015278293ab732a937baba32b92637b3b4b19d103737903a37b5b2b760391b604482015260640162000ae0565b7ff61991393940604b8433d5f9a855624b8452e131d66e476a45c7139651df9699828260405162001eb19291906200476e565b60405180910390a16001600160a01b038116600090815260a06020526040812062001edc9162003763565b6001600160a01b0316600090815260a160209081526040808320839055928252609f90522080546001600160a01b0319169055565b6033546001600160a01b031690565b62001f2a62002b3b565b6001600160a01b03918216600090815260ab6020526040902080546001600160a01b03191691909216179055565b62001f6262002b3b565b60a85460408051918252602082018390527f24a1cf21e7b4eac23dffa41704078ed28bbe2a42187f6aa014899c5413cd01b7910160405180910390a160a855565b62001fad62002b3b565b60aa80546001600160a01b0319166001600160a01b0392909216919091179055565b806001600160a01b03811662001ff95760405162461bcd60e51b815260040162000ae09062004737565b6200200362002b3b565b7f150b77d21bd499fd0dccea9fe32513c7b65aa34ccde41e7dafac74ace8e19c9460a660019054906101000a90046001600160a01b0316836040516200204b929190620041e0565b60405180910390a15060a680546001600160a01b0390921661010002610100600160a81b0319909216919091179055565b600081815260a2602052604081205460ff1662000e6457600062000e67565b620020a562002b3b565b8151620020ba9060a5906020850190620036d4565b5060a6805482919060ff19166001836005811115620020e957634e487b7160e01b600052602160045260246000fd5b02179055505050565b806001600160a01b0381166200211c5760405162461bcd60e51b815260040162000ae09062004737565b6200212662002b3b565b609c546040517f4c28a3f61a715259c4dc930c23e7423b8fa52e13232c061a6e488729c66184f49162002167916001600160a01b03909116908590620041e0565b60405180910390a150609c80546001600160a01b0319166001600160a01b0392909216919091179055565b60a48181548110620021a357600080fd5b600091825260209091206007909102018054600182015460028301546003840154600485015460058601805460ff90961697509395929491936001600160a01b039091169291620021f49062004a07565b80601f0160208091040260200160405190810160405280929190818152602001828054620022229062004a07565b8015620022735780601f10620022475761010080835404028352916020019162002273565b820191906000526020600020905b8154815290600101906020018083116200225557829003601f168201915b5050506006909301549192505060ff1687565b806001600160a01b038116620022b05760405162461bcd60e51b815260040162000ae09062004737565b620022ba62002b3b565b5060a980546001600160a01b0319166001600160a01b0392909216919091179055565b620022e762002b9e565b6000878152609f60205260409020546001600160a01b0316806200234e5760405162461bcd60e51b815260206004820152601e60248201527f52756e65526f757465724c6f6769633a206e6f7420737570706f727465640000604482015260640162000ae0565b60a854341115620024b45760a8546200236890846200499f565b3414620023b75760405162461bcd60e51b815260206004820152601c60248201527b52756e65526f757465724c6f6769633a2077726f6e672076616c756560201b604482015260640162000ae0565b81600081518110620023d957634e487b7160e01b600052603260045260246000fd5b602090810291909101015160a9546001600160a01b03908116911614620024435760405162461bcd60e51b815260206004820152601d60248201527f52756e65526f757465724c6f6769633a20696e76616c69642070617468000000604482015260640162000ae0565b60a960009054906101000a90046001600160a01b03166001600160a01b031663d0e30db0846040518263ffffffff1660e01b81526004016000604051808303818588803b1580156200249457600080fd5b505af1158015620024a9573d6000803e3d6000fd5b505050505062002504565b60a8543414620025045760405162461bcd60e51b815260206004820152601a60248201527952756e65526f757465724c6f6769633a2077726f6e672066656560301b604482015260640162000ae0565b815115620026775760a854341415620025d157816000815181106200253957634e487b7160e01b600052603260045260246000fd5b60200260200101516001600160a01b03166323b872dd620025573390565b30866040518463ffffffff1660e01b8152600401620025799392919062004231565b602060405180830381600087803b1580156200259457600080fd5b505af1158015620025a9573d6000803e3d6000fd5b505050506040513d601f19601f82011682018060405250810190620025cf919062003a79565b505b600080620025e38630878c8862002d9f565b9150915081620026355760405162461bcd60e51b815260206004820152601c60248201527b149d5b99549bdd5d195c931bd9da58ce881cddd85c0819985a5b195960221b604482015260640162000ae0565b8060018251620026469190620049ba565b815181106200266557634e487b7160e01b600052603260045260246000fd5b6020026020010151985050506200274d565b6040516323b872dd60e01b81526001600160a01b038216906323b872dd90620026a990339030908c9060040162004231565b602060405180830381600087803b158015620026c457600080fd5b505af1158015620026d9573d6000803e3d6000fd5b505050506040513d601f19601f82011682018060405250810190620026ff919062003a79565b6200274d5760405162461bcd60e51b815260206004820181905260248201527f52756e65526f757465724c6f6769633a207472616e73666572206661696c6564604482015260640162000ae0565b6000806000620027618c858c8c8c62002ff6565b925092509250845160001415620027d8577f7ded23d6204f0918dc93f275df51659538e59e8aaf5698ce1f49180c22857b53338a8a878e868960a8548a600160a480549050620027b29190620049ba565b604051620027ca9a9998979695949392919062004255565b60405180910390a162002866565b7fe17d30e84f141d5effc904ed29262988eb565f53a8c01270148776b88451bb71338a8a89896000815181106200281f57634e487b7160e01b600052603260045260246000fd5b60200260200101518f878b8b60a8548c600160a480549050620028439190620049ba565b6040516200285d9c9b9a99989796959493929190620042d9565b60405180910390a15b5050505062001e076001606555565b6200287f62002b3b565b609855565b806001600160a01b038116620028ae5760405162461bcd60e51b815260040162000ae09062004737565b620028b862002b3b565b609d546040517f567657fa3f286518b318f4a29870674f433f622fdfc819691acb13105b22822591620028f9916001600160a01b03909116908590620041e0565b60405180910390a150609d80546001600160a01b0319166001600160a01b0392909216919091179055565b6200292e62002b3b565b6001600160a01b038116620029955760405162461bcd60e51b815260206004820152602660248201527f4f776e61626c653a206e6577206f776e657220697320746865207a65726f206160448201526564647265737360d01b606482015260840162000ae0565b620029a081620032bd565b50565b600054610100900460ff1615808015620029c45750600054600160ff909116105b80620029e05750303b158015620029e0575060005460ff166001145b62002a455760405162461bcd60e51b815260206004820152602e60248201527f496e697469616c697a61626c653a20636f6e747261637420697320616c72656160448201526d191e481a5b9a5d1a585b1a5e995960921b606482015260840162000ae0565b6000805460ff19166001179055801562002a69576000805461ff0019166101001790555b62002a736200330f565b62002a7d62003343565b609889905562002a8d8c62000f0d565b62002a988b6200192a565b62002aa38a6200177a565b62002aae88620020f2565b62002ab98762000e6d565b62002ac586866200209b565b62002ad08462001fcf565b62002adb8362002884565b62002ae68262002286565b801562002b2d576000805461ff0019169055604051600181527f7f26b83ff96e1f2b6a682f133852f6798a09c465da95921460cefb38474024989060200160405180910390a15b505050505050505050505050565b3362002b4662001f11565b6001600160a01b031614620018675760405162461bcd60e51b815260206004820181905260248201527f4f776e61626c653a2063616c6c6572206973206e6f7420746865206f776e6572604482015260640162000ae0565b6002606554141562002bf35760405162461bcd60e51b815260206004820152601f60248201527f5265656e7472616e637947756172643a207265656e7472616e742063616c6c00604482015260640162000ae0565b6002606555565b811562002d9b5760aa546001600160a01b031662002ca357609e5460405163a9059cbb60e01b81526001600160a01b038381169263a9059cbb9262002c48929091169086906004016200436b565b602060405180830381600087803b15801562002c6357600080fd5b505af115801562002c78573d6000803e3d6000fd5b505050506040513d601f19601f8201168201806040525081019062002c9e919062003a79565b505050565b60aa5460405163095ea7b360e01b81526001600160a01b038381169263095ea7b39262002cd9929091169086906004016200436b565b602060405180830381600087803b15801562002cf457600080fd5b505af115801562002d09573d6000803e3d6000fd5b505050506040513d601f19601f8201168201806040525081019062002d2f919062003a79565b5060aa546001600160a01b03828116600090815260ab60205260409081902054905162002c9e9383169262002d6b92169086906024016200436b565b60408051601f198184030181529190526020810180516001600160e01b0316637db4e28f60e01b17905262003377565b5050565b600085815260a360205260408120546060906001600160a01b03168062002e095760405162461bcd60e51b815260206004820152601e60248201527f52756e65526f757465724c6f6769633a20696e76616c69642061707049640000604482015260640162000ae0565b8360008151811062002e2b57634e487b7160e01b600052603260045260246000fd5b60200260200101516001600160a01b031663095ea7b382886040518363ffffffff1660e01b815260040162002e629291906200436b565b602060405180830381600087803b15801562002e7d57600080fd5b505af115801562002e92573d6000803e3d6000fd5b505050506040513d601f19601f8201168201806040525081019062002eb8919062003a79565b506040516326d2f28960e21b81526001600160a01b03821690639b4bca249062002ee790879060040162004572565b60206040518083038186803b15801562002f0057600080fd5b505afa15801562002f15573d6000803e3d6000fd5b505050506040513d601f19601f8201168201806040525081019062002f3b919062003a79565b1562002fdf5760405163161779b160e31b81526001600160a01b0382169063b0bbcd889062002f7a908990899089908d904290600190600401620048fc565b600060405180830381600087803b15801562002f9557600080fd5b505af115801562002faa573d6000803e3d6000fd5b505050506040513d6000823e601f3d908101601f1916820160405262002fd4919081019062003a96565b909350915062002fe4565b600092505b509550959350505050565b6001606555565b6200301b60405180606001604052806000815260200160008152602001600081525090565b60008073__$67e4a81169bd42f3bd76691a8cba760d26$__6394d8bc6a33609954609a5460a460a78e8d8d8d6040518a63ffffffff1660e01b81526004016200306d9998979695949392919062004509565b60a06040518083038186803b1580156200308657600080fd5b505af41580156200309b573d6000803e3d6000fd5b505050506040513d601f19601f82011682018060405250810190620030c1919062003e61565b609b805493965091945092506000620030da8362004a44565b9091555050609d54835160405163a9059cbb60e01b81526001600160a01b038a81169363a9059cbb93620031169392909116916004016200436b565b602060405180830381600087803b1580156200313157600080fd5b505af115801562003146573d6000803e3d6000fd5b505050506040513d601f19601f820116820180604052508101906200316c919062003a79565b506200317d83602001518862002bfa565b6001600160a01b038216156200321857604080840151905163a9059cbb60e01b81526001600160a01b0389169163a9059cbb91620031c09186916004016200436b565b602060405180830381600087803b158015620031db57600080fd5b505af1158015620031f0573d6000803e3d6000fd5b505050506040513d601f19601f8201168201806040525081019062003216919062003a79565b505b609e5460a85462003233916001600160a01b031690620033c2565b604051630852cd8d60e31b8152600481018290526001600160a01b038816906342966c6890602401602060405180830381600087803b1580156200327657600080fd5b505af11580156200328b573d6000803e3d6000fd5b505050506040513d601f19601f82011682018060405250810190620032b1919062003a79565b50955095509592505050565b603380546001600160a01b038381166001600160a01b0319831681179093556040519116919082907f8be0079c531659141344cd1fd0a4f28419497f9722a3daafe3b4186f6b6457e090600090a35050565b600054610100900460ff16620033395760405162461bcd60e51b815260040162000ae090620046ec565b62001867620034de565b600054610100900460ff166200336d5760405162461bcd60e51b815260040162000ae090620046ec565b6200186762003513565b6060620033bb83836040518060400160405280601e81526020017f416464726573733a206c6f772d6c6576656c2063616c6c206661696c656400008152506200353d565b9392505050565b80471015620034145760405162461bcd60e51b815260206004820152601d60248201527f416464726573733a20696e73756666696369656e742062616c616e6365000000604482015260640162000ae0565b6000826001600160a01b03168260405160006040518083038185875af1925050503d806000811462003463576040519150601f19603f3d011682016040523d82523d6000602084013e62003468565b606091505b505090508062002c9e5760405162461bcd60e51b815260206004820152603a60248201527f416464726573733a20756e61626c6520746f2073656e642076616c75652c20726044820152791958da5c1a595b9d081b585e481a185d99481c995d995c9d195960321b606482015260840162000ae0565b600054610100900460ff16620035085760405162461bcd60e51b815260040162000ae090620046ec565b6200186733620032bd565b600054610100900460ff1662002fef5760405162461bcd60e51b815260040162000ae090620046ec565b60606200354e848460008562003556565b949350505050565b606082471015620035b95760405162461bcd60e51b815260206004820152602660248201527f416464726573733a20696e73756666696369656e742062616c616e636520666f6044820152651c8818d85b1b60d21b606482015260840162000ae0565b843b620036095760405162461bcd60e51b815260206004820152601d60248201527f416464726573733a2063616c6c20746f206e6f6e2d636f6e7472616374000000604482015260640162000ae0565b600080866001600160a01b03168587604051620036279190620041ae565b60006040518083038185875af1925050503d806000811462003666576040519150601f19603f3d011682016040523d82523d6000602084013e6200366b565b606091505b50915091506200367d82828662003688565b979650505050505050565b6060831562003699575081620033bb565b825115620036aa5782518084602001fd5b8160405162461bcd60e51b815260040162000ae09190620045e1565b610f2c8062004aa583390190565b828054620036e29062004a07565b90600052602060002090601f01602090048101928262003706576000855562003751565b82601f106200372157805160ff191683800117855562003751565b8280016001018555821562003751579182015b828111156200375157825182559160200191906001019062003734565b506200375f9291506200379d565b5090565b508054620037719062004a07565b6000825580601f1062003782575050565b601f016020900490600052602060002090810190620029a091905b5b808211156200375f57600081556001016200379e565b8035620037c18162004a8e565b919050565b600082601f830112620037d7578081fd5b81356020620037f0620037ea8362004979565b62004946565b80838252828201915082860187848660051b890101111562003810578586fd5b855b858110156200383b578135620038288162004a8e565b8452928401929084019060010162003812565b5090979650505050505050565b600082601f83011262003859578081fd5b813560206200386c620037ea8362004979565b80838252828201915082860187848660051b89010111156200388c578586fd5b855b858110156200383b578135845292840192908401906001016200388e565b80518015158114620037c157600080fd5b80356001600160e01b031981168114620037c157600080fd5b60008083601f840112620038e8578182fd5b5081356001600160401b03811115620038ff578182fd5b6020830191508360208285010111156200391857600080fd5b9250929050565b600082601f83011262003930578081fd5b81356001600160401b038111156200394c576200394c62004a78565b62003961601f8201601f191660200162004946565b81815284602083860101111562003976578283fd5b816020850160208301379081016020019190915292915050565b803560068110620037c157600080fd5b600060608284031215620039b2578081fd5b604051606081016001600160401b0381118282101715620039d757620039d762004a78565b80604052508091508251815260208301516020820152604083015160408201525092915050565b60006020828403121562003a10578081fd5b8135620033bb8162004a8e565b60006020828403121562003a2f578081fd5b8151620033bb8162004a8e565b6000806040838503121562003a4f578081fd5b823562003a5c8162004a8e565b9150602083013562003a6e8162004a8e565b809150509250929050565b60006020828403121562003a8b578081fd5b620033bb82620038ac565b6000806040838503121562003aa9578182fd5b62003ab483620038ac565b602084810151919350906001600160401b0381111562003ad2578283fd5b8401601f8101861362003ae3578283fd5b805162003af4620037ea8262004979565b80828252848201915084840189868560051b870101111562003b14578687fd5b8694505b8385101562003b3857805183526001949094019391850191850162003b18565b5080955050505050509250929050565b60006020828403121562003b5a578081fd5b5035919050565b60006020828403121562003b73578081fd5b5051919050565b6000806000806000806000806000806101008b8d03121562003b9a578586fd5b62003ba58b620038bd565b995060208b01356001600160401b038082111562003bc1578788fd5b62003bcf8e838f016200391f565b9a5060408d013591508082111562003be5578788fd5b62003bf38e838f01620038d6565b909a50985088915062003c0960608e01620038bd565b975060808d0135965060a08d013591508082111562003c26578586fd5b62003c348e838f01620038d6565b909650945060c08d0135935060e08d013591508082111562003c54578283fd5b5062003c638d828e01620037c6565b9150509295989b9194979a5092959850565b600080600080600080600080610100898b03121562003c92578182fd5b62003c9d89620038bd565b975060208901356001600160401b038082111562003cb9578384fd5b62003cc78c838d016200391f565b985060408b013591508082111562003cdd578384fd5b62003ceb8c838d016200391f565b975062003cfb60608c01620038bd565b965060808b0135955060a08b013591508082111562003d18578384fd5b62003d268c838d016200391f565b945060c08b0135935060e08b013591508082111562003d43578283fd5b5062003d528b828c0162003848565b9150509295985092959890939650565b6000806040838503121562003d75578182fd5b82356001600160401b0381111562003d8b578283fd5b62003d99858286016200391f565b92505062003daa6020840162003990565b90509250929050565b600080600080600060a0868803121562003dcb578283fd5b85356001600160401b038082111562003de2578485fd5b62003df089838a016200391f565b9650602088013591508082111562003e06578485fd5b62003e1489838a016200391f565b9550604088013591508082111562003e2a578485fd5b5062003e39888289016200391f565b935050606086013560ff8116811462003e50578182fd5b949793965091946080013592915050565b600080600060a0848603121562003e76578081fd5b62003e828585620039a0565b9250606084015162003e948162004a8e565b80925050608084015190509250925092565b6000806040838503121562003eb9578182fd5b82359150602083013562003a6e8162004a8e565b60008060006060848603121562003ee2578081fd5b83359250602084013562003ef68162004a8e565b929592945050506040919091013590565b60008060008060c0858703121562003f1d578182fd5b8451935062003f308660208701620039a0565b9250608085015162003f428162004a8e565b60a086015190925062003f558162004a8e565b939692955090935050565b600080600080600080600080610100898b03121562003f7d578182fd5b88359750602089013596506040890135955060608901356001600160401b038082111562003fa9578384fd5b62003fb78c838d016200391f565b965062003fc760808c0162003990565b955060a08b0135945060c08b0135935060e08b013591508082111562003feb578283fd5b5062003d528b828c01620037c6565b60008060008060008060008060008060006101608c8e0312156200401c578485fd5b8b359a5060208c0135995060408c0135985060608c0135975060808c0135620040458162004a8e565b965060a08c0135620040578162004a8e565b955060c08c01356001600160401b0381111562004072578586fd5b620040808e828f016200391f565b9550506200409160e08d0162003990565b9350620040a26101008d01620037b4565b9250620040b36101208d01620037b4565b9150620040c46101408d01620037b4565b90509295989b509295989b9093969950565b6000815180845260208085019450808401835b83811015620041105781516001600160a01b031687529582019590820190600101620040e9565b509495945050505050565b81835281816020850137506000828201602090810191909152601f909101601f19169091010190565b600081518084526200415e816020860160208601620049d4565b601f01601f19169290920160200192915050565b600681106200419157634e487b7160e01b600052602160045260246000fd5b9052565b8051825260208082015190830152604090810151910152565b60008251620041c2818460208701620049d4565b9190910192915050565b6001600160a01b0391909116815260200190565b6001600160a01b0392831681529116602082015260400190565b6001600160a01b03848116825283166020820152606060408201819052600090620042289083018462004144565b95945050505050565b6001600160a01b039384168152919092166020820152604081019190915260600190565b6001600160a01b038b81168252610180602083018190526000916200427d8483018e62004144565b92506200428e604085018d62004172565b808b1660608501528960808501528860a0850152620042b160c085018962004195565b866101208501528086166101408501525050826101608301529b9a5050505050505050505050565b600060018060a01b03808f1683526101c06020840152620042ff6101c084018f62004144565b915062004310604084018e62004172565b8b6060840152808b1660808401528960a08401528860c084015280881660e08401526200434261010084018862004195565b8561016084015280851661018084015250826101a08301529d9c50505050505050505050505050565b6001600160a01b03929092168252602082015260400190565b6001600160a01b038781168252602082018790528581166040830152610100820190620043b5606084018762004195565b9390931660c082015260e00152949350505050565b6001600160a01b0389811682526020820189905287811660408301526060820187905285811660808301526101408201906200440a60a084018762004195565b9390931661010082015261012001529695505050505050565b6001600160a01b0387168152602080820187905260c060408301528554600091908290600181811c90828116806200445c57607f831692505b8583108114156200447b57634e487b7160e01b87526022600452602487fd5b60c0880183905260e088018180156200449d5760018114620044af57620044db565b60ff19861682528782019650620044db565b60008e815260209020895b86811015620044d557815484820152908501908901620044ba565b83019750505b5050505050508092505050620044f5606083018662004172565b608082019390935260a00152949350505050565b600061012060018060a01b038c1683528a60208401528960408401528860608401528760808401528660a08401528560c08401528060e0840152620045518184018662004144565b9150506200456461010083018462004172565b9a9950505050505050505050565b602081526000620033bb6020830184620040d6565b871515815286602082015285604082015284606082015260018060a01b038416608082015260e060a08201526000620045c460e083018562004144565b9050620045d560c083018462004172565b98975050505050505050565b602081526000620033bb602083018462004144565b6020810162000e67828462004172565b60e0815260006200461b60e083018a62004144565b82810360208401526200462f818a62004144565b9050828103604084015262004645818962004144565b60ff979097166060840152505060808101939093526001600160a01b0391821660a08401521660c0909101529392505050565b6060815260006200468d606083018662004144565b8281036020840152620046a1818662004144565b91505060ff83166040830152949350505050565b6020808252601d908201527f52756e65526f757465724c6f6769633a206f7574206f662072616e6765000000604082015260600190565b6020808252602b908201527f496e697469616c697a61626c653a20636f6e7472616374206973206e6f74206960408201526a6e697469616c697a696e6760a81b606082015260800190565b6020808252601d908201527f52756e65526f757465724c6f6769633a207a65726f2061646472657373000000604082015260600190565b9182526001600160a01b0316602082015260400190565b8b81526001600160a01b038b1660208201526001600160e01b03198a8116604083015261012060608301819052600091620047c38483018d62004144565b91508382036080850152620047da828b8d6200411b565b915080891660a0850152508660c084015282810360e0840152620048008186886200411b565b915050826101008301529c9b505050505050505050505050565b8981526001600160a01b03891660208201526001600160e01b0319888116604083015261012060608301819052600091620048588483018b62004144565b915083820360808501526200486e828a62004144565b915080881660a0850152508560c084015282810360e084015262004893818662004144565b915050826101008301529a9950505050505050505050565b60006101008b8352806020840152620048c88184018b8d6200411b565b604084019990995250506060810195909552608085019390935260a084019190915260c083015260e0909101529392505050565b86815285602082015260c0604082015260006200491d60c0830187620040d6565b6001600160a01b03959095166060830152506080810192909252151560a0909101529392505050565b604051601f8201601f191681016001600160401b038111828210171562004971576200497162004a78565b604052919050565b60006001600160401b0382111562004995576200499562004a78565b5060051b60200190565b60008219821115620049b557620049b562004a62565b500190565b600082821015620049cf57620049cf62004a62565b500390565b60005b83811015620049f1578181015183820152602001620049d7565b8381111562004a01576000848401525b50505050565b600181811c9082168062004a1c57607f821691505b6020821081141562004a3e57634e487b7160e01b600052602260045260246000fd5b50919050565b600060001982141562004a5b5762004a5b62004a62565b5060010190565b634e487b7160e01b600052601160045260246000fd5b634e487b7160e01b600052604160045260246000fd5b6001600160a01b0381168114620029a057600080fdfe608060405260405162000f2c38038062000f2c8339810160408190526200002691620004e0565b82828282816200005860017f360894a13ba1a3210667c828492db98dca3e2076cc3735a920a3ca505d382bbd6200060f565b60008051602062000ee5833981519152146200008457634e487b7160e01b600052600160045260246000fd5b620000928282600062000105565b50620000c2905060017fb53127684a568b3173ae13b9f8a6016e243e63b6e8ee1178d6a717850b5d61046200060f565b60008051602062000ec583398151915214620000ee57634e487b7160e01b600052600160045260246000fd5b620000f98262000142565b50505050505062000678565b62000110836200019d565b6000825111806200011e5750805b156200013d576200013b8383620001df60201b620002601760201c565b505b505050565b7f7e644d79422f17c01e4894b5f4f588d331ebfa28653d42ae832dc59e38c9798f6200016d6200020e565b604080516001600160a01b03928316815291841660208301520160405180910390a16200019a8162000247565b50565b620001a881620002fc565b6040516001600160a01b038216907fbc7cd75a20ee27fd9adebab32041f755214dbc6bffa90cc0225b39da2e5c2d3b90600090a250565b606062000207838360405180606001604052806027815260200162000f05602791396200039f565b9392505050565b60006200023860008051602062000ec583398151915260001b6200047c60201b620002081760201c565b546001600160a01b0316919050565b6001600160a01b038116620002b25760405162461bcd60e51b815260206004820152602660248201527f455243313936373a206e65772061646d696e20697320746865207a65726f206160448201526564647265737360d01b60648201526084015b60405180910390fd5b80620002db60008051602062000ec583398151915260001b6200047c60201b620002081760201c565b80546001600160a01b0319166001600160a01b039290921691909117905550565b62000312816200047f60201b6200028c1760201c565b620003765760405162461bcd60e51b815260206004820152602d60248201527f455243313936373a206e657720696d706c656d656e746174696f6e206973206e60448201526c1bdd08184818dbdb9d1c9858dd609a1b6064820152608401620002a9565b80620002db60008051602062000ee583398151915260001b6200047c60201b620002081760201c565b6060833b620004005760405162461bcd60e51b815260206004820152602660248201527f416464726573733a2064656c65676174652063616c6c20746f206e6f6e2d636f6044820152651b9d1c9858dd60d21b6064820152608401620002a9565b600080856001600160a01b0316856040516200041d9190620005bc565b600060405180830381855af49150503d80600081146200045a576040519150601f19603f3d011682016040523d82523d6000602084013e6200045f565b606091505b5090925090506200047282828662000485565b9695505050505050565b90565b3b151590565b606083156200049657508162000207565b825115620004a75782518084602001fd5b8160405162461bcd60e51b8152600401620002a99190620005da565b80516001600160a01b0381168114620004db57600080fd5b919050565b600080600060608486031215620004f5578283fd5b6200050084620004c3565b92506200051060208501620004c3565b60408501519092506001600160401b03808211156200052d578283fd5b818601915086601f83011262000541578283fd5b81518181111562000556576200055662000662565b604051601f8201601f19908116603f0116810190838211818310171562000581576200058162000662565b816040528281528960208487010111156200059a578586fd5b620005ad83602083016020880162000633565b80955050505050509250925092565b60008251620005d081846020870162000633565b9190910192915050565b6020815260008251806020840152620005fb81604085016020870162000633565b601f01601f19169190910160400192915050565b6000828210156200062e57634e487b7160e01b81526011600452602481fd5b500390565b60005b838110156200065057818101518382015260200162000636565b838111156200013b5750506000910152565b634e487b7160e01b600052604160045260246000fd5b61083d80620006886000396000f3fe60806040526004361061004e5760003560e01c80633659cfe6146100655780634f1ef286146100855780635c60da1b146100985780638f283970146100c9578063f851a440146100e95761005d565b3661005d5761005b6100fe565b005b61005b6100fe565b34801561007157600080fd5b5061005b61008036600461068e565b610118565b61005b6100933660046106a8565b61015f565b3480156100a457600080fd5b506100ad6101d0565b6040516001600160a01b03909116815260200160405180910390f35b3480156100d557600080fd5b5061005b6100e436600461068e565b61020b565b3480156100f557600080fd5b506100ad610235565b610106610292565b610116610111610331565b61033b565b565b61012061035f565b6001600160a01b0316336001600160a01b031614156101575761015481604051806020016040528060008152506000610380565b50565b6101546100fe565b61016761035f565b6001600160a01b0316336001600160a01b031614156101c8576101c38383838080601f01602080910402602001604051908101604052809392919081815260200183838082843760009201919091525060019250610380915050565b505050565b6101c36100fe565b60006101da61035f565b6001600160a01b0316336001600160a01b03161415610200576101fb610331565b905090565b6102086100fe565b90565b61021361035f565b6001600160a01b0316336001600160a01b0316141561015757610154816103ab565b600061023f61035f565b6001600160a01b0316336001600160a01b03161415610200576101fb61035f565b606061028583836040518060600160405280602781526020016107e1602791396103ff565b9392505050565b3b151590565b61029a61035f565b6001600160a01b0316336001600160a01b031614156101165760405162461bcd60e51b815260206004820152604260248201527f5472616e73706172656e745570677261646561626c6550726f78793a2061646d60448201527f696e2063616e6e6f742066616c6c6261636b20746f2070726f78792074617267606482015261195d60f21b608482015260a4015b60405180910390fd5b60006101fb6104d3565b3660008037600080366000845af43d6000803e80801561035a573d6000f35b3d6000fd5b60006000805160206107a18339815191525b546001600160a01b0316919050565b610389836104e9565b6000825111806103965750805b156101c3576103a58383610260565b50505050565b7f7e644d79422f17c01e4894b5f4f588d331ebfa28653d42ae832dc59e38c9798f6103d461035f565b604080516001600160a01b03928316815291841660208301520160405180910390a161015481610529565b6060833b61045e5760405162461bcd60e51b815260206004820152602660248201527f416464726573733a2064656c65676174652063616c6c20746f206e6f6e2d636f6044820152651b9d1c9858dd60d21b6064820152608401610328565b600080856001600160a01b0316856040516104799190610725565b600060405180830381855af49150503d80600081146104b4576040519150601f19603f3d011682016040523d82523d6000602084013e6104b9565b606091505b50915091506104c98282866105c0565b9695505050505050565b60006000805160206107c1833981519152610371565b6104f2816105f9565b6040516001600160a01b038216907fbc7cd75a20ee27fd9adebab32041f755214dbc6bffa90cc0225b39da2e5c2d3b90600090a250565b6001600160a01b03811661058e5760405162461bcd60e51b815260206004820152602660248201527f455243313936373a206e65772061646d696e20697320746865207a65726f206160448201526564647265737360d01b6064820152608401610328565b806000805160206107a18339815191525b80546001600160a01b0319166001600160a01b039290921691909117905550565b606083156105cf575081610285565b8251156105df5782518084602001fd5b8160405162461bcd60e51b81526004016103289190610741565b803b61065d5760405162461bcd60e51b815260206004820152602d60248201527f455243313936373a206e657720696d706c656d656e746174696f6e206973206e60448201526c1bdd08184818dbdb9d1c9858dd609a1b6064820152608401610328565b806000805160206107c183398151915261059f565b80356001600160a01b038116811461068957600080fd5b919050565b60006020828403121561069f578081fd5b61028582610672565b6000806000604084860312156106bc578182fd5b6106c584610672565b925060208401356001600160401b03808211156106e0578384fd5b818601915086601f8301126106f3578384fd5b813581811115610701578485fd5b876020828501011115610712578485fd5b6020830194508093505050509250925092565b60008251610737818460208701610774565b9190910192915050565b6020815260008251806020840152610760816040850160208701610774565b601f01601f19169190910160400192915050565b60005b8381101561078f578181015183820152602001610777565b838111156103a5575050600091015256feb53127684a568b3173ae13b9f8a6016e243e63b6e8ee1178d6a717850b5d6103360894a13ba1a3210667c828492db98dca3e2076cc3735a920a3ca505d382bbc416464726573733a206c6f772d6c6576656c2064656c65676174652063616c6c206661696c6564a264697066735822122064b11b2157d61600a09abbd0eaeb0a67e43f14e3005703114add6fac6fd353ec64736f6c63430008040033b53127684a568b3173ae13b9f8a6016e243e63b6e8ee1178d6a717850b5d6103360894a13ba1a3210667c828492db98dca3e2076cc3735a920a3ca505d382bbc416464726573733a206c6f772d6c6576656c2064656c65676174652063616c6c206661696c6564a264697066735822122072e0c1c9919d55743070341a6c415c6649004e52fa436aedd9375444d8c9135d64736f6c63430008040033",
  "libraries": {
    "RuneRouterLib": "0xc5001e0B89a0F721510CeaF7dcaBAB31658d5D38"
  },
  "devdoc": {
    "kind": "dev",
    "methods": {
      "addRune(string,string,string,uint8,uint256)": {
        "details": "We assign tokenId to a supported Rune",
        "params": {
          "_internalId": "Internal id",
          "_runeId": "Real rune id"
        }
      },
      "initialize(uint256,uint256,uint256,uint256,address,address,bytes,uint8,address,address,address)": {
        "params": {
          "_chainId": "Id of the underlying chain",
          "_protocolPercentageFee": "Percentage amount of protocol fee (min: %0.01)",
          "_relay": "Bitcoin bridge address which validates Bitcoin tx",
          "_startingBlockNumber": "Requests included in a block older than _startingBlockNumber cannot be processed",
          "_treasury": "Address of treasury that collects protocol fees"
        }
      },
      "isWrapRequestProcessed(bytes32)": {
        "params": {
          "_txId": "of the request on Bitcoin"
        }
      },
      "owner()": {
        "details": "Returns the address of the current owner."
      },
      "renounceOwnership()": {
        "details": "Leaves the contract without owner. It will not be possible to call `onlyOwner` functions. Can only be called by the current owner. NOTE: Renouncing ownership will leave the contract without an owner, thereby disabling any functionality that is only available to the owner."
      },
      "setExchangeConnector(uint256,address)": {
        "details": "If address(0) is set for an appId, that appId is inactive"
      },
      "setRewardDistributor(address)": {
        "details": "This contract distributes locker fee between locker and stakers"
      },
      "setUnwrapFee(uint256)": {
        "details": "This fee is taken for unwrap requests to cover the Bitcoin network fee"
      },
      "transferOwnership(address)": {
        "details": "Transfers ownership of the contract to a new account (`newOwner`). Can only be called by the current owner."
      },
      "unwrapRune(uint256,uint256,uint256,bytes,uint8,uint256,uint256,address[])": {
        "details": "For unwrap requests (not swap & unwrap), pass _appId,      _inputAmount and _path ZERO",
        "params": {
          "_amount": "of WRune that user wants to burn",
          "_scriptType": "User script type",
          "_userScript": "User script hash"
        }
      },
      "wrapRune(bytes4,bytes,bytes,bytes4,uint256,bytes,uint256,address[])": {
        "details": "Locker submits wrap requests to this function for:      1) Checking tx inclusion      2) Extracting wrap request info from the OP_RETURN output      3) Exchanging wrapped Rune (if request is wrap & exchange) using the path         provided by the locker",
        "params": {
          "_blockNumber": "that includes the tx",
          "_index": "of tx in the block",
          "_intermediateNodes": "Merkle proof for tx",
          "_locktime": "Tx locktime",
          "_version": "of Bitcoin tx",
          "_vin": "Tx inputs",
          "_vout": "Tx outputs"
        }
      }
    },
    "version": 1
  },
  "userdoc": {
    "events": {
      "FailedRuneWrapAndSwap(address,uint256,address,uint256,address,(uint256,uint256,uint256),address,bytes32)": {
        "notice": "Emit when a wrap&swap request is processed but swap failed"
      },
      "NewLocker(address,address)": {
        "notice": "Emit when locker address updated"
      },
      "NewLockerPercentageFee(uint256,uint256)": {
        "notice": "Emit when protocol fee updated"
      },
      "NewProtocolPercentageFee(uint256,uint256)": {
        "notice": "Emit when protocol fee updated"
      },
      "NewRelay(address,address)": {
        "notice": "Emit when relay address updated"
      },
      "NewRune(string,string,string,uint256,uint256,address,address)": {
        "notice": "Emit when new Rune added"
      },
      "NewRuneSwapAndUnwrap(address,bytes,uint8,uint256,address,uint256,uint256,address,(uint256,uint256,uint256),uint256,address,uint256)": {
        "notice": "Emit when a new rune swap&unwrap request is created"
      },
      "NewRuneUnwrap(address,bytes,uint8,address,uint256,uint256,(uint256,uint256,uint256),uint256,address,uint256)": {
        "notice": "Emit when a new rune unwrap request is created"
      },
      "NewRuneWrap(address,uint256,address,(uint256,uint256,uint256),address,bytes32)": {
        "notice": "Emit when a rune wrap request is processed"
      },
      "NewRuneWrapAndSwap(address,uint256,address,uint256,address,(uint256,uint256,uint256),address,bytes32)": {
        "notice": "Emit when a wrap&swap request is processed"
      },
      "NewTeleporter(address,address)": {
        "notice": "Emit when teleporter address updated"
      },
      "NewTreasury(address,address)": {
        "notice": "Emit when treasury address updated"
      },
      "RuneRemoved(uint256,address)": {
        "notice": "Emit when Rune removed"
      },
      "SetExchangeConnector(uint256,address)": {
        "notice": "Emits when appId for an exchange connector is set"
      },
      "ThirdPartyInfoUpdated(uint256,address,uint256,address,uint256)": {
        "notice": "Emit when third party fee updated"
      },
      "UnwrapFeeUpdated(uint256,uint256)": {
        "notice": "Emit when unwrap fee updated"
      },
      "UnwrapRuneProcessed(address,uint256,bytes,uint8,uint256,bytes32)": {
        "notice": "Emit when a unwrap request is processed"
      }
    },
    "kind": "user",
    "methods": {
      "addRune(string,string,string,uint8,uint256)": {
        "notice": "Deploy wrapped Rune token contract"
      },
      "initialize(uint256,uint256,uint256,uint256,address,address,bytes,uint8,address,address,address)": {
        "notice": "Initialize the contract"
      },
      "isUnwrapRequestProcessed(uint256)": {
        "notice": "Check if the unwrap request has been processed before"
      },
      "isWrapRequestProcessed(bytes32)": {
        "notice": "Check if the wrap request has been processed before"
      },
      "removeRune(uint256)": {
        "notice": "Remove support of a wrapped RUNE token"
      },
      "setChainId(uint256)": {
        "notice": "Setter for chainId"
      },
      "setExchangeConnector(uint256,address)": {
        "notice": "Set exchange connector for appId"
      },
      "setLocker(address)": {
        "notice": "Setter for locker"
      },
      "setLockerLockingScript(bytes,uint8)": {
        "notice": "Setter for locker locking script"
      },
      "setLockerPercentageFee(uint256)": {
        "notice": "Setter for locker percentage fee"
      },
      "setProtocolPercentageFee(uint256)": {
        "notice": "Setter for protocol percentage fee"
      },
      "setRelay(address)": {
        "notice": "Setter for Bitcoin relay"
      },
      "setRewardDistributor(address)": {
        "notice": "Setter for reward distributor"
      },
      "setStartingBlockNumber(uint256)": {
        "notice": "Setter for starting block number"
      },
      "setTeleporter(address)": {
        "notice": "Setter for teleporter"
      },
      "setThirdParty(uint256,address,uint256)": {
        "notice": "Setter for third party address and fee"
      },
      "setTreasury(address)": {
        "notice": "Setter for treasury"
      },
      "setUnwrapFee(uint256)": {
        "notice": "Setter for unwrap fee"
      },
      "setWrappedNativeToken(address)": {
        "notice": "Setter for wrapped native token"
      },
      "unwrapProofRune(bytes4,bytes,bytes,bytes4,uint256,bytes,uint256,uint256[])": {
        "notice": "Check proof of unwraping Runes"
      },
      "unwrapRune(uint256,uint256,uint256,bytes,uint8,uint256,uint256,address[])": {
        "notice": "Process user rune unwrap request"
      },
      "wrapRune(bytes4,bytes,bytes,bytes4,uint256,bytes,uint256,address[])": {
        "notice": "Process wrap Rune request"
      }
    },
    "version": 1
  },
  "storageLayout": {
    "storage": [
      {
        "astId": 280,
        "contract": "contracts/rune_router/RuneRouterLogic.sol:RuneRouterLogic",
        "label": "_initialized",
        "offset": 0,
        "slot": "0",
        "type": "t_uint8"
      },
      {
        "astId": 283,
        "contract": "contracts/rune_router/RuneRouterLogic.sol:RuneRouterLogic",
        "label": "_initializing",
        "offset": 1,
        "slot": "0",
        "type": "t_bool"
      },
      {
        "astId": 1751,
        "contract": "contracts/rune_router/RuneRouterLogic.sol:RuneRouterLogic",
        "label": "__gap",
        "offset": 0,
        "slot": "1",
        "type": "t_array(t_uint256)50_storage"
      },
      {
        "astId": 152,
        "contract": "contracts/rune_router/RuneRouterLogic.sol:RuneRouterLogic",
        "label": "_owner",
        "offset": 0,
        "slot": "51",
        "type": "t_address"
      },
      {
        "astId": 272,
        "contract": "contracts/rune_router/RuneRouterLogic.sol:RuneRouterLogic",
        "label": "__gap",
        "offset": 0,
        "slot": "52",
        "type": "t_array(t_uint256)49_storage"
      },
      {
        "astId": 585,
        "contract": "contracts/rune_router/RuneRouterLogic.sol:RuneRouterLogic",
        "label": "_status",
        "offset": 0,
        "slot": "101",
        "type": "t_uint256"
      },
      {
        "astId": 654,
        "contract": "contracts/rune_router/RuneRouterLogic.sol:RuneRouterLogic",
        "label": "__gap",
        "offset": 0,
        "slot": "102",
        "type": "t_array(t_uint256)49_storage"
      },
      {
        "astId": 13374,
        "contract": "contracts/rune_router/RuneRouterLogic.sol:RuneRouterLogic",
        "label": "startingBlockNumber",
        "offset": 0,
        "slot": "151",
        "type": "t_uint256"
      },
      {
        "astId": 13377,
        "contract": "contracts/rune_router/RuneRouterLogic.sol:RuneRouterLogic",
        "label": "chainId",
        "offset": 0,
        "slot": "152",
        "type": "t_uint256"
      },
      {
        "astId": 13380,
        "contract": "contracts/rune_router/RuneRouterLogic.sol:RuneRouterLogic",
        "label": "protocolPercentageFee",
        "offset": 0,
        "slot": "153",
        "type": "t_uint256"
      },
      {
        "astId": 13382,
        "contract": "contracts/rune_router/RuneRouterLogic.sol:RuneRouterLogic",
        "label": "lockerPercentageFee",
        "offset": 0,
        "slot": "154",
        "type": "t_uint256"
      },
      {
        "astId": 13384,
        "contract": "contracts/rune_router/RuneRouterLogic.sol:RuneRouterLogic",
        "label": "runeUnwrapCounter",
        "offset": 0,
        "slot": "155",
        "type": "t_uint256"
      },
      {
        "astId": 13387,
        "contract": "contracts/rune_router/RuneRouterLogic.sol:RuneRouterLogic",
        "label": "relay",
        "offset": 0,
        "slot": "156",
        "type": "t_address"
      },
      {
        "astId": 13390,
        "contract": "contracts/rune_router/RuneRouterLogic.sol:RuneRouterLogic",
        "label": "treasury",
        "offset": 0,
        "slot": "157",
        "type": "t_address"
      },
      {
        "astId": 13393,
        "contract": "contracts/rune_router/RuneRouterLogic.sol:RuneRouterLogic",
        "label": "locker",
        "offset": 0,
        "slot": "158",
        "type": "t_address"
      },
      {
        "astId": 13397,
        "contract": "contracts/rune_router/RuneRouterLogic.sol:RuneRouterLogic",
        "label": "supportedRunes",
        "offset": 0,
        "slot": "159",
        "type": "t_mapping(t_uint256,t_address)"
      },
      {
        "astId": 13401,
        "contract": "contracts/rune_router/RuneRouterLogic.sol:RuneRouterLogic",
        "label": "runeIds",
        "offset": 0,
        "slot": "160",
        "type": "t_mapping(t_address,t_string_storage)"
      },
      {
        "astId": 13405,
        "contract": "contracts/rune_router/RuneRouterLogic.sol:RuneRouterLogic",
        "label": "internalIds",
        "offset": 0,
        "slot": "161",
        "type": "t_mapping(t_address,t_uint256)"
      },
      {
        "astId": 13410,
        "contract": "contracts/rune_router/RuneRouterLogic.sol:RuneRouterLogic",
        "label": "runeWrapRequests",
        "offset": 0,
        "slot": "162",
        "type": "t_mapping(t_bytes32,t_struct(runeWrapRequest)13472_storage)"
      },
      {
        "astId": 13415,
        "contract": "contracts/rune_router/RuneRouterLogic.sol:RuneRouterLogic",
        "label": "exchangeConnector",
        "offset": 0,
        "slot": "163",
        "type": "t_mapping(t_uint256,t_address)"
      },
      {
        "astId": 13419,
        "contract": "contracts/rune_router/RuneRouterLogic.sol:RuneRouterLogic",
        "label": "runeUnwrapRequests",
        "offset": 0,
        "slot": "164",
        "type": "t_array(t_struct(runeUnwrapRequest)13488_storage)dyn_storage"
      },
      {
        "astId": 13422,
        "contract": "contracts/rune_router/RuneRouterLogic.sol:RuneRouterLogic",
        "label": "lockerLockingScript",
        "offset": 0,
        "slot": "165",
        "type": "t_bytes_storage"
      },
      {
        "astId": 13426,
        "contract": "contracts/rune_router/RuneRouterLogic.sol:RuneRouterLogic",
        "label": "lockerScriptType",
        "offset": 0,
        "slot": "166",
        "type": "t_enum(ScriptTypes)7581"
      },
      {
        "astId": 13429,
        "contract": "contracts/rune_router/RuneRouterLogic.sol:RuneRouterLogic",
        "label": "teleporter",
        "offset": 1,
        "slot": "166",
        "type": "t_address"
      },
      {
        "astId": 13434,
        "contract": "contracts/rune_router/RuneRouterLogic.sol:RuneRouterLogic",
        "label": "thirdParties",
        "offset": 0,
        "slot": "167",
        "type": "t_mapping(t_uint256,t_struct(thirdParty)13493_storage)"
      },
      {
        "astId": 13437,
        "contract": "contracts/rune_router/RuneRouterLogic.sol:RuneRouterLogic",
        "label": "unwrapFee",
        "offset": 0,
        "slot": "168",
        "type": "t_uint256"
      },
      {
        "astId": 13439,
        "contract": "contracts/rune_router/RuneRouterLogic.sol:RuneRouterLogic",
        "label": "wrappedNativeToken",
        "offset": 0,
        "slot": "169",
        "type": "t_address"
      },
      {
        "astId": 13441,
        "contract": "contracts/rune_router/RuneRouterLogic.sol:RuneRouterLogic",
        "label": "rewardDistributor",
        "offset": 0,
        "slot": "170",
        "type": "t_address"
      },
      {
        "astId": 13445,
        "contract": "contracts/rune_router/RuneRouterLogic.sol:RuneRouterLogic",
        "label": "virtualLocker",
        "offset": 0,
        "slot": "171",
        "type": "t_mapping(t_address,t_address)"
      }
    ],
    "types": {
      "t_address": {
        "encoding": "inplace",
        "label": "address",
        "numberOfBytes": "20"
      },
      "t_array(t_struct(runeUnwrapRequest)13488_storage)dyn_storage": {
        "base": "t_struct(runeUnwrapRequest)13488_storage",
        "encoding": "dynamic_array",
        "label": "struct IRuneRouter.runeUnwrapRequest[]",
        "numberOfBytes": "32"
      },
      "t_array(t_uint256)49_storage": {
        "base": "t_uint256",
        "encoding": "inplace",
        "label": "uint256[49]",
        "numberOfBytes": "1568"
      },
      "t_array(t_uint256)50_storage": {
        "base": "t_uint256",
        "encoding": "inplace",
        "label": "uint256[50]",
        "numberOfBytes": "1600"
      },
      "t_bool": {
        "encoding": "inplace",
        "label": "bool",
        "numberOfBytes": "1"
      },
      "t_bytes32": {
        "encoding": "inplace",
        "label": "bytes32",
        "numberOfBytes": "32"
      },
      "t_bytes_storage": {
        "encoding": "bytes",
        "label": "bytes",
        "numberOfBytes": "32"
      },
      "t_enum(ScriptTypes)7581": {
        "encoding": "inplace",
        "label": "enum ScriptTypes",
        "numberOfBytes": "1"
      },
      "t_mapping(t_address,t_address)": {
        "encoding": "mapping",
        "key": "t_address",
        "label": "mapping(address => address)",
        "numberOfBytes": "32",
        "value": "t_address"
      },
      "t_mapping(t_address,t_string_storage)": {
        "encoding": "mapping",
        "key": "t_address",
        "label": "mapping(address => string)",
        "numberOfBytes": "32",
        "value": "t_string_storage"
      },
      "t_mapping(t_address,t_uint256)": {
        "encoding": "mapping",
        "key": "t_address",
        "label": "mapping(address => uint256)",
        "numberOfBytes": "32",
        "value": "t_uint256"
      },
      "t_mapping(t_bytes32,t_struct(runeWrapRequest)13472_storage)": {
        "encoding": "mapping",
        "key": "t_bytes32",
        "label": "mapping(bytes32 => struct IRuneRouter.runeWrapRequest)",
        "numberOfBytes": "32",
        "value": "t_struct(runeWrapRequest)13472_storage"
      },
      "t_mapping(t_uint256,t_address)": {
        "encoding": "mapping",
        "key": "t_uint256",
        "label": "mapping(uint256 => address)",
        "numberOfBytes": "32",
        "value": "t_address"
      },
      "t_mapping(t_uint256,t_struct(thirdParty)13493_storage)": {
        "encoding": "mapping",
        "key": "t_uint256",
        "label": "mapping(uint256 => struct IRuneRouter.thirdParty)",
        "numberOfBytes": "32",
        "value": "t_struct(thirdParty)13493_storage"
      },
      "t_string_storage": {
        "encoding": "bytes",
        "label": "string",
        "numberOfBytes": "32"
      },
      "t_struct(runeUnwrapRequest)13488_storage": {
        "encoding": "inplace",
        "label": "struct IRuneRouter.runeUnwrapRequest",
        "members": [
          {
            "astId": 13474,
            "contract": "contracts/rune_router/RuneRouterLogic.sol:RuneRouterLogic",
            "label": "isProcessed",
            "offset": 0,
            "slot": "0",
            "type": "t_bool"
          },
          {
            "astId": 13476,
            "contract": "contracts/rune_router/RuneRouterLogic.sol:RuneRouterLogic",
            "label": "amount",
            "offset": 0,
            "slot": "1",
            "type": "t_uint256"
          },
          {
            "astId": 13478,
            "contract": "contracts/rune_router/RuneRouterLogic.sol:RuneRouterLogic",
            "label": "burntAmount",
            "offset": 0,
            "slot": "2",
            "type": "t_uint256"
          },
          {
            "astId": 13480,
            "contract": "contracts/rune_router/RuneRouterLogic.sol:RuneRouterLogic",
            "label": "appId",
            "offset": 0,
            "slot": "3",
            "type": "t_uint256"
          },
          {
            "astId": 13482,
            "contract": "contracts/rune_router/RuneRouterLogic.sol:RuneRouterLogic",
            "label": "sender",
            "offset": 0,
            "slot": "4",
            "type": "t_address"
          },
          {
            "astId": 13484,
            "contract": "contracts/rune_router/RuneRouterLogic.sol:RuneRouterLogic",
            "label": "userScript",
            "offset": 0,
            "slot": "5",
            "type": "t_bytes_storage"
          },
          {
            "astId": 13487,
            "contract": "contracts/rune_router/RuneRouterLogic.sol:RuneRouterLogic",
            "label": "scriptType",
            "offset": 0,
            "slot": "6",
            "type": "t_enum(ScriptTypes)7581"
          }
        ],
        "numberOfBytes": "224"
      },
      "t_struct(runeWrapRequest)13472_storage": {
        "encoding": "inplace",
        "label": "struct IRuneRouter.runeWrapRequest",
        "members": [
          {
            "astId": 13451,
            "contract": "contracts/rune_router/RuneRouterLogic.sol:RuneRouterLogic",
            "label": "isUsed",
            "offset": 0,
            "slot": "0",
            "type": "t_bool"
          },
          {
            "astId": 13453,
            "contract": "contracts/rune_router/RuneRouterLogic.sol:RuneRouterLogic",
            "label": "chainId",
            "offset": 0,
            "slot": "1",
            "type": "t_uint256"
          },
          {
            "astId": 13455,
            "contract": "contracts/rune_router/RuneRouterLogic.sol:RuneRouterLogic",
            "label": "appId",
            "offset": 0,
            "slot": "2",
            "type": "t_uint256"
          },
          {
            "astId": 13457,
            "contract": "contracts/rune_router/RuneRouterLogic.sol:RuneRouterLogic",
            "label": "tokenId",
            "offset": 0,
            "slot": "3",
            "type": "t_uint256"
          },
          {
            "astId": 13459,
            "contract": "contracts/rune_router/RuneRouterLogic.sol:RuneRouterLogic",
            "label": "inputAmount",
            "offset": 0,
            "slot": "4",
            "type": "t_uint256"
          },
          {
            "astId": 13461,
            "contract": "contracts/rune_router/RuneRouterLogic.sol:RuneRouterLogic",
            "label": "inputToken",
            "offset": 0,
            "slot": "5",
            "type": "t_address"
          },
          {
            "astId": 13463,
            "contract": "contracts/rune_router/RuneRouterLogic.sol:RuneRouterLogic",
            "label": "recipientAddress",
            "offset": 0,
            "slot": "6",
            "type": "t_address"
          },
          {
            "astId": 13465,
            "contract": "contracts/rune_router/RuneRouterLogic.sol:RuneRouterLogic",
            "label": "thirdPartyId",
            "offset": 0,
            "slot": "7",
            "type": "t_uint256"
          },
          {
            "astId": 13467,
            "contract": "contracts/rune_router/RuneRouterLogic.sol:RuneRouterLogic",
            "label": "fee",
            "offset": 0,
            "slot": "8",
            "type": "t_uint256"
          },
          {
            "astId": 13469,
            "contract": "contracts/rune_router/RuneRouterLogic.sol:RuneRouterLogic",
            "label": "outputAmount",
            "offset": 0,
            "slot": "9",
            "type": "t_uint256"
          },
          {
            "astId": 13471,
            "contract": "contracts/rune_router/RuneRouterLogic.sol:RuneRouterLogic",
            "label": "outputToken",
            "offset": 0,
            "slot": "10",
            "type": "t_address"
          }
        ],
        "numberOfBytes": "352"
      },
      "t_struct(thirdParty)13493_storage": {
        "encoding": "inplace",
        "label": "struct IRuneRouter.thirdParty",
        "members": [
          {
            "astId": 13490,
            "contract": "contracts/rune_router/RuneRouterLogic.sol:RuneRouterLogic",
            "label": "thirdPartyAddress",
            "offset": 0,
            "slot": "0",
            "type": "t_address"
          },
          {
            "astId": 13492,
            "contract": "contracts/rune_router/RuneRouterLogic.sol:RuneRouterLogic",
            "label": "thirdPartyFee",
            "offset": 0,
            "slot": "1",
            "type": "t_uint256"
          }
        ],
        "numberOfBytes": "64"
      },
      "t_uint256": {
        "encoding": "inplace",
        "label": "uint256",
        "numberOfBytes": "32"
      },
      "t_uint8": {
        "encoding": "inplace",
        "label": "uint8",
        "numberOfBytes": "1"
      }
    }
  }
}