{
  "address": "0x149d4E6dA362c453BC20F64Eb9Ca40BE031ac6f7",
  "abi": [
    {
      "anonymous": false,
      "inputs": [
        {
          "indexed": false,
          "internalType": "address",
          "name": "user",
          "type": "address"
        },
        {
          "indexed": false,
          "internalType": "uint256",
          "name": "remainingAmount",
          "type": "uint256"
        },
        {
          "indexed": false,
          "internalType": "address",
          "name": "inputToken",
          "type": "address"
        },
        {
          "indexed": false,
          "internalType": "uint256",
          "name": "outputAmount",
          "type": "uint256"
        },
        {
          "indexed": false,
          "internalType": "address",
          "name": "outputToken",
          "type": "address"
        },
        {
          "components": [
            {
              "internalType": "uint256",
              "name": "protocolFee",
              "type": "uint256"
            },
            {
              "internalType": "uint256",
              "name": "lockerFee",
              "type": "uint256"
            },
            {
              "internalType": "uint256",
              "name": "thirdPartyFee",
              "type": "uint256"
            }
          ],
          "indexed": false,
          "internalType": "struct IRuneRouter.fees",
          "name": "fee",
          "type": "tuple"
        },
        {
          "indexed": false,
          "internalType": "address",
          "name": "thirdPartyAddress",
          "type": "address"
        },
        {
          "indexed": false,
          "internalType": "bytes32",
          "name": "txId",
          "type": "bytes32"
        },
        {
          "indexed": false,
          "internalType": "bool",
          "name": "speed",
          "type": "bool"
        },
        {
          "indexed": false,
          "internalType": "uint256",
          "name": "chainId",
          "type": "uint256"
        }
      ],
      "name": "FailedRuneWrapAndSwap",
      "type": "event"
    },
    {
      "anonymous": false,
      "inputs": [
        {
          "indexed": false,
          "internalType": "uint8",
          "name": "version",
          "type": "uint8"
        }
      ],
      "name": "Initialized",
      "type": "event"
    },
    {
      "anonymous": false,
      "inputs": [
        {
          "indexed": false,
          "internalType": "address",
          "name": "oldLocker",
          "type": "address"
        },
        {
          "indexed": false,
          "internalType": "address",
          "name": "newLocker",
          "type": "address"
        }
      ],
      "name": "NewLocker",
      "type": "event"
    },
    {
      "anonymous": false,
      "inputs": [
        {
          "indexed": false,
          "internalType": "uint256",
          "name": "oldLockerPercentageFee",
          "type": "uint256"
        },
        {
          "indexed": false,
          "internalType": "uint256",
          "name": "newLockerPercentageFee",
          "type": "uint256"
        }
      ],
      "name": "NewLockerPercentageFee",
      "type": "event"
    },
    {
      "anonymous": false,
      "inputs": [
        {
          "indexed": false,
          "internalType": "uint256",
          "name": "oldProtocolPercentageFee",
          "type": "uint256"
        },
        {
          "indexed": false,
          "internalType": "uint256",
          "name": "newProtocolPercentageFee",
          "type": "uint256"
        }
      ],
      "name": "NewProtocolPercentageFee",
      "type": "event"
    },
    {
      "anonymous": false,
      "inputs": [
        {
          "indexed": false,
          "internalType": "string",
          "name": "name",
          "type": "string"
        },
        {
          "indexed": false,
          "internalType": "string",
          "name": "symbol",
          "type": "string"
        },
        {
          "indexed": false,
          "internalType": "string",
          "name": "runeId",
          "type": "string"
        },
        {
          "indexed": false,
          "internalType": "uint256",
          "name": "decimal",
          "type": "uint256"
        },
        {
          "indexed": false,
          "internalType": "uint256",
          "name": "internalId",
          "type": "uint256"
        },
        {
          "indexed": false,
          "internalType": "address",
          "name": "wRuneProxy",
          "type": "address"
        },
        {
          "indexed": false,
          "internalType": "address",
          "name": "wRuneLogic",
          "type": "address"
        }
      ],
      "name": "NewRune",
      "type": "event"
    },
    {
      "anonymous": false,
      "inputs": [
        {
          "indexed": false,
          "internalType": "address",
          "name": "user",
          "type": "address"
        },
        {
          "indexed": false,
          "internalType": "bytes",
          "name": "userScript",
          "type": "bytes"
        },
        {
          "indexed": false,
          "internalType": "enum ScriptTypes",
          "name": "scriptType",
          "type": "uint8"
        },
        {
          "indexed": false,
          "internalType": "uint256",
          "name": "inputAmount",
          "type": "uint256"
        },
        {
          "indexed": false,
          "internalType": "address",
          "name": "inputToken",
          "type": "address"
        },
        {
          "indexed": false,
          "internalType": "uint256",
          "name": "outputAmount",
          "type": "uint256"
        },
        {
          "indexed": false,
          "internalType": "uint256",
          "name": "remainingAmount",
          "type": "uint256"
        },
        {
          "indexed": false,
          "internalType": "address",
          "name": "outputToken",
          "type": "address"
        },
        {
          "components": [
            {
              "internalType": "uint256",
              "name": "protocolFee",
              "type": "uint256"
            },
            {
              "internalType": "uint256",
              "name": "lockerFee",
              "type": "uint256"
            },
            {
              "internalType": "uint256",
              "name": "thirdPartyFee",
              "type": "uint256"
            }
          ],
          "indexed": false,
          "internalType": "struct IRuneRouter.fees",
          "name": "fee",
          "type": "tuple"
        },
        {
          "indexed": false,
          "internalType": "uint256",
          "name": "unwrapFee",
          "type": "uint256"
        },
        {
          "indexed": false,
          "internalType": "address",
          "name": "thirdPartyAddress",
          "type": "address"
        },
        {
          "indexed": false,
          "internalType": "uint256",
          "name": "reqIdx",
          "type": "uint256"
        }
      ],
      "name": "NewRuneSwapAndUnwrap",
      "type": "event"
    },
    {
      "anonymous": false,
      "inputs": [
        {
          "indexed": false,
          "internalType": "address",
          "name": "user",
          "type": "address"
        },
        {
          "indexed": false,
          "internalType": "bytes",
          "name": "userScript",
          "type": "bytes"
        },
        {
          "indexed": false,
          "internalType": "enum ScriptTypes",
          "name": "scriptType",
          "type": "uint8"
        },
        {
          "indexed": false,
          "internalType": "address",
          "name": "inputToken",
          "type": "address"
        },
        {
          "indexed": false,
          "internalType": "uint256",
          "name": "inputAmount",
          "type": "uint256"
        },
        {
          "indexed": false,
          "internalType": "uint256",
          "name": "remainingAmount",
          "type": "uint256"
        },
        {
          "components": [
            {
              "internalType": "uint256",
              "name": "protocolFee",
              "type": "uint256"
            },
            {
              "internalType": "uint256",
              "name": "lockerFee",
              "type": "uint256"
            },
            {
              "internalType": "uint256",
              "name": "thirdPartyFee",
              "type": "uint256"
            }
          ],
          "indexed": false,
          "internalType": "struct IRuneRouter.fees",
          "name": "fee",
          "type": "tuple"
        },
        {
          "indexed": false,
          "internalType": "uint256",
          "name": "unwrapFee",
          "type": "uint256"
        },
        {
          "indexed": false,
          "internalType": "address",
          "name": "thirdPartyAddress",
          "type": "address"
        },
        {
          "indexed": false,
          "internalType": "uint256",
          "name": "reqIdx",
          "type": "uint256"
        }
      ],
      "name": "NewRuneUnwrap",
      "type": "event"
    },
    {
      "anonymous": false,
      "inputs": [
        {
          "indexed": false,
          "internalType": "address",
          "name": "user",
          "type": "address"
        },
        {
          "indexed": false,
          "internalType": "uint256",
          "name": "remainingAmount",
          "type": "uint256"
        },
        {
          "indexed": false,
          "internalType": "address",
          "name": "inputToken",
          "type": "address"
        },
        {
          "components": [
            {
              "internalType": "uint256",
              "name": "protocolFee",
              "type": "uint256"
            },
            {
              "internalType": "uint256",
              "name": "lockerFee",
              "type": "uint256"
            },
            {
              "internalType": "uint256",
              "name": "thirdPartyFee",
              "type": "uint256"
            }
          ],
          "indexed": false,
          "internalType": "struct IRuneRouter.fees",
          "name": "fee",
          "type": "tuple"
        },
        {
          "indexed": false,
          "internalType": "address",
          "name": "thirdPartyAddress",
          "type": "address"
        },
        {
          "indexed": false,
          "internalType": "bytes32",
          "name": "txId",
          "type": "bytes32"
        }
      ],
      "name": "NewRuneWrap",
      "type": "event"
    },
    {
      "anonymous": false,
      "inputs": [
        {
          "indexed": false,
          "internalType": "address",
          "name": "user",
          "type": "address"
        },
        {
          "indexed": false,
          "internalType": "uint256",
          "name": "remainingAmount",
          "type": "uint256"
        },
        {
          "indexed": false,
          "internalType": "address",
          "name": "inputToken",
          "type": "address"
        },
        {
          "indexed": false,
          "internalType": "uint256",
          "name": "outputAmount",
          "type": "uint256"
        },
        {
          "indexed": false,
          "internalType": "address",
          "name": "outputToken",
          "type": "address"
        },
        {
          "components": [
            {
              "internalType": "uint256",
              "name": "protocolFee",
              "type": "uint256"
            },
            {
              "internalType": "uint256",
              "name": "lockerFee",
              "type": "uint256"
            },
            {
              "internalType": "uint256",
              "name": "thirdPartyFee",
              "type": "uint256"
            }
          ],
          "indexed": false,
          "internalType": "struct IRuneRouter.fees",
          "name": "fee",
          "type": "tuple"
        },
        {
          "indexed": false,
          "internalType": "address",
          "name": "thirdPartyAddress",
          "type": "address"
        },
        {
          "indexed": false,
          "internalType": "bytes32",
          "name": "txId",
          "type": "bytes32"
        }
      ],
      "name": "NewRuneWrapAndSwap",
      "type": "event"
    },
    {
      "anonymous": false,
      "inputs": [
        {
          "indexed": false,
          "internalType": "address",
          "name": "user",
          "type": "address"
        },
        {
          "indexed": false,
          "internalType": "uint256",
          "name": "remainingAmount",
          "type": "uint256"
        },
        {
          "indexed": false,
          "internalType": "address",
          "name": "inputToken",
          "type": "address"
        },
        {
          "indexed": false,
          "internalType": "uint256",
          "name": "outputAmount",
          "type": "uint256"
        },
        {
          "indexed": false,
          "internalType": "address",
          "name": "outputToken",
          "type": "address"
        },
        {
          "components": [
            {
              "internalType": "uint256",
              "name": "protocolFee",
              "type": "uint256"
            },
            {
              "internalType": "uint256",
              "name": "lockerFee",
              "type": "uint256"
            },
            {
              "internalType": "uint256",
              "name": "thirdPartyFee",
              "type": "uint256"
            }
          ],
          "indexed": false,
          "internalType": "struct IRuneRouter.fees",
          "name": "fee",
          "type": "tuple"
        },
        {
          "indexed": false,
          "internalType": "address",
          "name": "thirdPartyAddress",
          "type": "address"
        },
        {
          "indexed": false,
          "internalType": "bytes32",
          "name": "txId",
          "type": "bytes32"
        },
        {
          "indexed": false,
          "internalType": "bool",
          "name": "speed",
          "type": "bool"
        },
        {
          "indexed": false,
          "internalType": "uint256",
          "name": "chainId",
          "type": "uint256"
        },
        {
          "indexed": false,
          "internalType": "uint256",
          "name": "bridgeFee",
          "type": "uint256"
        }
      ],
      "name": "NewRuneWrapAndSwapV2",
      "type": "event"
    },
    {
      "anonymous": false,
      "inputs": [
        {
          "indexed": false,
          "internalType": "address",
          "name": "oldTeleporter",
          "type": "address"
        },
        {
          "indexed": false,
          "internalType": "address",
          "name": "newTeleporter",
          "type": "address"
        }
      ],
      "name": "NewTeleporter",
      "type": "event"
    },
    {
      "anonymous": false,
      "inputs": [
        {
          "indexed": true,
          "internalType": "address",
          "name": "previousOwner",
          "type": "address"
        },
        {
          "indexed": true,
          "internalType": "address",
          "name": "newOwner",
          "type": "address"
        }
      ],
      "name": "OwnershipTransferred",
      "type": "event"
    },
    {
      "anonymous": false,
      "inputs": [
        {
          "indexed": false,
          "internalType": "uint256",
          "name": "outputAmount",
          "type": "uint256"
        },
        {
          "indexed": false,
          "internalType": "uint256",
          "name": "bridgeFee",
          "type": "uint256"
        },
        {
          "indexed": false,
          "internalType": "bytes32",
          "name": "txId",
          "type": "bytes32"
        }
      ],
      "name": "RetriedFailedWrapAndSwap",
      "type": "event"
    },
    {
      "anonymous": false,
      "inputs": [
        {
          "indexed": false,
          "internalType": "uint256",
          "name": "tokenId",
          "type": "uint256"
        },
        {
          "indexed": false,
          "internalType": "address",
          "name": "wRuneProxy",
          "type": "address"
        }
      ],
      "name": "RuneRemoved",
      "type": "event"
    },
    {
      "anonymous": false,
      "inputs": [
        {
          "indexed": false,
          "internalType": "uint256",
          "name": "thirdPartyId",
          "type": "uint256"
        },
        {
          "indexed": false,
          "internalType": "address",
          "name": "oldAddress",
          "type": "address"
        },
        {
          "indexed": false,
          "internalType": "uint256",
          "name": "oldFee",
          "type": "uint256"
        },
        {
          "indexed": false,
          "internalType": "address",
          "name": "newAddress",
          "type": "address"
        },
        {
          "indexed": false,
          "internalType": "uint256",
          "name": "newFee",
          "type": "uint256"
        }
      ],
      "name": "ThirdPartyInfoUpdated",
      "type": "event"
    },
    {
      "anonymous": false,
      "inputs": [
        {
          "indexed": false,
          "internalType": "address",
          "name": "user",
          "type": "address"
        },
        {
          "indexed": false,
          "internalType": "uint256",
          "name": "remainingAmount",
          "type": "uint256"
        },
        {
          "indexed": false,
          "internalType": "bytes",
          "name": "userScript",
          "type": "bytes"
        },
        {
          "indexed": false,
          "internalType": "enum ScriptTypes",
          "name": "scriptType",
          "type": "uint8"
        },
        {
          "indexed": false,
          "internalType": "uint256",
          "name": "reqIdx",
          "type": "uint256"
        },
        {
          "indexed": false,
          "internalType": "bytes32",
          "name": "txId",
          "type": "bytes32"
        }
      ],
      "name": "UnwrapRuneProcessed",
      "type": "event"
    },
    {
      "anonymous": false,
      "inputs": [
        {
          "indexed": false,
          "internalType": "uint256",
          "name": "outputAmount",
          "type": "uint256"
        },
        {
          "indexed": false,
          "internalType": "bytes",
          "name": "userScript",
          "type": "bytes"
        },
        {
          "indexed": false,
          "internalType": "enum ScriptTypes",
          "name": "scriptType",
          "type": "uint8"
        },
        {
          "indexed": false,
          "internalType": "bytes32",
          "name": "txId",
          "type": "bytes32"
        }
      ],
      "name": "WithdrawnFailedWrapAndSwap",
      "type": "event"
    },
    {
      "inputs": [],
      "name": "across",
      "outputs": [
        {
          "internalType": "address",
          "name": "",
          "type": "address"
        }
      ],
      "stateMutability": "view",
      "type": "function"
    },
    {
      "inputs": [
        {
          "internalType": "string",
          "name": "_name",
          "type": "string"
        },
        {
          "internalType": "string",
          "name": "_symbol",
          "type": "string"
        },
        {
          "internalType": "string",
          "name": "_runeId",
          "type": "string"
        },
        {
          "internalType": "uint8",
          "name": "_decimal",
          "type": "uint8"
        },
        {
          "internalType": "uint256",
          "name": "_internalId",
          "type": "uint256"
        }
      ],
      "name": "addRune",
      "outputs": [],
      "stateMutability": "nonpayable",
      "type": "function"
    },
    {
      "inputs": [],
      "name": "chainId",
      "outputs": [
        {
          "internalType": "uint256",
          "name": "",
          "type": "uint256"
        }
      ],
      "stateMutability": "view",
      "type": "function"
    },
    {
      "inputs": [
        {
          "internalType": "uint256",
          "name": "",
          "type": "uint256"
        }
      ],
      "name": "exchangeConnector",
      "outputs": [
        {
          "internalType": "address",
          "name": "",
          "type": "address"
        }
      ],
      "stateMutability": "view",
      "type": "function"
    },
    {
      "inputs": [
        {
          "internalType": "uint256",
          "name": "_startingBlockNumber",
          "type": "uint256"
        },
        {
          "internalType": "uint256",
          "name": "_protocolPercentageFee",
          "type": "uint256"
        },
        {
          "internalType": "uint256",
          "name": "_lockerPercentageFee",
          "type": "uint256"
        },
        {
          "internalType": "uint256",
          "name": "_chainId",
          "type": "uint256"
        },
        {
          "internalType": "address",
          "name": "_relay",
          "type": "address"
        },
        {
          "internalType": "address",
          "name": "_locker",
          "type": "address"
        },
        {
          "internalType": "bytes",
          "name": "_lockerLockingScript",
          "type": "bytes"
        },
        {
          "internalType": "enum ScriptTypes",
          "name": "_lockerScriptType",
          "type": "uint8"
        },
        {
          "internalType": "address",
          "name": "_teleporter",
          "type": "address"
        },
        {
          "internalType": "address",
          "name": "_treasury",
          "type": "address"
        },
        {
          "internalType": "address",
          "name": "_wrappedNativeToken",
          "type": "address"
        }
      ],
      "name": "initialize",
      "outputs": [],
      "stateMutability": "nonpayable",
      "type": "function"
    },
    {
      "inputs": [
        {
          "internalType": "address",
          "name": "",
          "type": "address"
        }
      ],
      "name": "internalIds",
      "outputs": [
        {
          "internalType": "uint256",
          "name": "",
          "type": "uint256"
        }
      ],
      "stateMutability": "view",
      "type": "function"
    },
    {
      "inputs": [
        {
          "internalType": "uint256",
          "name": "_reqIdx",
          "type": "uint256"
        }
      ],
      "name": "isUnwrapRequestProcessed",
      "outputs": [
        {
          "internalType": "bool",
          "name": "",
          "type": "bool"
        }
      ],
      "stateMutability": "view",
      "type": "function"
    },
    {
      "inputs": [
        {
          "internalType": "bytes32",
          "name": "_txId",
          "type": "bytes32"
        }
      ],
      "name": "isWrapRequestProcessed",
      "outputs": [
        {
          "internalType": "bool",
          "name": "",
          "type": "bool"
        }
      ],
      "stateMutability": "view",
      "type": "function"
    },
    {
      "inputs": [],
      "name": "locker",
      "outputs": [
        {
          "internalType": "address",
          "name": "",
          "type": "address"
        }
      ],
      "stateMutability": "view",
      "type": "function"
    },
    {
      "inputs": [],
      "name": "lockerLockingScript",
      "outputs": [
        {
          "internalType": "bytes",
          "name": "",
          "type": "bytes"
        }
      ],
      "stateMutability": "view",
      "type": "function"
    },
    {
      "inputs": [],
      "name": "lockerPercentageFee",
      "outputs": [
        {
          "internalType": "uint256",
          "name": "",
          "type": "uint256"
        }
      ],
      "stateMutability": "view",
      "type": "function"
    },
    {
      "inputs": [],
      "name": "lockerScriptType",
      "outputs": [
        {
          "internalType": "enum ScriptTypes",
          "name": "",
          "type": "uint8"
        }
      ],
      "stateMutability": "view",
      "type": "function"
    },
    {
      "inputs": [],
      "name": "owner",
      "outputs": [
        {
          "internalType": "address",
          "name": "",
          "type": "address"
        }
      ],
      "stateMutability": "view",
      "type": "function"
    },
    {
      "inputs": [],
      "name": "protocolPercentageFee",
      "outputs": [
        {
          "internalType": "uint256",
          "name": "",
          "type": "uint256"
        }
      ],
      "stateMutability": "view",
      "type": "function"
    },
    {
      "inputs": [],
      "name": "relay",
      "outputs": [
        {
          "internalType": "address",
          "name": "",
          "type": "address"
        }
      ],
      "stateMutability": "view",
      "type": "function"
    },
    {
      "inputs": [
        {
          "internalType": "uint256",
          "name": "_internalId",
          "type": "uint256"
        }
      ],
      "name": "removeRune",
      "outputs": [],
      "stateMutability": "nonpayable",
      "type": "function"
    },
    {
      "inputs": [],
      "name": "renounceOwnership",
      "outputs": [],
      "stateMutability": "nonpayable",
      "type": "function"
    },
    {
      "inputs": [
        {
          "internalType": "bytes",
          "name": "_message",
          "type": "bytes"
        },
        {
          "internalType": "bytes32",
          "name": "_r",
          "type": "bytes32"
        },
        {
          "internalType": "bytes32",
          "name": "_s",
          "type": "bytes32"
        },
        {
          "internalType": "uint8",
          "name": "_v",
          "type": "uint8"
        }
      ],
      "name": "retryFailedWrapAndSwap",
      "outputs": [],
      "stateMutability": "nonpayable",
      "type": "function"
    },
    {
      "inputs": [],
      "name": "rewardDistributor",
      "outputs": [
        {
          "internalType": "address",
          "name": "",
          "type": "address"
        }
      ],
      "stateMutability": "view",
      "type": "function"
    },
    {
      "inputs": [
        {
          "internalType": "address",
          "name": "",
          "type": "address"
        }
      ],
      "name": "runeIds",
      "outputs": [
        {
          "internalType": "string",
          "name": "",
          "type": "string"
        }
      ],
      "stateMutability": "view",
      "type": "function"
    },
    {
      "inputs": [],
      "name": "runeUnwrapCounter",
      "outputs": [
        {
          "internalType": "uint256",
          "name": "",
          "type": "uint256"
        }
      ],
      "stateMutability": "view",
      "type": "function"
    },
    {
      "inputs": [
        {
          "internalType": "uint256",
          "name": "",
          "type": "uint256"
        }
      ],
      "name": "runeUnwrapRequests",
      "outputs": [
        {
          "internalType": "bool",
          "name": "isProcessed",
          "type": "bool"
        },
        {
          "internalType": "uint256",
          "name": "amount",
          "type": "uint256"
        },
        {
          "internalType": "uint256",
          "name": "burntAmount",
          "type": "uint256"
        },
        {
          "internalType": "uint256",
          "name": "appId",
          "type": "uint256"
        },
        {
          "internalType": "address",
          "name": "sender",
          "type": "address"
        },
        {
          "internalType": "bytes",
          "name": "userScript",
          "type": "bytes"
        },
        {
          "internalType": "enum ScriptTypes",
          "name": "scriptType",
          "type": "uint8"
        }
      ],
      "stateMutability": "view",
      "type": "function"
    },
    {
      "inputs": [
        {
          "internalType": "bytes32",
          "name": "",
          "type": "bytes32"
        }
      ],
      "name": "runeWrapRequests",
      "outputs": [
        {
          "internalType": "bool",
          "name": "isUsed",
          "type": "bool"
        },
        {
          "internalType": "uint256",
          "name": "chainId",
          "type": "uint256"
        },
        {
          "internalType": "uint256",
          "name": "appId",
          "type": "uint256"
        },
        {
          "internalType": "uint256",
          "name": "tokenId",
          "type": "uint256"
        },
        {
          "internalType": "uint256",
          "name": "inputAmount",
          "type": "uint256"
        },
        {
          "internalType": "address",
          "name": "inputToken",
          "type": "address"
        },
        {
          "internalType": "address",
          "name": "recipientAddress",
          "type": "address"
        },
        {
          "internalType": "uint256",
          "name": "thirdPartyId",
          "type": "uint256"
        },
        {
          "internalType": "uint256",
          "name": "fee",
          "type": "uint256"
        },
        {
          "internalType": "uint256",
          "name": "outputAmount",
          "type": "uint256"
        },
        {
          "internalType": "address",
          "name": "outputToken",
          "type": "address"
        },
        {
          "internalType": "uint256",
          "name": "bridgeFee",
          "type": "uint256"
        },
        {
          "internalType": "bool",
          "name": "speed",
          "type": "bool"
        },
        {
          "internalType": "bool",
          "name": "isTransferredToOtherChain",
          "type": "bool"
        }
      ],
      "stateMutability": "view",
      "type": "function"
    },
    {
      "inputs": [
        {
          "internalType": "address",
          "name": "_across",
          "type": "address"
        }
      ],
      "name": "setAcross",
      "outputs": [],
      "stateMutability": "nonpayable",
      "type": "function"
    },
    {
      "inputs": [
        {
          "internalType": "uint256",
          "name": "_chainId",
          "type": "uint256"
        }
      ],
      "name": "setChainId",
      "outputs": [],
      "stateMutability": "nonpayable",
      "type": "function"
    },
    {
      "inputs": [
        {
          "internalType": "uint256",
          "name": "_appId",
          "type": "uint256"
        },
        {
          "internalType": "address",
          "name": "_exchangeConnector",
          "type": "address"
        }
      ],
      "name": "setExchangeConnector",
      "outputs": [],
      "stateMutability": "nonpayable",
      "type": "function"
    },
    {
      "inputs": [
        {
          "internalType": "address",
          "name": "_locker",
          "type": "address"
        }
      ],
      "name": "setLocker",
      "outputs": [],
      "stateMutability": "nonpayable",
      "type": "function"
    },
    {
      "inputs": [
        {
          "internalType": "bytes",
          "name": "_lockerLockingScript",
          "type": "bytes"
        },
        {
          "internalType": "enum ScriptTypes",
          "name": "_lockerScriptType",
          "type": "uint8"
        }
      ],
      "name": "setLockerLockingScript",
      "outputs": [],
      "stateMutability": "nonpayable",
      "type": "function"
    },
    {
      "inputs": [
        {
          "internalType": "uint256",
          "name": "_lockerPercentageFee",
          "type": "uint256"
        }
      ],
      "name": "setLockerPercentageFee",
      "outputs": [],
      "stateMutability": "nonpayable",
      "type": "function"
    },
    {
      "inputs": [
        {
          "internalType": "uint256",
          "name": "_protocolPercentageFee",
          "type": "uint256"
        }
      ],
      "name": "setProtocolPercentageFee",
      "outputs": [],
      "stateMutability": "nonpayable",
      "type": "function"
    },
    {
      "inputs": [
        {
          "internalType": "address",
          "name": "_relay",
          "type": "address"
        }
      ],
      "name": "setRelay",
      "outputs": [],
      "stateMutability": "nonpayable",
      "type": "function"
    },
    {
      "inputs": [
        {
          "internalType": "address",
          "name": "_rewardDistributor",
          "type": "address"
        }
      ],
      "name": "setRewardDistributor",
      "outputs": [],
      "stateMutability": "nonpayable",
      "type": "function"
    },
    {
      "inputs": [
        {
          "internalType": "uint256",
          "name": "_startingBlockNumber",
          "type": "uint256"
        }
      ],
      "name": "setStartingBlockNumber",
      "outputs": [],
      "stateMutability": "nonpayable",
      "type": "function"
    },
    {
      "inputs": [
        {
          "internalType": "address",
          "name": "_teleporter",
          "type": "address"
        }
      ],
      "name": "setTeleporter",
      "outputs": [],
      "stateMutability": "nonpayable",
      "type": "function"
    },
    {
      "inputs": [
        {
          "internalType": "uint256",
          "name": "_thirdPartyId",
          "type": "uint256"
        },
        {
          "internalType": "address",
          "name": "_thirdPartyAddress",
          "type": "address"
        },
        {
          "internalType": "uint256",
          "name": "_thirdPartyFee",
          "type": "uint256"
        }
      ],
      "name": "setThirdParty",
      "outputs": [],
      "stateMutability": "nonpayable",
      "type": "function"
    },
    {
      "inputs": [
        {
          "internalType": "address",
          "name": "_treasury",
          "type": "address"
        }
      ],
      "name": "setTreasury",
      "outputs": [],
      "stateMutability": "nonpayable",
      "type": "function"
    },
    {
      "inputs": [
        {
          "internalType": "address",
          "name": "_wrappedRune",
          "type": "address"
        },
        {
          "internalType": "address",
          "name": "_virtualLocker",
          "type": "address"
        }
      ],
      "name": "setVirtualLocker",
      "outputs": [],
      "stateMutability": "nonpayable",
      "type": "function"
    },
    {
      "inputs": [
        {
          "internalType": "address",
          "name": "_wrappedNativeToken",
          "type": "address"
        }
      ],
      "name": "setWrappedNativeToken",
      "outputs": [],
      "stateMutability": "nonpayable",
      "type": "function"
    },
    {
      "inputs": [],
      "name": "startingBlockNumber",
      "outputs": [
        {
          "internalType": "uint256",
          "name": "",
          "type": "uint256"
        }
      ],
      "stateMutability": "view",
      "type": "function"
    },
    {
      "inputs": [
        {
          "internalType": "uint256",
          "name": "",
          "type": "uint256"
        }
      ],
      "name": "supportedRunes",
      "outputs": [
        {
          "internalType": "address",
          "name": "",
          "type": "address"
        }
      ],
      "stateMutability": "view",
      "type": "function"
    },
    {
      "inputs": [],
      "name": "teleporter",
      "outputs": [
        {
          "internalType": "address",
          "name": "",
          "type": "address"
        }
      ],
      "stateMutability": "view",
      "type": "function"
    },
    {
      "inputs": [
        {
          "internalType": "uint256",
          "name": "",
          "type": "uint256"
        }
      ],
      "name": "thirdParties",
      "outputs": [
        {
          "internalType": "address",
          "name": "thirdPartyAddress",
          "type": "address"
        },
        {
          "internalType": "uint256",
          "name": "thirdPartyFee",
          "type": "uint256"
        }
      ],
      "stateMutability": "view",
      "type": "function"
    },
    {
      "inputs": [],
      "name": "totalRuneUnwrapRequests",
      "outputs": [
        {
          "internalType": "uint256",
          "name": "",
          "type": "uint256"
        }
      ],
      "stateMutability": "view",
      "type": "function"
    },
    {
      "inputs": [
        {
          "internalType": "address",
          "name": "newOwner",
          "type": "address"
        }
      ],
      "name": "transferOwnership",
      "outputs": [],
      "stateMutability": "nonpayable",
      "type": "function"
    },
    {
      "inputs": [],
      "name": "treasury",
      "outputs": [
        {
          "internalType": "address",
          "name": "",
          "type": "address"
        }
      ],
      "stateMutability": "view",
      "type": "function"
    },
    {
      "inputs": [],
      "name": "unwrapFee",
      "outputs": [
        {
          "internalType": "uint256",
          "name": "",
          "type": "uint256"
        }
      ],
      "stateMutability": "view",
      "type": "function"
    },
    {
      "inputs": [
        {
          "internalType": "bytes4",
          "name": "_version",
          "type": "bytes4"
        },
        {
          "internalType": "bytes",
          "name": "_vin",
          "type": "bytes"
        },
        {
          "internalType": "bytes",
          "name": "_vout",
          "type": "bytes"
        },
        {
          "internalType": "bytes4",
          "name": "_locktime",
          "type": "bytes4"
        },
        {
          "internalType": "uint256",
          "name": "_blockNumber",
          "type": "uint256"
        },
        {
          "internalType": "bytes",
          "name": "_intermediateNodes",
          "type": "bytes"
        },
        {
          "internalType": "uint256",
          "name": "_index",
          "type": "uint256"
        },
        {
          "internalType": "uint256[]",
          "name": "_reqIndexes",
          "type": "uint256[]"
        }
      ],
      "name": "unwrapProofRune",
      "outputs": [],
      "stateMutability": "payable",
      "type": "function"
    },
    {
      "inputs": [
        {
          "internalType": "uint256",
          "name": "_thirdPartyId",
          "type": "uint256"
        },
        {
          "internalType": "uint256",
          "name": "_internalId",
          "type": "uint256"
        },
        {
          "internalType": "uint256",
          "name": "_amount",
          "type": "uint256"
        },
        {
          "internalType": "bytes",
          "name": "_userScript",
          "type": "bytes"
        },
        {
          "internalType": "enum ScriptTypes",
          "name": "_scriptType",
          "type": "uint8"
        },
        {
          "internalType": "uint256",
          "name": "_appId",
          "type": "uint256"
        },
        {
          "internalType": "uint256",
          "name": "_inputAmount",
          "type": "uint256"
        },
        {
          "internalType": "address[]",
          "name": "_path",
          "type": "address[]"
        }
      ],
      "name": "unwrapRune",
      "outputs": [
        {
          "internalType": "uint256",
          "name": "_remainingAmount",
          "type": "uint256"
        }
      ],
      "stateMutability": "payable",
      "type": "function"
    },
    {
      "inputs": [
        {
          "internalType": "address",
          "name": "",
          "type": "address"
        }
      ],
      "name": "virtualLocker",
      "outputs": [
        {
          "internalType": "address",
          "name": "",
          "type": "address"
        }
      ],
      "stateMutability": "view",
      "type": "function"
    },
    {
      "inputs": [
        {
          "internalType": "bytes",
          "name": "_message",
          "type": "bytes"
        },
        {
          "internalType": "bytes32",
          "name": "_r",
          "type": "bytes32"
        },
        {
          "internalType": "bytes32",
          "name": "_s",
          "type": "bytes32"
        },
        {
          "internalType": "uint8",
          "name": "_v",
          "type": "uint8"
        }
      ],
      "name": "withdrawFailedWrapAndSwap",
      "outputs": [],
      "stateMutability": "nonpayable",
      "type": "function"
    },
    {
      "inputs": [
        {
          "internalType": "bytes4",
          "name": "_version",
          "type": "bytes4"
        },
        {
          "internalType": "bytes",
          "name": "_vin",
          "type": "bytes"
        },
        {
          "internalType": "bytes",
          "name": "_vout",
          "type": "bytes"
        },
        {
          "internalType": "bytes4",
          "name": "_locktime",
          "type": "bytes4"
        },
        {
          "internalType": "uint256",
          "name": "_blockNumber",
          "type": "uint256"
        },
        {
          "internalType": "bytes",
          "name": "_intermediateNodes",
          "type": "bytes"
        },
        {
          "internalType": "uint256",
          "name": "_index",
          "type": "uint256"
        },
        {
          "internalType": "address[]",
          "name": "_path",
          "type": "address[]"
        }
      ],
      "name": "wrapRune",
      "outputs": [],
      "stateMutability": "payable",
      "type": "function"
    },
    {
      "inputs": [],
      "name": "wrappedNativeToken",
      "outputs": [
        {
          "internalType": "address",
          "name": "",
          "type": "address"
        }
      ],
      "stateMutability": "view",
      "type": "function"
    },
    {
      "stateMutability": "payable",
      "type": "receive"
    }
  ],
  "transactionHash": "0xd9e22eb6f8ea67e5ed081adc250b75de0e8429bf3eda3c5b2c14cee1d3680928",
  "args": [],
  "numDeployments": 1,
  "solcInputHash": "344ec5168561fdfbe1ba76684d9871c2",
  "bytecode": "0x608060405234801561001057600080fd5b50615f80806100206000396000f3fe608060405260043610620002885760003560e01c8063023e25b41462000295578063068bf87414620002e7578063088302a6146200030e5780630e72e41e1462000335578063171060ec146200036b57806317fcb39b14620003905780631812adb614620003b25780631e7107c714620003d9578063292c1d9214620003fe5780633669391e1462000420578063402e01f8146200043857806349c544e1146200045d5780635002322c146200047457806361849f75146200049957806361be10f214620004be57806361d027b314620004e35780636390802014620005055780636600203d146200051d5780636b2857ef14620005425780636e8adf61146200056757806370872aa514620005a1578063715018a614620005b957806375122f6214620005d15780637ed5574814620005f6578063839ae1d7146200061b5780638be727e114620006325780638da5cb5b14620006575780638e320097146200066f57806390665eca14620006945780639a8a059214620006ab5780639aed427914620006c35780639cbea0ec14620006db5780639eca44531462000715578063a1809b951462000769578063a3696a09146200078e578063a44c2b9a14620007b3578063acc2166a14620007d8578063ae2a74ee14620007fa578063b3ff9f49146200082b578063b4e183f41462000852578063b59589d11462000877578063c805f68b1462000899578063d4603f4c14620008be578063d7b96d4e14620008f8578063d8484ef5146200091a578063da058ae31462000945578063e7650788146200096a578063e91ffefd1462000a28578063ef0e2ff41462000a3f578063f0f442601462000a64578063f2fde38b1462000a89578063f80d19481462000aae57600080fd5b366200029057005b600080fd5b348015620002a257600080fd5b50620002cf620002b436600462003cd7565b609f602052600090815260409020546001600160a01b031681565b604051620002de9190620044dc565b60405180910390f35b348015620002f457600080fd5b506200030c620003063660046200410a565b62000ad3565b005b3480156200031b57600080fd5b506200032662000dda565b604051620002de919062004a93565b3480156200034257600080fd5b506200035a6200035436600462003cd7565b62000e70565b6040519015158152602001620002de565b3480156200037857600080fd5b506200030c6200038a36600462003b8d565b62000ebe565b3480156200039d57600080fd5b5060a954620002cf906001600160a01b031681565b348015620003bf57600080fd5b50620003ca60995481565b604051908152602001620002de565b348015620003e657600080fd5b506200030c620003f836600462003cd7565b62000f33565b3480156200040b57600080fd5b5060ac54620002cf906001600160a01b031681565b3480156200042d57600080fd5b50620003ca609b5481565b3480156200044557600080fd5b50620003266200045736600462003b8d565b62000f8a565b6200030c6200046e36600462003e6b565b62000fa5565b3480156200048157600080fd5b506200030c6200049336600462004053565b62001749565b348015620004a657600080fd5b506200030c620004b836600462004053565b62001984565b348015620004cb57600080fd5b506200030c620004dd36600462003b8d565b62001ba3565b348015620004f057600080fd5b50609d54620002cf906001600160a01b031681565b3480156200051257600080fd5b50620003ca609a5481565b3480156200052a57600080fd5b506200030c6200053c36600462003cd7565b62001bcf565b3480156200054f57600080fd5b506200030c62000561366004620041f9565b62001c3f565b3480156200057457600080fd5b50620002cf6200058636600462003cd7565b60a3602052600090815260409020546001600160a01b031681565b348015620005ae57600080fd5b50620003ca60975481565b348015620005c657600080fd5b506200030c62001c77565b348015620005de57600080fd5b506200030c620005f036600462004220565b62001c83565b3480156200060357600080fd5b506200030c6200061536600462003cd7565b62001d44565b6200030c6200062c36600462003f66565b62001db4565b3480156200063f57600080fd5b506200030c6200065136600462003cd7565b62002213565b3480156200066457600080fd5b50620002cf62002310565b3480156200067c57600080fd5b506200030c6200068e36600462003bcb565b6200231f565b348015620006a157600080fd5b5060a454620003ca565b348015620006b857600080fd5b50620003ca60985481565b348015620006d057600080fd5b50620003ca60a85481565b348015620006e857600080fd5b50620002cf620006fa36600462003b8d565b60ab602052600090815260409020546001600160a01b031681565b3480156200072257600080fd5b50620007596200073436600462003cd7565b60a760205260009081526040902080546001909101546001600160a01b039091169082565b604051620002de9291906200467b565b3480156200077657600080fd5b506200030c6200078836600462003b8d565b62002357565b3480156200079b57600080fd5b506200030c620007ad36600462003b8d565b62002383565b348015620007c057600080fd5b506200035a620007d236600462003cd7565b62002405565b348015620007e557600080fd5b5060aa54620002cf906001600160a01b031681565b3480156200080757600080fd5b50620003ca6200081936600462003b8d565b60a16020526000908152604090205481565b3480156200083857600080fd5b5060a654620002cf9061010090046001600160a01b031681565b3480156200085f57600080fd5b506200030c62000871366004620040b9565b62002424565b3480156200088457600080fd5b50609c54620002cf906001600160a01b031681565b348015620008a657600080fd5b506200030c620008b836600462003b8d565b6200247b565b348015620008cb57600080fd5b50620008e3620008dd36600462003cd7565b620024a7565b604051620002de979695949392919062004962565b3480156200090557600080fd5b50609e54620002cf906001600160a01b031681565b3480156200092757600080fd5b5060a654620009369060ff1681565b604051620002de919062004aa8565b3480156200095257600080fd5b506200030c6200096436600462003b8d565b6200259b565b3480156200097757600080fd5b5062000a0c6200098936600462003cd7565b60a260205260009081526040902080546001820154600283015460038401546004850154600586015460068701546007880154600889015460098a0154600a8b0154600b8c0154600c909c015460ff9b8c169c9a9b999a989997986001600160a01b0397881698968816979596949593949390921692808216916101009004168e565b604051620002de9e9d9c9b9a99989796959493929190620049b0565b620003ca62000a39366004620042a8565b620025c7565b34801562000a4c57600080fd5b506200030c62000a5e36600462003cd7565b62002ab0565b34801562000a7157600080fd5b506200030c62000a8336600462003b8d565b62002abf565b34801562000a9657600080fd5b506200030c62000aa836600462003b8d565b62002aeb565b34801562000abb57600080fd5b506200030c62000acd36600462004342565b62002b6a565b62000add62002d02565b6000818152609f60205260409020546001600160a01b03161562000b3a5760405162461bcd60e51b815260206004820152600f60248201526e149bdd5d195c8e881d5cd959081a59608a1b60448201526064015b60405180910390fd5b60007321AB41cabB999a8E78C5D74e44E43819022FD0306374c6d02c6040518163ffffffff1660e01b815260040160206040518083038186803b15801562000b8157600080fd5b505af415801562000b96573d6000803e3d6000fd5b505050506040513d601f19601f8201168201806040525081019062000bbc919062003bac565b9050606060008262000bcd62002310565b8360405162000bdc906200384f565b62000bea939291906200450a565b604051809103906000f08015801562000c07573d6000803e3d6000fd5b50604051630b127b6360e11b815290915081906001600160a01b03821690631624f6c69062000c3f908c908c908b9060040162004b74565b600060405180830381600087803b15801562000c5a57600080fd5b505af115801562000c6f573d6000803e3d6000fd5b5050604051634c1d96ab60e11b81526001600160a01b038416925063983b2d56915062000ca1903090600401620044dc565b600060405180830381600087803b15801562000cbc57600080fd5b505af115801562000cd1573d6000803e3d6000fd5b5050604051637a231bdd60e11b81526001600160a01b038416925063f44637ba915062000d03903090600401620044dc565b600060405180830381600087803b15801562000d1e57600080fd5b505af115801562000d33573d6000803e3d6000fd5b5050506000868152609f6020908152604080832080546001600160a01b0319166001600160a01b038716908117909155835260a1825280832089905560a08252909120895162000d89935090918a01906200385d565b507f175ec5a73d18c14429b1199d5fac7097c1c021f98a45d4bcfdeddedfbcc04f3c8989898989868a60405162000dc7979695949392919062004b02565b60405180910390a1505050505050505050565b60a5805462000de99062004f71565b80601f016020809104026020016040519081016040528092919081815260200182805462000e179062004f71565b801562000e685780601f1062000e3c5761010080835404028352916020019162000e68565b820191906000526020600020905b81548152906001019060200180831162000e4a57829003601f168201915b505050505081565b600060a4828154811062000e9457634e487b7160e01b600052603260045260246000fd5b600091825260209091206007909102015460ff1662000eb557600062000eb8565b60015b92915050565b62000ec862002d02565b609e546040517f69253c7023f628e3a302b63087a3bfc1dfdb256780182f81b9f0df9eff9542b09162000f09916001600160a01b03909116908490620044f0565b60405180910390a1609e80546001600160a01b0319166001600160a01b0392909216919091179055565b62000f3d62002d02565b609754811162000f855760405162461bcd60e51b81526020600482015260126024820152712937baba32b91d103637bb90373ab6b132b960711b604482015260640162000b31565b609755565b60a0602052600090815260409020805462000de99062004f71565b62000faf62002d65565b60a654734a00edf7f07ecb48a4a3fd798e0fb79d90ef21a99061010090046001600160a01b0316336001600160a01b0316148062000ff55750336001600160a01b038216145b6200103c5760405162461bcd60e51b81526020600482015260166024820152752937baba32b91d103737ba103a32b632b837b93a32b960511b604482015260640162000b31565b60007321AB41cabB999a8E78C5D74e44E43819022FD03063e291283d609754609c60009054906101000a90046001600160a01b03168f8f8f8f8f8f8f8f8f6040518c63ffffffff1660e01b8152600401620010a29b9a9998979695949392919062004c83565b60206040518083038186803b158015620010bb57600080fd5b505af4158015620010d0573d6000803e3d6000fd5b505050506040513d601f19601f82011682018060405250810190620010f6919062003cf0565b90506000806000807321AB41cabB999a8E78C5D74e44E43819022FD030631d8dbb228f8f8860a2609f60a7609954609a546040518963ffffffff1660e01b81526004016200114c98979695949392919062004a4b565b60c06040518083038186803b1580156200116557600080fd5b505af41580156200117a573d6000803e3d6000fd5b505050506040513d601f19601f82011682018060405250810190620011a091906200425a565b600089815260a2602090815260409182902082516101c081018452815460ff90811615158252600183015493820193909352600282015481850152600382015460608201526004808301546080830181905260058401546001600160a01b0390811660a08501526006850154811660c0850152600785015460e08501526008850154610100808601919091526009860154610120860152600a8601548216610140860152600b860154610160860152600c9095015480871615156101808601529490940490941615156101a083015293516340c10f1960e01b8152979b509599509397509195509293918516926340c10f1992620012a39230929091016200467b565b602060405180830381600087803b158015620012be57600080fd5b505af1158015620012d3573d6000803e3d6000fd5b505050506040513d601f19601f82011682018060405250810190620012f9919062003c08565b506200130784838562002dc1565b6040810151620013e95760c081015160405163a9059cbb60e01b81526001600160a01b0384169163a9059cbb9162001345919089906004016200467b565b602060405180830381600087803b1580156200136057600080fd5b505af115801562001375573d6000803e3d6000fd5b505050506040513d601f19601f820116820180604052508101906200139b919062003c08565b507f43c9c64e3d0a7d664252e89fe26c8958a77098900ebf13f7aa95030a371bc4328160c00151868487878b604051620013db9695949392919062004694565b60405180910390a16200172b565b8060a001516001600160a01b0316886000815181106200141957634e487b7160e01b600052603260045260246000fd5b60200260200101516001600160a01b03161480156200148557508061014001516001600160a01b03168860018a5162001453919062004f28565b815181106200147257634e487b7160e01b600052603260045260246000fd5b60200260200101516001600160a01b0316145b620014a45760405162461bcd60e51b815260040162000b319062004bde565b600080620014bf836040015130898661012001518e62002efd565b9150915081156200166e5760985483602001511415620015c0577fed12b1e275b408eb8b01de7d246293c2daf02f98422b51b0af3012463e2a725e8360c001518886848761014001518b8b8f60405162001521989796959493929190620046da565b60405180910390a161014083015160c084015160405163a9059cbb60e01b81526001600160a01b039092169163a9059cbb91620015639185906004016200467b565b602060405180830381600087803b1580156200157e57600080fd5b505af115801562001593573d6000803e3d6000fd5b505050506040513d601f19601f82011682018060405250810190620015b9919062003c08565b5062001728565b7fd3490b493caef9fda8e38731ab561837a55528daf6c18a22a6f8cb04cab4add78360c001518886848761014001518b8b8f8b61018001518c602001518d61016001516040516200161c9b9a99989796959493929190620047a0565b60405180910390a1600088815260a260209081526040909120600c01805461ff00191661010017905583015161014084015160c085015161016086015162001668939291859162003110565b62001728565b7f087246aad20f531629449359af89e65cd0b4a91cc4d101243523be5e95e5df9a8360c0015188868661012001518761014001518b8b8f8b61018001518c60200151604051620016c89a9998979695949392919062004733565b60405180910390a160985483602001511415620017135760c083015160405163a9059cbb60e01b81526001600160a01b0386169163a9059cbb916200156391908b906004016200467b565b600088815260a2602052604090206004018790555b50505b505050505050506200173d6001606555565b50505050505050505050565b6200175362002d65565b6000806000868060200190518101906200176e919062003dcf565b60985460405163111c586160e21b815293965091945092507321AB41cabB999a8E78C5D74e44E43819022FD03091634471618491620017bd9160a29188918d918d918d918d9160040162004ab8565b60006040518083038186803b158015620017d657600080fd5b505af4158015620017eb573d6000803e3d6000fd5b505050600084815260a26020526040908190206005810154600491820154925163095ea7b360e01b81526001600160a01b03909116935063095ea7b39262001836923092016200467b565b602060405180830381600087803b1580156200185157600080fd5b505af115801562001866573d6000803e3d6000fd5b505050506040513d601f19601f820116820180604052508101906200188c919062003c08565b50600083815260a2602081815260408084206005808201546001600160a01b0316865260a1845291852054888652939092526004909101546200190b928492909190869060ff891690811115620018f357634e487b7160e01b600052602160045260246000fd5b604080516000808252602082019092528190620025c7565b90507ff76a6a96aa9a9cff016e5ffb555412e8c8743b825e6c537a6bca10befa4b446e81838560ff1660058111156200195457634e487b7160e01b600052602160045260246000fd5b8760405162001967949392919062004da9565b60405180910390a1505050506200197e6001606555565b50505050565b6200198e62002d65565b60008060008087806020019051810190620019aa919062003d09565b93509350935093507321AB41cabB999a8E78C5D74e44E43819022FD030634471618460a2868b8b8b8b6098546040518863ffffffff1660e01b8152600401620019fa979695949392919062004ab8565b60006040518083038186803b15801562001a1357600080fd5b505af415801562001a28573d6000803e3d6000fd5b505050600085815260a26020908152604080832081516101c081018352815460ff9081161515825260018301549482019490945260028201549281018390526003820154606082015260048201546080820181905260058301546001600160a01b0390811660a08401526006840154811660c0840152600784015460e08401526008840154610100808501919091526009850154610120850152600a850154909116610140840152600b840154610160840152600c9093015480861615156101808401529290920490931615156101a0840152919350829162001b1091903090898862002efd565b915091508162001b345760405162461bcd60e51b815260040162000b319062004bb1565b62001b508360200151846101400151838660c001518962003110565b60408051828152602081018790529081018890527f64fc09f9e8dcdc8ecd7d35e2904cc6f206a86b3ea10f43b218807b2333efa0579060600160405180910390a1505050505050506200197e6001606555565b62001bad62002d02565b60ac80546001600160a01b0319166001600160a01b0392909216919091179055565b62001bd962002d02565b80612710101562001bfe5760405162461bcd60e51b815260040162000b319062004c55565b609a5460408051918252602082018390527f44c6802691f6adea249930369a511db979a5e9a3603bdb37ceee1036da80e980910160405180910390a1609a55565b62001c4962002d02565b600091825260a3602052604090912080546001600160a01b0319166001600160a01b03909216919091179055565b62001c8162002d02565b565b62001c8d62002d02565b600083815260a76020908152604091829020805460019091015483518781526001600160a01b039283169381019390935282840152841660608201526080810183905290517f23385740814648db624aa52a0c990fc42def14e1b04e7fe5b2bf87b85e1294529181900360a00190a16040805180820182526001600160a01b0393841681526020808201938452600095865260a790529320925183546001600160a01b031916921691909117825551600190910155565b62001d4e62002d02565b80612710101562001d735760405162461bcd60e51b815260040162000b319062004c55565b60995460408051918252602082018390527f7d205f60891f60851c61cd244ba387d72b6589e7c0ac41b9d909ab0ce2c2a53b910160405180910390a1609955565b62001dbe62002d65565b609e546001600160a01b0316336001600160a01b03161462001e185760405162461bcd60e51b81526020600482015260126024820152712937baba32b91d103737ba103637b1b5b2b960711b604482015260640162000b31565b609754609c5460405163e291283d60e01b81526000927321AB41cabB999a8E78C5D74e44E43819022FD0309263e291283d9262001e7192916001600160a01b0316908e908e908e908e908e908e908e9060040162004d18565b60206040518083038186803b15801562001e8a57600080fd5b505af415801562001e9f573d6000803e3d6000fd5b505050506040513d601f19601f8201168201806040525081019062001ec5919062003cf0565b905060005b8251811015620021fc5760a483828151811062001ef757634e487b7160e01b600052603260045260246000fd5b60200260200101518154811062001f1e57634e487b7160e01b600052603260045260246000fd5b600091825260209091206007909102015460ff161562001f7d5760405162461bcd60e51b8152602060048201526019602482015278149bdd5d195c8e88185b1c9958591e481c1c9bd8d95cdcd959603a1b604482015260640162000b31565b600160a484838151811062001fa257634e487b7160e01b600052603260045260246000fd5b60200260200101518154811062001fc957634e487b7160e01b600052603260045260246000fd5b906000526020600020906007020160000160006101000a81548160ff0219169083151502179055507f3922cf2b1e70997609e6dbe5a0af9360f827a7ef03e3f6cf8728e23afa52ba8260a48483815181106200203557634e487b7160e01b600052603260045260246000fd5b6020026020010151815481106200205c57634e487b7160e01b600052603260045260246000fd5b906000526020600020906007020160040160009054906101000a90046001600160a01b031660a4858481518110620020a457634e487b7160e01b600052603260045260246000fd5b602002602001015181548110620020cb57634e487b7160e01b600052603260045260246000fd5b90600052602060002090600702016002015460a48685815181106200210057634e487b7160e01b600052603260045260246000fd5b6020026020010151815481106200212757634e487b7160e01b600052603260045260246000fd5b906000526020600020906007020160050160a48786815181106200215b57634e487b7160e01b600052603260045260246000fd5b6020026020010151815481106200218257634e487b7160e01b600052603260045260246000fd5b906000526020600020906007020160060160009054906101000a900460ff16878681518110620021c257634e487b7160e01b600052603260045260246000fd5b602002602001015187604051620021df9695949392919062004813565b60405180910390a180620021f38162004fae565b91505062001eca565b5050620022096001606555565b5050505050505050565b6200221d62002d02565b6000818152609f60205260409020546001600160a01b031680620022775760405162461bcd60e51b815260206004820152601060248201526f2937baba32b91d103737903a37b5b2b760811b604482015260640162000b31565b604080518381526001600160a01b03831660208201527ff61991393940604b8433d5f9a855624b8452e131d66e476a45c7139651df9699910160405180910390a16001600160a01b038116600090815260a060205260408120620022db91620038ec565b6001600160a01b0316600090815260a160209081526040808320839055928252609f90522080546001600160a01b0319169055565b6033546001600160a01b031690565b6200232962002d02565b6001600160a01b03918216600090815260ab6020526040902080546001600160a01b03191691909216179055565b6200236162002d02565b60aa80546001600160a01b0319166001600160a01b0392909216919091179055565b6200238d62002d02565b7f150b77d21bd499fd0dccea9fe32513c7b65aa34ccde41e7dafac74ace8e19c9460a660019054906101000a90046001600160a01b031682604051620023d5929190620044f0565b60405180910390a160a680546001600160a01b0390921661010002610100600160a81b0319909216919091179055565b600081815260a2602052604081205460ff1662000eb557600062000eb8565b6200242e62002d02565b8151620024439060a59060208501906200385d565b5060a6805482919060ff191660018360058111156200247257634e487b7160e01b600052602160045260246000fd5b02179055505050565b6200248562002d02565b609c80546001600160a01b0319166001600160a01b0392909216919091179055565b60a48181548110620024b857600080fd5b600091825260209091206007909102018054600182015460028301546003840154600485015460058601805460ff90961697509395929491936001600160a01b039091169291620025099062004f71565b80601f0160208091040260200160405190810160405280929190818152602001828054620025379062004f71565b8015620025885780601f106200255c5761010080835404028352916020019162002588565b820191906000526020600020905b8154815290600101906020018083116200256a57829003601f168201915b5050506006909301549192505060ff1687565b620025a562002d02565b60a980546001600160a01b0319166001600160a01b0392909216919091179055565b6000620025d362002d65565b6000888152609f60205260409020546001600160a01b031680620026325760405162461bcd60e51b8152602060048201526015602482015274149bdd5d195c8e881b9bdd081cdd5c1c1bdc9d1959605a1b604482015260640162000b31565b825115620028aa57806001600160a01b0316836001855162002655919062004f28565b815181106200267457634e487b7160e01b600052603260045260246000fd5b60200260200101516001600160a01b031614620026a55760405162461bcd60e51b815260040162000b319062004bde565b3415620027b4578334148015620026f6575082600081518110620026d957634e487b7160e01b600052603260045260246000fd5b602090810291909101015160a9546001600160a01b039081169116145b620027435760405162461bcd60e51b815260206004820152601c60248201527b2937baba32b91d103bb937b733903b30b63ab29037b9103a37b5b2b760211b604482015260640162000b31565b60a960009054906101000a90046001600160a01b03166001600160a01b031663d0e30db0856040518263ffffffff1660e01b81526004016000604051808303818588803b1580156200279457600080fd5b505af1158015620027a9573d6000803e3d6000fd5b50505050506200286e565b82600081518110620027d657634e487b7160e01b600052603260045260246000fd5b60200260200101516001600160a01b03166323b872dd620027f43390565b30876040518463ffffffff1660e01b8152600401620028169392919062004541565b602060405180830381600087803b1580156200283157600080fd5b505af115801562002846573d6000803e3d6000fd5b505050506040513d601f19601f820116820180604052508101906200286c919062003c08565b505b60006200287f8630878c8862002efd565b9950905080620028a35760405162461bcd60e51b815260040162000b319062004bb1565b506200297a565b6040516323b872dd60e01b81526001600160a01b038216906323b872dd90620028dc90339030908d9060040162004541565b602060405180830381600087803b158015620028f757600080fd5b505af11580156200290c573d6000803e3d6000fd5b505050506040513d601f19601f8201168201806040525081019062002932919062003c08565b6200297a5760405162461bcd60e51b8152602060048201526017602482015276149bdd5d195c8e881d1c985b9cd9995c8819985a5b1959604a1b604482015260640162000b31565b620029846200392b565b6000620029958c848c8c8c6200325d565b8751909650919350915062002a09577f7ded23d6204f0918dc93f275df51659538e59e8aaf5698ce1f49180c22857b53338a8a868e8988600089600160a480549050620029e3919062004f28565b604051620029fb9a9998979695949392919062004565565b60405180910390a162002a96565b7fe17d30e84f141d5effc904ed29262988eb565f53a8c01270148776b88451bb71338a8a898960008151811062002a5057634e487b7160e01b600052603260045260246000fd5b60200260200101518f8a8a8a60008b600160a48054905062002a73919062004f28565b60405162002a8d9c9b9a99989796959493929190620045e9565b60405180910390a15b50505062002aa46001606555565b98975050505050505050565b62002aba62002d02565b609855565b62002ac962002d02565b609d80546001600160a01b0319166001600160a01b0392909216919091179055565b62002af562002d02565b6001600160a01b03811662002b5c5760405162461bcd60e51b815260206004820152602660248201527f4f776e61626c653a206e6577206f776e657220697320746865207a65726f206160448201526564647265737360d01b606482015260840162000b31565b62002b6781620033c2565b50565b600054610100900460ff161580801562002b8b5750600054600160ff909116105b8062002ba75750303b15801562002ba7575060005460ff166001145b62002c0c5760405162461bcd60e51b815260206004820152602e60248201527f496e697469616c697a61626c653a20636f6e747261637420697320616c72656160448201526d191e481a5b9a5d1a585b1a5e995960921b606482015260840162000b31565b6000805460ff19166001179055801562002c30576000805461ff0019166101001790555b62002c3a62003414565b62002c4462003448565b609889905562002c548c62000f33565b62002c5f8b62001d44565b62002c6a8a62001bcf565b62002c75886200247b565b62002c808762000ebe565b62002c8c868662002424565b62002c978462002383565b62002ca28362002abf565b62002cad826200259b565b801562002cf4576000805461ff0019169055604051600181527f7f26b83ff96e1f2b6a682f133852f6798a09c465da95921460cefb38474024989060200160405180910390a15b505050505050505050505050565b3362002d0d62002310565b6001600160a01b03161462001c815760405162461bcd60e51b815260206004820181905260248201527f4f776e61626c653a2063616c6c6572206973206e6f7420746865206f776e6572604482015260640162000b31565b6002606554141562002dba5760405162461bcd60e51b815260206004820152601f60248201527f5265656e7472616e637947756172643a207265656e7472616e742063616c6c00604482015260640162000b31565b6002606555565b609d54835160405163a9059cbb60e01b81526001600160a01b038581169363a9059cbb9362002df89392909116916004016200467b565b602060405180830381600087803b15801562002e1357600080fd5b505af115801562002e28573d6000803e3d6000fd5b505050506040513d601f19601f8201168201806040525081019062002e4e919062003c08565b5062002e5f8360200151836200347c565b6001600160a01b0381161562002ef857604080840151905163a9059cbb60e01b81526001600160a01b0384169163a9059cbb9162002ea29185916004016200467b565b602060405180830381600087803b15801562002ebd57600080fd5b505af115801562002ed2573d6000803e3d6000fd5b505050506040513d601f19601f820116820180604052508101906200197e919062003c08565b505050565b600085815260a3602052604081205481906001600160a01b03168062002f5e5760405162461bcd60e51b8152602060048201526015602482015274149bdd5d195c8e881a5b9d985b1a5908185c1c1259605a1b604482015260640162000b31565b8360008151811062002f8057634e487b7160e01b600052603260045260246000fd5b60200260200101516001600160a01b031663095ea7b382886040518363ffffffff1660e01b815260040162002fb79291906200467b565b602060405180830381600087803b15801562002fd257600080fd5b505af115801562002fe7573d6000803e3d6000fd5b505050506040513d601f19601f820116820180604052508101906200300d919062003c08565b5060606001600160a01b03821663b0bbcd888860646200302f8a605062004f06565b6200303b919062004ee5565b888c4260016040518763ffffffff1660e01b8152600401620030639695949392919062004de4565b600060405180830381600087803b1580156200307e57600080fd5b505af115801562003093573d6000803e3d6000fd5b505050506040513d6000823e601f3d908101601f19168201604052620030bd919081019062003c25565b9094509050831562003104578060018251620030da919062004f28565b81518110620030f957634e487b7160e01b600052603260045260246000fd5b602002602001015192505b50509550959350505050565b60ac5460405163095ea7b360e01b81526001600160a01b038681169263095ea7b39262003146929091169087906004016200467b565b602060405180830381600087803b1580156200316157600080fd5b505af115801562003176573d6000803e3d6000fd5b505050506040513d601f19601f820116820180604052508101906200319c919062003c08565b5060ac54604051631186ec3360e01b81526001600160a01b03848116600483015286811660248301526044820186905260648201889052600784900b608483015263ffffffff421660a483015261010060c4830152600261010483015261060f60f31b61012483015260001960e483015290911690631186ec339061014401600060405180830381600087803b1580156200323657600080fd5b505af11580156200324b573d6000803e3d6000fd5b505050505050505050565b6001606555565b620032676200392b565b6000807321AB41cabB999a8E78C5D74e44E43819022FD0306394d8bc6a33609954609a5460a460a78e8d8d8d6040518a63ffffffff1660e01b8152600401620032b999989796959493929190620048f9565b60a06040518083038186803b158015620032d257600080fd5b505af4158015620032e7573d6000803e3d6000fd5b505050506040513d601f19601f820116820180604052508101906200330d9190620041b4565b609b805493965091945092506000620033268362004fae565b91905055506200333883888462002dc1565b604051630852cd8d60e31b8152600481018290526001600160a01b038816906342966c6890602401602060405180830381600087803b1580156200337b57600080fd5b505af115801562003390573d6000803e3d6000fd5b505050506040513d601f19601f82011682018060405250810190620033b6919062003c08565b50955095509592505050565b603380546001600160a01b038381166001600160a01b0319831681179093556040519116919082907f8be0079c531659141344cd1fd0a4f28419497f9722a3daafe3b4186f6b6457e090600090a35050565b600054610100900460ff166200343e5760405162461bcd60e51b815260040162000b319062004c0a565b62001c816200361c565b600054610100900460ff16620034725760405162461bcd60e51b815260040162000b319062004c0a565b62001c8162003651565b8115620036185760aa546001600160a01b03166200352057609e5460405163a9059cbb60e01b81526001600160a01b038381169263a9059cbb92620034ca929091169086906004016200467b565b602060405180830381600087803b158015620034e557600080fd5b505af1158015620034fa573d6000803e3d6000fd5b505050506040513d601f19601f8201168201806040525081019062002ef8919062003c08565b60aa5460405163095ea7b360e01b81526001600160a01b038381169263095ea7b39262003556929091169086906004016200467b565b602060405180830381600087803b1580156200357157600080fd5b505af115801562003586573d6000803e3d6000fd5b505050506040513d601f19601f82011682018060405250810190620035ac919062003c08565b5060aa546001600160a01b03828116600090815260ab60205260409081902054905162002ef893831692620035e892169086906024016200467b565b60408051601f198184030181529190526020810180516001600160e01b0316637db4e28f60e01b1790526200367b565b5050565b600054610100900460ff16620036465760405162461bcd60e51b815260040162000b319062004c0a565b62001c8133620033c2565b600054610100900460ff16620032565760405162461bcd60e51b815260040162000b319062004c0a565b6060620036bf83836040518060400160405280601e81526020017f416464726573733a206c6f772d6c6576656c2063616c6c206661696c65640000815250620036c6565b9392505050565b6060620036d78484600085620036df565b949350505050565b606082471015620037425760405162461bcd60e51b815260206004820152602660248201527f416464726573733a20696e73756666696369656e742062616c616e636520666f6044820152651c8818d85b1b60d21b606482015260840162000b31565b843b620037925760405162461bcd60e51b815260206004820152601d60248201527f416464726573733a2063616c6c20746f206e6f6e2d636f6e7472616374000000604482015260640162000b31565b600080866001600160a01b03168587604051620037b09190620044be565b60006040518083038185875af1925050503d8060008114620037ef576040519150601f19603f3d011682016040523d82523d6000602084013e620037f4565b606091505b50915091506200380682828662003811565b979650505050505050565b6060831562003822575081620036bf565b825115620038335782518084602001fd5b8160405162461bcd60e51b815260040162000b31919062004a93565b610f2c806200501f83390190565b8280546200386b9062004f71565b90600052602060002090601f0160209004810192826200388f5760008555620038da565b82601f10620038aa57805160ff1916838001178555620038da565b82800160010185558215620038da579182015b82811115620038da578251825591602001919060010190620038bd565b50620038e89291506200394c565b5090565b508054620038fa9062004f71565b6000825580601f106200390b575050565b601f01602090049060005260206000209081019062002b6791906200394c565b60405180606001604052806000815260200160008152602001600081525090565b5b80821115620038e857600081556001016200394d565b8035620039708162004ff8565b919050565b600082601f83011262003986578081fd5b813560206200399f620039998362004e95565b62004e62565b80838252828201915082860187848660051b8901011115620039bf578586fd5b855b85811015620039ea578135620039d78162004ff8565b84529284019290840190600101620039c1565b5090979650505050505050565b600082601f83011262003a08578081fd5b8135602062003a1b620039998362004e95565b80838252828201915082860187848660051b890101111562003a3b578586fd5b855b85811015620039ea5781358452928401929084019060010162003a3d565b805180151581146200397057600080fd5b80356001600160e01b0319811681146200397057600080fd5b60008083601f84011262003a97578182fd5b5081356001600160401b0381111562003aae578182fd5b60208301915083602082850101111562003ac757600080fd5b9250929050565b600082601f83011262003adf578081fd5b813562003af0620039998262004ebb565b81815284602083860101111562003b05578283fd5b816020850160208301379081016020019190915292915050565b8035600681106200397057600080fd5b60006060828403121562003b41578081fd5b604051606081016001600160401b038111828210171562003b665762003b6662004fe2565b80604052508091508251815260208301516020820152604083015160408201525092915050565b60006020828403121562003b9f578081fd5b8135620036bf8162004ff8565b60006020828403121562003bbe578081fd5b8151620036bf8162004ff8565b6000806040838503121562003bde578081fd5b823562003beb8162004ff8565b9150602083013562003bfd8162004ff8565b809150509250929050565b60006020828403121562003c1a578081fd5b620036bf8262003a5b565b6000806040838503121562003c38578182fd5b62003c438362003a5b565b602084810151919350906001600160401b0381111562003c61578283fd5b8401601f8101861362003c72578283fd5b805162003c83620039998262004e95565b80828252848201915084840189868560051b870101111562003ca3578687fd5b8694505b8385101562003cc757805183526001949094019391850191850162003ca7565b5080955050505050509250929050565b60006020828403121562003ce9578081fd5b5035919050565b60006020828403121562003d02578081fd5b5051919050565b6000806000806080858703121562003d1f578182fd5b8451602080870151604088015160608901519397509095509350906001600160401b0381111562003d4e578283fd5b8601601f8101881362003d5f578283fd5b805162003d70620039998262004e95565b8082825284820191508484018b868560051b870101111562003d90578687fd5b8694505b8385101562003dbf57805162003daa8162004ff8565b83526001949094019391850191850162003d94565b50979a9699509497505050505050565b60008060006060848603121562003de4578081fd5b83519250602084015162003df8816200500e565b60408501519092506001600160401b0381111562003e14578182fd5b8401601f8101861362003e25578182fd5b805162003e36620039998262004ebb565b81815287602083850101111562003e4b578384fd5b62003e5e82602083016020860162004f42565b8093505050509250925092565b6000806000806000806000806000806101008b8d03121562003e8b578788fd5b62003e968b62003a6c565b995060208b01356001600160401b038082111562003eb257898afd5b62003ec08e838f0162003ace565b9a5060408d013591508082111562003ed657898afd5b62003ee48e838f0162003a85565b909a50985088915062003efa60608e0162003a6c565b975060808d0135965060a08d013591508082111562003f17578586fd5b62003f258e838f0162003a85565b909650945060c08d0135935060e08d013591508082111562003f45578283fd5b5062003f548d828e0162003975565b9150509295989b9194979a5092959850565b600080600080600080600080610100898b03121562003f83578182fd5b62003f8e8962003a6c565b975060208901356001600160401b038082111562003faa578384fd5b62003fb88c838d0162003ace565b985060408b013591508082111562003fce578384fd5b62003fdc8c838d0162003ace565b975062003fec60608c0162003a6c565b965060808b0135955060a08b013591508082111562004009578384fd5b620040178c838d0162003ace565b945060c08b0135935060e08b013591508082111562004034578283fd5b50620040438b828c01620039f7565b9150509295985092959890939650565b6000806000806080858703121562004069578182fd5b84356001600160401b038111156200407f578283fd5b6200408d8782880162003ace565b94505060208501359250604085013591506060850135620040ae816200500e565b939692955090935050565b60008060408385031215620040cc578182fd5b82356001600160401b03811115620040e2578283fd5b620040f08582860162003ace565b925050620041016020840162003b1f565b90509250929050565b600080600080600060a0868803121562004122578283fd5b85356001600160401b038082111562004139578485fd5b6200414789838a0162003ace565b965060208801359150808211156200415d578485fd5b6200416b89838a0162003ace565b9550604088013591508082111562004181578485fd5b50620041908882890162003ace565b9350506060860135620041a3816200500e565b949793965091946080013592915050565b600080600060a08486031215620041c9578081fd5b620041d5858562003b2f565b92506060840151620041e78162004ff8565b80925050608084015190509250925092565b600080604083850312156200420c578182fd5b82359150602083013562003bfd8162004ff8565b60008060006060848603121562004235578081fd5b833592506020840135620042498162004ff8565b929592945050506040919091013590565b60008060008060c0858703121562004270578182fd5b8451935062004283866020870162003b2f565b92506080850151620042958162004ff8565b60a0860151909250620040ae8162004ff8565b600080600080600080600080610100898b031215620042c5578182fd5b88359750602089013596506040890135955060608901356001600160401b0380821115620042f1578384fd5b620042ff8c838d0162003ace565b96506200430f60808c0162003b1f565b955060a08b0135945060c08b0135935060e08b013591508082111562004333578283fd5b50620040438b828c0162003975565b60008060008060008060008060008060006101608c8e03121562004364578485fd5b8b359a5060208c0135995060408c0135985060608c0135975060808c01356200438d8162004ff8565b965060a08c01356200439f8162004ff8565b955060c08c01356001600160401b03811115620043ba578586fd5b620043c88e828f0162003ace565b955050620043d960e08d0162003b1f565b9350620043ea6101008d0162003963565b9250620043fb6101208d0162003963565b91506200440c6101408d0162003963565b90509295989b509295989b9093969950565b6001600160a01b03169052565b81835281816020850137506000828201602090810191909152601f909101601f19169091010190565b600081518084526200446e81602086016020860162004f42565b601f01601f19169290920160200192915050565b60068110620044a157634e487b7160e01b600052602160045260246000fd5b9052565b8051825260208082015190830152604090810151910152565b60008251620044d281846020870162004f42565b9190910192915050565b6001600160a01b0391909116815260200190565b6001600160a01b0392831681529116602082015260400190565b6001600160a01b03848116825283166020820152606060408201819052600090620045389083018462004454565b95945050505050565b6001600160a01b039384168152919092166020820152604081019190915260600190565b6001600160a01b038b81168252610180602083018190526000916200458d8483018e62004454565b92506200459e604085018d62004482565b808b1660608501528960808501528860a0850152620045c160c0850189620044a5565b866101208501528086166101408501525050826101608301529b9a5050505050505050505050565b600060018060a01b03808f1683526101c060208401526200460f6101c084018f62004454565b915062004620604084018e62004482565b8b6060840152808b1660808401528960a08401528860c084015280881660e084015262004652610100840188620044a5565b8561016084015280851661018084015250826101a08301529d9c50505050505050505050505050565b6001600160a01b03929092168252602082015260400190565b6001600160a01b038781168252602082018790528581166040830152610100820190620046c56060840187620044a5565b9390931660c082015260e00152949350505050565b6001600160a01b0389811682526020820189905287811660408301526060820187905285811660808301526101408201906200471a60a0840187620044a5565b9390931661010082015261012001529695505050505050565b6001600160a01b038b81168252602082018b905289811660408301526060820189905287811660808301526101808201906200477360a0840189620044a5565b95909516610100820152610120810193909352901515610140830152610160909101529695505050505050565b6001600160a01b038c81168252602082018c90528a81166040830152606082018a905288811660808301526101a0820190620047e060a084018a620044a5565b96909616610100820152610120810194909452911515610140840152610160830152610180909101529695505050505050565b6001600160a01b0387168152602080820187905260c060408301528554600091908290600181811c90828116806200484c57607f831692505b8583108114156200486b57634e487b7160e01b87526022600452602487fd5b60c0880183905260e088018180156200488d57600181146200489f57620048cb565b60ff19861682528782019650620048cb565b60008e815260209020895b86811015620048c557815484820152908501908901620048aa565b83019750505b5050505050508092505050620048e5606083018662004482565b608082019390935260a00152949350505050565b600061012060018060a01b038c1683528a60208401528960408401528860608401528760808401528660a08401528560c08401528060e0840152620049418184018662004454565b9150506200495461010083018462004482565b9a9950505050505050505050565b871515815286602082015285604082015284606082015260018060a01b038416608082015260e060a082015260006200499f60e083018562004454565b905062002aa460c083018462004482565b8e15158152602081018e9052604081018d9052606081018c9052608081018b90526001600160a01b038a1660a08201526101c08101620049f460c083018b6200441e565b8860e0830152876101008301528661012083015262004a186101408301876200441e565b8461016083015262004a2f61018083018515159052565b8215156101a08301529f9e505050505050505050505050505050565b60e08152600062004a6160e083018a8c6200442b565b60208301989098525060408101959095526060850193909352608084019190915260a083015260c09091015292915050565b602081526000620036bf602083018462004454565b6020810162000eb8828462004482565b87815286602082015260e06040820152600062004ad960e083018862004454565b905085606083015284608083015260ff841660a08301528260c083015298975050505050505050565b60e08152600062004b1760e083018a62004454565b828103602084015262004b2b818a62004454565b9050828103604084015262004b41818962004454565b60ff979097166060840152505060808101939093526001600160a01b0391821660a08401521660c0909101529392505050565b60608152600062004b89606083018662004454565b828103602084015262004b9d818662004454565b91505060ff83166040830152949350505050565b602080825260139082015272149bdd5d195c8e881cddd85c0819985a5b1959606a1b604082015260600190565b6020808252601290820152710a4deeae8cae47440eee4dedcce40e0c2e8d60731b604082015260600190565b6020808252602b908201527f496e697469616c697a61626c653a20636f6e7472616374206973206e6f74206960408201526a6e697469616c697a696e6760a81b606082015260800190565b602080825260149082015273526f757465723a206f7574206f662072616e676560601b604082015260600190565b8b81526001600160a01b038b1660208201526001600160e01b03198a811660408301526101206060830181905260009162004cc18483018d62004454565b9150838203608085015262004cd8828b8d6200442b565b915080891660a0850152508660c084015282810360e084015262004cfe8186886200442b565b915050826101008301529c9b505050505050505050505050565b8981526001600160a01b03891660208201526001600160e01b031988811660408301526101206060830181905260009162004d568483018b62004454565b9150838203608085015262004d6c828a62004454565b915080881660a0850152508560c084015282810360e084015262004d91818662004454565b915050826101008301529a9950505050505050505050565b84815260806020820152600062004dc4608083018662004454565b905062004dd5604083018562004482565b82606083015295945050505050565b600060c082018883526020888185015260c0604085015281885180845260e086019150828a019350845b8181101562004e355784516001600160a01b03168352938301939183019160010162004e0e565b50506001600160a01b039790971660608501525050506080810192909252151560a0909101529392505050565b604051601f8201601f191681016001600160401b038111828210171562004e8d5762004e8d62004fe2565b604052919050565b60006001600160401b0382111562004eb15762004eb162004fe2565b5060051b60200190565b60006001600160401b0382111562004ed75762004ed762004fe2565b50601f01601f191660200190565b60008262004f0157634e487b7160e01b81526012600452602481fd5b500490565b600081600019048311821515161562004f235762004f2362004fcc565b500290565b60008282101562004f3d5762004f3d62004fcc565b500390565b60005b8381101562004f5f57818101518382015260200162004f45565b838111156200197e5750506000910152565b600181811c9082168062004f8657607f821691505b6020821081141562004fa857634e487b7160e01b600052602260045260246000fd5b50919050565b600060001982141562004fc55762004fc562004fcc565b5060010190565b634e487b7160e01b600052601160045260246000fd5b634e487b7160e01b600052604160045260246000fd5b6001600160a01b038116811462002b6757600080fd5b60ff8116811462002b6757600080fdfe608060405260405162000f2c38038062000f2c8339810160408190526200002691620004e0565b82828282816200005860017f360894a13ba1a3210667c828492db98dca3e2076cc3735a920a3ca505d382bbd6200060f565b60008051602062000ee5833981519152146200008457634e487b7160e01b600052600160045260246000fd5b620000928282600062000105565b50620000c2905060017fb53127684a568b3173ae13b9f8a6016e243e63b6e8ee1178d6a717850b5d61046200060f565b60008051602062000ec583398151915214620000ee57634e487b7160e01b600052600160045260246000fd5b620000f98262000142565b50505050505062000678565b62000110836200019d565b6000825111806200011e5750805b156200013d576200013b8383620001df60201b620002601760201c565b505b505050565b7f7e644d79422f17c01e4894b5f4f588d331ebfa28653d42ae832dc59e38c9798f6200016d6200020e565b604080516001600160a01b03928316815291841660208301520160405180910390a16200019a8162000247565b50565b620001a881620002fc565b6040516001600160a01b038216907fbc7cd75a20ee27fd9adebab32041f755214dbc6bffa90cc0225b39da2e5c2d3b90600090a250565b606062000207838360405180606001604052806027815260200162000f05602791396200039f565b9392505050565b60006200023860008051602062000ec583398151915260001b6200047c60201b620002081760201c565b546001600160a01b0316919050565b6001600160a01b038116620002b25760405162461bcd60e51b815260206004820152602660248201527f455243313936373a206e65772061646d696e20697320746865207a65726f206160448201526564647265737360d01b60648201526084015b60405180910390fd5b80620002db60008051602062000ec583398151915260001b6200047c60201b620002081760201c565b80546001600160a01b0319166001600160a01b039290921691909117905550565b62000312816200047f60201b6200028c1760201c565b620003765760405162461bcd60e51b815260206004820152602d60248201527f455243313936373a206e657720696d706c656d656e746174696f6e206973206e60448201526c1bdd08184818dbdb9d1c9858dd609a1b6064820152608401620002a9565b80620002db60008051602062000ee583398151915260001b6200047c60201b620002081760201c565b6060833b620004005760405162461bcd60e51b815260206004820152602660248201527f416464726573733a2064656c65676174652063616c6c20746f206e6f6e2d636f6044820152651b9d1c9858dd60d21b6064820152608401620002a9565b600080856001600160a01b0316856040516200041d9190620005bc565b600060405180830381855af49150503d80600081146200045a576040519150601f19603f3d011682016040523d82523d6000602084013e6200045f565b606091505b5090925090506200047282828662000485565b9695505050505050565b90565b3b151590565b606083156200049657508162000207565b825115620004a75782518084602001fd5b8160405162461bcd60e51b8152600401620002a99190620005da565b80516001600160a01b0381168114620004db57600080fd5b919050565b600080600060608486031215620004f5578283fd5b6200050084620004c3565b92506200051060208501620004c3565b60408501519092506001600160401b03808211156200052d578283fd5b818601915086601f83011262000541578283fd5b81518181111562000556576200055662000662565b604051601f8201601f19908116603f0116810190838211818310171562000581576200058162000662565b816040528281528960208487010111156200059a578586fd5b620005ad83602083016020880162000633565b80955050505050509250925092565b60008251620005d081846020870162000633565b9190910192915050565b6020815260008251806020840152620005fb81604085016020870162000633565b601f01601f19169190910160400192915050565b6000828210156200062e57634e487b7160e01b81526011600452602481fd5b500390565b60005b838110156200065057818101518382015260200162000636565b838111156200013b5750506000910152565b634e487b7160e01b600052604160045260246000fd5b61083d80620006886000396000f3fe60806040526004361061004e5760003560e01c80633659cfe6146100655780634f1ef286146100855780635c60da1b146100985780638f283970146100c9578063f851a440146100e95761005d565b3661005d5761005b6100fe565b005b61005b6100fe565b34801561007157600080fd5b5061005b61008036600461068e565b610118565b61005b6100933660046106a8565b61015f565b3480156100a457600080fd5b506100ad6101d0565b6040516001600160a01b03909116815260200160405180910390f35b3480156100d557600080fd5b5061005b6100e436600461068e565b61020b565b3480156100f557600080fd5b506100ad610235565b610106610292565b610116610111610331565b61033b565b565b61012061035f565b6001600160a01b0316336001600160a01b031614156101575761015481604051806020016040528060008152506000610380565b50565b6101546100fe565b61016761035f565b6001600160a01b0316336001600160a01b031614156101c8576101c38383838080601f01602080910402602001604051908101604052809392919081815260200183838082843760009201919091525060019250610380915050565b505050565b6101c36100fe565b60006101da61035f565b6001600160a01b0316336001600160a01b03161415610200576101fb610331565b905090565b6102086100fe565b90565b61021361035f565b6001600160a01b0316336001600160a01b0316141561015757610154816103ab565b600061023f61035f565b6001600160a01b0316336001600160a01b03161415610200576101fb61035f565b606061028583836040518060600160405280602781526020016107e1602791396103ff565b9392505050565b3b151590565b61029a61035f565b6001600160a01b0316336001600160a01b031614156101165760405162461bcd60e51b815260206004820152604260248201527f5472616e73706172656e745570677261646561626c6550726f78793a2061646d60448201527f696e2063616e6e6f742066616c6c6261636b20746f2070726f78792074617267606482015261195d60f21b608482015260a4015b60405180910390fd5b60006101fb6104d3565b3660008037600080366000845af43d6000803e80801561035a573d6000f35b3d6000fd5b60006000805160206107a18339815191525b546001600160a01b0316919050565b610389836104e9565b6000825111806103965750805b156101c3576103a58383610260565b50505050565b7f7e644d79422f17c01e4894b5f4f588d331ebfa28653d42ae832dc59e38c9798f6103d461035f565b604080516001600160a01b03928316815291841660208301520160405180910390a161015481610529565b6060833b61045e5760405162461bcd60e51b815260206004820152602660248201527f416464726573733a2064656c65676174652063616c6c20746f206e6f6e2d636f6044820152651b9d1c9858dd60d21b6064820152608401610328565b600080856001600160a01b0316856040516104799190610725565b600060405180830381855af49150503d80600081146104b4576040519150601f19603f3d011682016040523d82523d6000602084013e6104b9565b606091505b50915091506104c98282866105c0565b9695505050505050565b60006000805160206107c1833981519152610371565b6104f2816105f9565b6040516001600160a01b038216907fbc7cd75a20ee27fd9adebab32041f755214dbc6bffa90cc0225b39da2e5c2d3b90600090a250565b6001600160a01b03811661058e5760405162461bcd60e51b815260206004820152602660248201527f455243313936373a206e65772061646d696e20697320746865207a65726f206160448201526564647265737360d01b6064820152608401610328565b806000805160206107a18339815191525b80546001600160a01b0319166001600160a01b039290921691909117905550565b606083156105cf575081610285565b8251156105df5782518084602001fd5b8160405162461bcd60e51b81526004016103289190610741565b803b61065d5760405162461bcd60e51b815260206004820152602d60248201527f455243313936373a206e657720696d706c656d656e746174696f6e206973206e60448201526c1bdd08184818dbdb9d1c9858dd609a1b6064820152608401610328565b806000805160206107c183398151915261059f565b80356001600160a01b038116811461068957600080fd5b919050565b60006020828403121561069f578081fd5b61028582610672565b6000806000604084860312156106bc578182fd5b6106c584610672565b925060208401356001600160401b03808211156106e0578384fd5b818601915086601f8301126106f3578384fd5b813581811115610701578485fd5b876020828501011115610712578485fd5b6020830194508093505050509250925092565b60008251610737818460208701610774565b9190910192915050565b6020815260008251806020840152610760816040850160208701610774565b601f01601f19169190910160400192915050565b60005b8381101561078f578181015183820152602001610777565b838111156103a5575050600091015256feb53127684a568b3173ae13b9f8a6016e243e63b6e8ee1178d6a717850b5d6103360894a13ba1a3210667c828492db98dca3e2076cc3735a920a3ca505d382bbc416464726573733a206c6f772d6c6576656c2064656c65676174652063616c6c206661696c6564a264697066735822122064b11b2157d61600a09abbd0eaeb0a67e43f14e3005703114add6fac6fd353ec64736f6c63430008040033b53127684a568b3173ae13b9f8a6016e243e63b6e8ee1178d6a717850b5d6103360894a13ba1a3210667c828492db98dca3e2076cc3735a920a3ca505d382bbc416464726573733a206c6f772d6c6576656c2064656c65676174652063616c6c206661696c6564a26469706673582212201179a7697b60c223ce597b5e3dabc1561daf7dbea2311fe27d1d1768bff1f3e364736f6c63430008040033",
  "deployedBytecode": "0x608060405260043610620002885760003560e01c8063023e25b41462000295578063068bf87414620002e7578063088302a6146200030e5780630e72e41e1462000335578063171060ec146200036b57806317fcb39b14620003905780631812adb614620003b25780631e7107c714620003d9578063292c1d9214620003fe5780633669391e1462000420578063402e01f8146200043857806349c544e1146200045d5780635002322c146200047457806361849f75146200049957806361be10f214620004be57806361d027b314620004e35780636390802014620005055780636600203d146200051d5780636b2857ef14620005425780636e8adf61146200056757806370872aa514620005a1578063715018a614620005b957806375122f6214620005d15780637ed5574814620005f6578063839ae1d7146200061b5780638be727e114620006325780638da5cb5b14620006575780638e320097146200066f57806390665eca14620006945780639a8a059214620006ab5780639aed427914620006c35780639cbea0ec14620006db5780639eca44531462000715578063a1809b951462000769578063a3696a09146200078e578063a44c2b9a14620007b3578063acc2166a14620007d8578063ae2a74ee14620007fa578063b3ff9f49146200082b578063b4e183f41462000852578063b59589d11462000877578063c805f68b1462000899578063d4603f4c14620008be578063d7b96d4e14620008f8578063d8484ef5146200091a578063da058ae31462000945578063e7650788146200096a578063e91ffefd1462000a28578063ef0e2ff41462000a3f578063f0f442601462000a64578063f2fde38b1462000a89578063f80d19481462000aae57600080fd5b366200029057005b600080fd5b348015620002a257600080fd5b50620002cf620002b436600462003cd7565b609f602052600090815260409020546001600160a01b031681565b604051620002de9190620044dc565b60405180910390f35b348015620002f457600080fd5b506200030c620003063660046200410a565b62000ad3565b005b3480156200031b57600080fd5b506200032662000dda565b604051620002de919062004a93565b3480156200034257600080fd5b506200035a6200035436600462003cd7565b62000e70565b6040519015158152602001620002de565b3480156200037857600080fd5b506200030c6200038a36600462003b8d565b62000ebe565b3480156200039d57600080fd5b5060a954620002cf906001600160a01b031681565b348015620003bf57600080fd5b50620003ca60995481565b604051908152602001620002de565b348015620003e657600080fd5b506200030c620003f836600462003cd7565b62000f33565b3480156200040b57600080fd5b5060ac54620002cf906001600160a01b031681565b3480156200042d57600080fd5b50620003ca609b5481565b3480156200044557600080fd5b50620003266200045736600462003b8d565b62000f8a565b6200030c6200046e36600462003e6b565b62000fa5565b3480156200048157600080fd5b506200030c6200049336600462004053565b62001749565b348015620004a657600080fd5b506200030c620004b836600462004053565b62001984565b348015620004cb57600080fd5b506200030c620004dd36600462003b8d565b62001ba3565b348015620004f057600080fd5b50609d54620002cf906001600160a01b031681565b3480156200051257600080fd5b50620003ca609a5481565b3480156200052a57600080fd5b506200030c6200053c36600462003cd7565b62001bcf565b3480156200054f57600080fd5b506200030c62000561366004620041f9565b62001c3f565b3480156200057457600080fd5b50620002cf6200058636600462003cd7565b60a3602052600090815260409020546001600160a01b031681565b348015620005ae57600080fd5b50620003ca60975481565b348015620005c657600080fd5b506200030c62001c77565b348015620005de57600080fd5b506200030c620005f036600462004220565b62001c83565b3480156200060357600080fd5b506200030c6200061536600462003cd7565b62001d44565b6200030c6200062c36600462003f66565b62001db4565b3480156200063f57600080fd5b506200030c6200065136600462003cd7565b62002213565b3480156200066457600080fd5b50620002cf62002310565b3480156200067c57600080fd5b506200030c6200068e36600462003bcb565b6200231f565b348015620006a157600080fd5b5060a454620003ca565b348015620006b857600080fd5b50620003ca60985481565b348015620006d057600080fd5b50620003ca60a85481565b348015620006e857600080fd5b50620002cf620006fa36600462003b8d565b60ab602052600090815260409020546001600160a01b031681565b3480156200072257600080fd5b50620007596200073436600462003cd7565b60a760205260009081526040902080546001909101546001600160a01b039091169082565b604051620002de9291906200467b565b3480156200077657600080fd5b506200030c6200078836600462003b8d565b62002357565b3480156200079b57600080fd5b506200030c620007ad36600462003b8d565b62002383565b348015620007c057600080fd5b506200035a620007d236600462003cd7565b62002405565b348015620007e557600080fd5b5060aa54620002cf906001600160a01b031681565b3480156200080757600080fd5b50620003ca6200081936600462003b8d565b60a16020526000908152604090205481565b3480156200083857600080fd5b5060a654620002cf9061010090046001600160a01b031681565b3480156200085f57600080fd5b506200030c62000871366004620040b9565b62002424565b3480156200088457600080fd5b50609c54620002cf906001600160a01b031681565b348015620008a657600080fd5b506200030c620008b836600462003b8d565b6200247b565b348015620008cb57600080fd5b50620008e3620008dd36600462003cd7565b620024a7565b604051620002de979695949392919062004962565b3480156200090557600080fd5b50609e54620002cf906001600160a01b031681565b3480156200092757600080fd5b5060a654620009369060ff1681565b604051620002de919062004aa8565b3480156200095257600080fd5b506200030c6200096436600462003b8d565b6200259b565b3480156200097757600080fd5b5062000a0c6200098936600462003cd7565b60a260205260009081526040902080546001820154600283015460038401546004850154600586015460068701546007880154600889015460098a0154600a8b0154600b8c0154600c909c015460ff9b8c169c9a9b999a989997986001600160a01b0397881698968816979596949593949390921692808216916101009004168e565b604051620002de9e9d9c9b9a99989796959493929190620049b0565b620003ca62000a39366004620042a8565b620025c7565b34801562000a4c57600080fd5b506200030c62000a5e36600462003cd7565b62002ab0565b34801562000a7157600080fd5b506200030c62000a8336600462003b8d565b62002abf565b34801562000a9657600080fd5b506200030c62000aa836600462003b8d565b62002aeb565b34801562000abb57600080fd5b506200030c62000acd36600462004342565b62002b6a565b62000add62002d02565b6000818152609f60205260409020546001600160a01b03161562000b3a5760405162461bcd60e51b815260206004820152600f60248201526e149bdd5d195c8e881d5cd959081a59608a1b60448201526064015b60405180910390fd5b600073__$67e4a81169bd42f3bd76691a8cba760d26$__6374c6d02c6040518163ffffffff1660e01b815260040160206040518083038186803b15801562000b8157600080fd5b505af415801562000b96573d6000803e3d6000fd5b505050506040513d601f19601f8201168201806040525081019062000bbc919062003bac565b9050606060008262000bcd62002310565b8360405162000bdc906200384f565b62000bea939291906200450a565b604051809103906000f08015801562000c07573d6000803e3d6000fd5b50604051630b127b6360e11b815290915081906001600160a01b03821690631624f6c69062000c3f908c908c908b9060040162004b74565b600060405180830381600087803b15801562000c5a57600080fd5b505af115801562000c6f573d6000803e3d6000fd5b5050604051634c1d96ab60e11b81526001600160a01b038416925063983b2d56915062000ca1903090600401620044dc565b600060405180830381600087803b15801562000cbc57600080fd5b505af115801562000cd1573d6000803e3d6000fd5b5050604051637a231bdd60e11b81526001600160a01b038416925063f44637ba915062000d03903090600401620044dc565b600060405180830381600087803b15801562000d1e57600080fd5b505af115801562000d33573d6000803e3d6000fd5b5050506000868152609f6020908152604080832080546001600160a01b0319166001600160a01b038716908117909155835260a1825280832089905560a08252909120895162000d89935090918a01906200385d565b507f175ec5a73d18c14429b1199d5fac7097c1c021f98a45d4bcfdeddedfbcc04f3c8989898989868a60405162000dc7979695949392919062004b02565b60405180910390a1505050505050505050565b60a5805462000de99062004f71565b80601f016020809104026020016040519081016040528092919081815260200182805462000e179062004f71565b801562000e685780601f1062000e3c5761010080835404028352916020019162000e68565b820191906000526020600020905b81548152906001019060200180831162000e4a57829003601f168201915b505050505081565b600060a4828154811062000e9457634e487b7160e01b600052603260045260246000fd5b600091825260209091206007909102015460ff1662000eb557600062000eb8565b60015b92915050565b62000ec862002d02565b609e546040517f69253c7023f628e3a302b63087a3bfc1dfdb256780182f81b9f0df9eff9542b09162000f09916001600160a01b03909116908490620044f0565b60405180910390a1609e80546001600160a01b0319166001600160a01b0392909216919091179055565b62000f3d62002d02565b609754811162000f855760405162461bcd60e51b81526020600482015260126024820152712937baba32b91d103637bb90373ab6b132b960711b604482015260640162000b31565b609755565b60a0602052600090815260409020805462000de99062004f71565b62000faf62002d65565b60a654734a00edf7f07ecb48a4a3fd798e0fb79d90ef21a99061010090046001600160a01b0316336001600160a01b0316148062000ff55750336001600160a01b038216145b6200103c5760405162461bcd60e51b81526020600482015260166024820152752937baba32b91d103737ba103a32b632b837b93a32b960511b604482015260640162000b31565b600073__$67e4a81169bd42f3bd76691a8cba760d26$__63e291283d609754609c60009054906101000a90046001600160a01b03168f8f8f8f8f8f8f8f8f6040518c63ffffffff1660e01b8152600401620010a29b9a9998979695949392919062004c83565b60206040518083038186803b158015620010bb57600080fd5b505af4158015620010d0573d6000803e3d6000fd5b505050506040513d601f19601f82011682018060405250810190620010f6919062003cf0565b905060008060008073__$67e4a81169bd42f3bd76691a8cba760d26$__631d8dbb228f8f8860a2609f60a7609954609a546040518963ffffffff1660e01b81526004016200114c98979695949392919062004a4b565b60c06040518083038186803b1580156200116557600080fd5b505af41580156200117a573d6000803e3d6000fd5b505050506040513d601f19601f82011682018060405250810190620011a091906200425a565b600089815260a2602090815260409182902082516101c081018452815460ff90811615158252600183015493820193909352600282015481850152600382015460608201526004808301546080830181905260058401546001600160a01b0390811660a08501526006850154811660c0850152600785015460e08501526008850154610100808601919091526009860154610120860152600a8601548216610140860152600b860154610160860152600c9095015480871615156101808601529490940490941615156101a083015293516340c10f1960e01b8152979b509599509397509195509293918516926340c10f1992620012a39230929091016200467b565b602060405180830381600087803b158015620012be57600080fd5b505af1158015620012d3573d6000803e3d6000fd5b505050506040513d601f19601f82011682018060405250810190620012f9919062003c08565b506200130784838562002dc1565b6040810151620013e95760c081015160405163a9059cbb60e01b81526001600160a01b0384169163a9059cbb9162001345919089906004016200467b565b602060405180830381600087803b1580156200136057600080fd5b505af115801562001375573d6000803e3d6000fd5b505050506040513d601f19601f820116820180604052508101906200139b919062003c08565b507f43c9c64e3d0a7d664252e89fe26c8958a77098900ebf13f7aa95030a371bc4328160c00151868487878b604051620013db9695949392919062004694565b60405180910390a16200172b565b8060a001516001600160a01b0316886000815181106200141957634e487b7160e01b600052603260045260246000fd5b60200260200101516001600160a01b03161480156200148557508061014001516001600160a01b03168860018a5162001453919062004f28565b815181106200147257634e487b7160e01b600052603260045260246000fd5b60200260200101516001600160a01b0316145b620014a45760405162461bcd60e51b815260040162000b319062004bde565b600080620014bf836040015130898661012001518e62002efd565b9150915081156200166e5760985483602001511415620015c0577fed12b1e275b408eb8b01de7d246293c2daf02f98422b51b0af3012463e2a725e8360c001518886848761014001518b8b8f60405162001521989796959493929190620046da565b60405180910390a161014083015160c084015160405163a9059cbb60e01b81526001600160a01b039092169163a9059cbb91620015639185906004016200467b565b602060405180830381600087803b1580156200157e57600080fd5b505af115801562001593573d6000803e3d6000fd5b505050506040513d601f19601f82011682018060405250810190620015b9919062003c08565b5062001728565b7fd3490b493caef9fda8e38731ab561837a55528daf6c18a22a6f8cb04cab4add78360c001518886848761014001518b8b8f8b61018001518c602001518d61016001516040516200161c9b9a99989796959493929190620047a0565b60405180910390a1600088815260a260209081526040909120600c01805461ff00191661010017905583015161014084015160c085015161016086015162001668939291859162003110565b62001728565b7f087246aad20f531629449359af89e65cd0b4a91cc4d101243523be5e95e5df9a8360c0015188868661012001518761014001518b8b8f8b61018001518c60200151604051620016c89a9998979695949392919062004733565b60405180910390a160985483602001511415620017135760c083015160405163a9059cbb60e01b81526001600160a01b0386169163a9059cbb916200156391908b906004016200467b565b600088815260a2602052604090206004018790555b50505b505050505050506200173d6001606555565b50505050505050505050565b6200175362002d65565b6000806000868060200190518101906200176e919062003dcf565b60985460405163111c586160e21b8152939650919450925073__$67e4a81169bd42f3bd76691a8cba760d26$__91634471618491620017bd9160a29188918d918d918d918d9160040162004ab8565b60006040518083038186803b158015620017d657600080fd5b505af4158015620017eb573d6000803e3d6000fd5b505050600084815260a26020526040908190206005810154600491820154925163095ea7b360e01b81526001600160a01b03909116935063095ea7b39262001836923092016200467b565b602060405180830381600087803b1580156200185157600080fd5b505af115801562001866573d6000803e3d6000fd5b505050506040513d601f19601f820116820180604052508101906200188c919062003c08565b50600083815260a2602081815260408084206005808201546001600160a01b0316865260a1845291852054888652939092526004909101546200190b928492909190869060ff891690811115620018f357634e487b7160e01b600052602160045260246000fd5b604080516000808252602082019092528190620025c7565b90507ff76a6a96aa9a9cff016e5ffb555412e8c8743b825e6c537a6bca10befa4b446e81838560ff1660058111156200195457634e487b7160e01b600052602160045260246000fd5b8760405162001967949392919062004da9565b60405180910390a1505050506200197e6001606555565b50505050565b6200198e62002d65565b60008060008087806020019051810190620019aa919062003d09565b935093509350935073__$67e4a81169bd42f3bd76691a8cba760d26$__634471618460a2868b8b8b8b6098546040518863ffffffff1660e01b8152600401620019fa979695949392919062004ab8565b60006040518083038186803b15801562001a1357600080fd5b505af415801562001a28573d6000803e3d6000fd5b505050600085815260a26020908152604080832081516101c081018352815460ff9081161515825260018301549482019490945260028201549281018390526003820154606082015260048201546080820181905260058301546001600160a01b0390811660a08401526006840154811660c0840152600784015460e08401526008840154610100808501919091526009850154610120850152600a850154909116610140840152600b840154610160840152600c9093015480861615156101808401529290920490931615156101a0840152919350829162001b1091903090898862002efd565b915091508162001b345760405162461bcd60e51b815260040162000b319062004bb1565b62001b508360200151846101400151838660c001518962003110565b60408051828152602081018790529081018890527f64fc09f9e8dcdc8ecd7d35e2904cc6f206a86b3ea10f43b218807b2333efa0579060600160405180910390a1505050505050506200197e6001606555565b62001bad62002d02565b60ac80546001600160a01b0319166001600160a01b0392909216919091179055565b62001bd962002d02565b80612710101562001bfe5760405162461bcd60e51b815260040162000b319062004c55565b609a5460408051918252602082018390527f44c6802691f6adea249930369a511db979a5e9a3603bdb37ceee1036da80e980910160405180910390a1609a55565b62001c4962002d02565b600091825260a3602052604090912080546001600160a01b0319166001600160a01b03909216919091179055565b62001c8162002d02565b565b62001c8d62002d02565b600083815260a76020908152604091829020805460019091015483518781526001600160a01b039283169381019390935282840152841660608201526080810183905290517f23385740814648db624aa52a0c990fc42def14e1b04e7fe5b2bf87b85e1294529181900360a00190a16040805180820182526001600160a01b0393841681526020808201938452600095865260a790529320925183546001600160a01b031916921691909117825551600190910155565b62001d4e62002d02565b80612710101562001d735760405162461bcd60e51b815260040162000b319062004c55565b60995460408051918252602082018390527f7d205f60891f60851c61cd244ba387d72b6589e7c0ac41b9d909ab0ce2c2a53b910160405180910390a1609955565b62001dbe62002d65565b609e546001600160a01b0316336001600160a01b03161462001e185760405162461bcd60e51b81526020600482015260126024820152712937baba32b91d103737ba103637b1b5b2b960711b604482015260640162000b31565b609754609c5460405163e291283d60e01b815260009273__$67e4a81169bd42f3bd76691a8cba760d26$__9263e291283d9262001e7192916001600160a01b0316908e908e908e908e908e908e908e9060040162004d18565b60206040518083038186803b15801562001e8a57600080fd5b505af415801562001e9f573d6000803e3d6000fd5b505050506040513d601f19601f8201168201806040525081019062001ec5919062003cf0565b905060005b8251811015620021fc5760a483828151811062001ef757634e487b7160e01b600052603260045260246000fd5b60200260200101518154811062001f1e57634e487b7160e01b600052603260045260246000fd5b600091825260209091206007909102015460ff161562001f7d5760405162461bcd60e51b8152602060048201526019602482015278149bdd5d195c8e88185b1c9958591e481c1c9bd8d95cdcd959603a1b604482015260640162000b31565b600160a484838151811062001fa257634e487b7160e01b600052603260045260246000fd5b60200260200101518154811062001fc957634e487b7160e01b600052603260045260246000fd5b906000526020600020906007020160000160006101000a81548160ff0219169083151502179055507f3922cf2b1e70997609e6dbe5a0af9360f827a7ef03e3f6cf8728e23afa52ba8260a48483815181106200203557634e487b7160e01b600052603260045260246000fd5b6020026020010151815481106200205c57634e487b7160e01b600052603260045260246000fd5b906000526020600020906007020160040160009054906101000a90046001600160a01b031660a4858481518110620020a457634e487b7160e01b600052603260045260246000fd5b602002602001015181548110620020cb57634e487b7160e01b600052603260045260246000fd5b90600052602060002090600702016002015460a48685815181106200210057634e487b7160e01b600052603260045260246000fd5b6020026020010151815481106200212757634e487b7160e01b600052603260045260246000fd5b906000526020600020906007020160050160a48786815181106200215b57634e487b7160e01b600052603260045260246000fd5b6020026020010151815481106200218257634e487b7160e01b600052603260045260246000fd5b906000526020600020906007020160060160009054906101000a900460ff16878681518110620021c257634e487b7160e01b600052603260045260246000fd5b602002602001015187604051620021df9695949392919062004813565b60405180910390a180620021f38162004fae565b91505062001eca565b5050620022096001606555565b5050505050505050565b6200221d62002d02565b6000818152609f60205260409020546001600160a01b031680620022775760405162461bcd60e51b815260206004820152601060248201526f2937baba32b91d103737903a37b5b2b760811b604482015260640162000b31565b604080518381526001600160a01b03831660208201527ff61991393940604b8433d5f9a855624b8452e131d66e476a45c7139651df9699910160405180910390a16001600160a01b038116600090815260a060205260408120620022db91620038ec565b6001600160a01b0316600090815260a160209081526040808320839055928252609f90522080546001600160a01b0319169055565b6033546001600160a01b031690565b6200232962002d02565b6001600160a01b03918216600090815260ab6020526040902080546001600160a01b03191691909216179055565b6200236162002d02565b60aa80546001600160a01b0319166001600160a01b0392909216919091179055565b6200238d62002d02565b7f150b77d21bd499fd0dccea9fe32513c7b65aa34ccde41e7dafac74ace8e19c9460a660019054906101000a90046001600160a01b031682604051620023d5929190620044f0565b60405180910390a160a680546001600160a01b0390921661010002610100600160a81b0319909216919091179055565b600081815260a2602052604081205460ff1662000eb557600062000eb8565b6200242e62002d02565b8151620024439060a59060208501906200385d565b5060a6805482919060ff191660018360058111156200247257634e487b7160e01b600052602160045260246000fd5b02179055505050565b6200248562002d02565b609c80546001600160a01b0319166001600160a01b0392909216919091179055565b60a48181548110620024b857600080fd5b600091825260209091206007909102018054600182015460028301546003840154600485015460058601805460ff90961697509395929491936001600160a01b039091169291620025099062004f71565b80601f0160208091040260200160405190810160405280929190818152602001828054620025379062004f71565b8015620025885780601f106200255c5761010080835404028352916020019162002588565b820191906000526020600020905b8154815290600101906020018083116200256a57829003601f168201915b5050506006909301549192505060ff1687565b620025a562002d02565b60a980546001600160a01b0319166001600160a01b0392909216919091179055565b6000620025d362002d65565b6000888152609f60205260409020546001600160a01b031680620026325760405162461bcd60e51b8152602060048201526015602482015274149bdd5d195c8e881b9bdd081cdd5c1c1bdc9d1959605a1b604482015260640162000b31565b825115620028aa57806001600160a01b0316836001855162002655919062004f28565b815181106200267457634e487b7160e01b600052603260045260246000fd5b60200260200101516001600160a01b031614620026a55760405162461bcd60e51b815260040162000b319062004bde565b3415620027b4578334148015620026f6575082600081518110620026d957634e487b7160e01b600052603260045260246000fd5b602090810291909101015160a9546001600160a01b039081169116145b620027435760405162461bcd60e51b815260206004820152601c60248201527b2937baba32b91d103bb937b733903b30b63ab29037b9103a37b5b2b760211b604482015260640162000b31565b60a960009054906101000a90046001600160a01b03166001600160a01b031663d0e30db0856040518263ffffffff1660e01b81526004016000604051808303818588803b1580156200279457600080fd5b505af1158015620027a9573d6000803e3d6000fd5b50505050506200286e565b82600081518110620027d657634e487b7160e01b600052603260045260246000fd5b60200260200101516001600160a01b03166323b872dd620027f43390565b30876040518463ffffffff1660e01b8152600401620028169392919062004541565b602060405180830381600087803b1580156200283157600080fd5b505af115801562002846573d6000803e3d6000fd5b505050506040513d601f19601f820116820180604052508101906200286c919062003c08565b505b60006200287f8630878c8862002efd565b9950905080620028a35760405162461bcd60e51b815260040162000b319062004bb1565b506200297a565b6040516323b872dd60e01b81526001600160a01b038216906323b872dd90620028dc90339030908d9060040162004541565b602060405180830381600087803b158015620028f757600080fd5b505af11580156200290c573d6000803e3d6000fd5b505050506040513d601f19601f8201168201806040525081019062002932919062003c08565b6200297a5760405162461bcd60e51b8152602060048201526017602482015276149bdd5d195c8e881d1c985b9cd9995c8819985a5b1959604a1b604482015260640162000b31565b620029846200392b565b6000620029958c848c8c8c6200325d565b8751909650919350915062002a09577f7ded23d6204f0918dc93f275df51659538e59e8aaf5698ce1f49180c22857b53338a8a868e8988600089600160a480549050620029e3919062004f28565b604051620029fb9a9998979695949392919062004565565b60405180910390a162002a96565b7fe17d30e84f141d5effc904ed29262988eb565f53a8c01270148776b88451bb71338a8a898960008151811062002a5057634e487b7160e01b600052603260045260246000fd5b60200260200101518f8a8a8a60008b600160a48054905062002a73919062004f28565b60405162002a8d9c9b9a99989796959493929190620045e9565b60405180910390a15b50505062002aa46001606555565b98975050505050505050565b62002aba62002d02565b609855565b62002ac962002d02565b609d80546001600160a01b0319166001600160a01b0392909216919091179055565b62002af562002d02565b6001600160a01b03811662002b5c5760405162461bcd60e51b815260206004820152602660248201527f4f776e61626c653a206e6577206f776e657220697320746865207a65726f206160448201526564647265737360d01b606482015260840162000b31565b62002b6781620033c2565b50565b600054610100900460ff161580801562002b8b5750600054600160ff909116105b8062002ba75750303b15801562002ba7575060005460ff166001145b62002c0c5760405162461bcd60e51b815260206004820152602e60248201527f496e697469616c697a61626c653a20636f6e747261637420697320616c72656160448201526d191e481a5b9a5d1a585b1a5e995960921b606482015260840162000b31565b6000805460ff19166001179055801562002c30576000805461ff0019166101001790555b62002c3a62003414565b62002c4462003448565b609889905562002c548c62000f33565b62002c5f8b62001d44565b62002c6a8a62001bcf565b62002c75886200247b565b62002c808762000ebe565b62002c8c868662002424565b62002c978462002383565b62002ca28362002abf565b62002cad826200259b565b801562002cf4576000805461ff0019169055604051600181527f7f26b83ff96e1f2b6a682f133852f6798a09c465da95921460cefb38474024989060200160405180910390a15b505050505050505050505050565b3362002d0d62002310565b6001600160a01b03161462001c815760405162461bcd60e51b815260206004820181905260248201527f4f776e61626c653a2063616c6c6572206973206e6f7420746865206f776e6572604482015260640162000b31565b6002606554141562002dba5760405162461bcd60e51b815260206004820152601f60248201527f5265656e7472616e637947756172643a207265656e7472616e742063616c6c00604482015260640162000b31565b6002606555565b609d54835160405163a9059cbb60e01b81526001600160a01b038581169363a9059cbb9362002df89392909116916004016200467b565b602060405180830381600087803b15801562002e1357600080fd5b505af115801562002e28573d6000803e3d6000fd5b505050506040513d601f19601f8201168201806040525081019062002e4e919062003c08565b5062002e5f8360200151836200347c565b6001600160a01b0381161562002ef857604080840151905163a9059cbb60e01b81526001600160a01b0384169163a9059cbb9162002ea29185916004016200467b565b602060405180830381600087803b15801562002ebd57600080fd5b505af115801562002ed2573d6000803e3d6000fd5b505050506040513d601f19601f820116820180604052508101906200197e919062003c08565b505050565b600085815260a3602052604081205481906001600160a01b03168062002f5e5760405162461bcd60e51b8152602060048201526015602482015274149bdd5d195c8e881a5b9d985b1a5908185c1c1259605a1b604482015260640162000b31565b8360008151811062002f8057634e487b7160e01b600052603260045260246000fd5b60200260200101516001600160a01b031663095ea7b382886040518363ffffffff1660e01b815260040162002fb79291906200467b565b602060405180830381600087803b15801562002fd257600080fd5b505af115801562002fe7573d6000803e3d6000fd5b505050506040513d601f19601f820116820180604052508101906200300d919062003c08565b5060606001600160a01b03821663b0bbcd888860646200302f8a605062004f06565b6200303b919062004ee5565b888c4260016040518763ffffffff1660e01b8152600401620030639695949392919062004de4565b600060405180830381600087803b1580156200307e57600080fd5b505af115801562003093573d6000803e3d6000fd5b505050506040513d6000823e601f3d908101601f19168201604052620030bd919081019062003c25565b9094509050831562003104578060018251620030da919062004f28565b81518110620030f957634e487b7160e01b600052603260045260246000fd5b602002602001015192505b50509550959350505050565b60ac5460405163095ea7b360e01b81526001600160a01b038681169263095ea7b39262003146929091169087906004016200467b565b602060405180830381600087803b1580156200316157600080fd5b505af115801562003176573d6000803e3d6000fd5b505050506040513d601f19601f820116820180604052508101906200319c919062003c08565b5060ac54604051631186ec3360e01b81526001600160a01b03848116600483015286811660248301526044820186905260648201889052600784900b608483015263ffffffff421660a483015261010060c4830152600261010483015261060f60f31b61012483015260001960e483015290911690631186ec339061014401600060405180830381600087803b1580156200323657600080fd5b505af11580156200324b573d6000803e3d6000fd5b505050505050505050565b6001606555565b620032676200392b565b60008073__$67e4a81169bd42f3bd76691a8cba760d26$__6394d8bc6a33609954609a5460a460a78e8d8d8d6040518a63ffffffff1660e01b8152600401620032b999989796959493929190620048f9565b60a06040518083038186803b158015620032d257600080fd5b505af4158015620032e7573d6000803e3d6000fd5b505050506040513d601f19601f820116820180604052508101906200330d9190620041b4565b609b805493965091945092506000620033268362004fae565b91905055506200333883888462002dc1565b604051630852cd8d60e31b8152600481018290526001600160a01b038816906342966c6890602401602060405180830381600087803b1580156200337b57600080fd5b505af115801562003390573d6000803e3d6000fd5b505050506040513d601f19601f82011682018060405250810190620033b6919062003c08565b50955095509592505050565b603380546001600160a01b038381166001600160a01b0319831681179093556040519116919082907f8be0079c531659141344cd1fd0a4f28419497f9722a3daafe3b4186f6b6457e090600090a35050565b600054610100900460ff166200343e5760405162461bcd60e51b815260040162000b319062004c0a565b62001c816200361c565b600054610100900460ff16620034725760405162461bcd60e51b815260040162000b319062004c0a565b62001c8162003651565b8115620036185760aa546001600160a01b03166200352057609e5460405163a9059cbb60e01b81526001600160a01b038381169263a9059cbb92620034ca929091169086906004016200467b565b602060405180830381600087803b158015620034e557600080fd5b505af1158015620034fa573d6000803e3d6000fd5b505050506040513d601f19601f8201168201806040525081019062002ef8919062003c08565b60aa5460405163095ea7b360e01b81526001600160a01b038381169263095ea7b39262003556929091169086906004016200467b565b602060405180830381600087803b1580156200357157600080fd5b505af115801562003586573d6000803e3d6000fd5b505050506040513d601f19601f82011682018060405250810190620035ac919062003c08565b5060aa546001600160a01b03828116600090815260ab60205260409081902054905162002ef893831692620035e892169086906024016200467b565b60408051601f198184030181529190526020810180516001600160e01b0316637db4e28f60e01b1790526200367b565b5050565b600054610100900460ff16620036465760405162461bcd60e51b815260040162000b319062004c0a565b62001c8133620033c2565b600054610100900460ff16620032565760405162461bcd60e51b815260040162000b319062004c0a565b6060620036bf83836040518060400160405280601e81526020017f416464726573733a206c6f772d6c6576656c2063616c6c206661696c65640000815250620036c6565b9392505050565b6060620036d78484600085620036df565b949350505050565b606082471015620037425760405162461bcd60e51b815260206004820152602660248201527f416464726573733a20696e73756666696369656e742062616c616e636520666f6044820152651c8818d85b1b60d21b606482015260840162000b31565b843b620037925760405162461bcd60e51b815260206004820152601d60248201527f416464726573733a2063616c6c20746f206e6f6e2d636f6e7472616374000000604482015260640162000b31565b600080866001600160a01b03168587604051620037b09190620044be565b60006040518083038185875af1925050503d8060008114620037ef576040519150601f19603f3d011682016040523d82523d6000602084013e620037f4565b606091505b50915091506200380682828662003811565b979650505050505050565b6060831562003822575081620036bf565b825115620038335782518084602001fd5b8160405162461bcd60e51b815260040162000b31919062004a93565b610f2c806200501f83390190565b8280546200386b9062004f71565b90600052602060002090601f0160209004810192826200388f5760008555620038da565b82601f10620038aa57805160ff1916838001178555620038da565b82800160010185558215620038da579182015b82811115620038da578251825591602001919060010190620038bd565b50620038e89291506200394c565b5090565b508054620038fa9062004f71565b6000825580601f106200390b575050565b601f01602090049060005260206000209081019062002b6791906200394c565b60405180606001604052806000815260200160008152602001600081525090565b5b80821115620038e857600081556001016200394d565b8035620039708162004ff8565b919050565b600082601f83011262003986578081fd5b813560206200399f620039998362004e95565b62004e62565b80838252828201915082860187848660051b8901011115620039bf578586fd5b855b85811015620039ea578135620039d78162004ff8565b84529284019290840190600101620039c1565b5090979650505050505050565b600082601f83011262003a08578081fd5b8135602062003a1b620039998362004e95565b80838252828201915082860187848660051b890101111562003a3b578586fd5b855b85811015620039ea5781358452928401929084019060010162003a3d565b805180151581146200397057600080fd5b80356001600160e01b0319811681146200397057600080fd5b60008083601f84011262003a97578182fd5b5081356001600160401b0381111562003aae578182fd5b60208301915083602082850101111562003ac757600080fd5b9250929050565b600082601f83011262003adf578081fd5b813562003af0620039998262004ebb565b81815284602083860101111562003b05578283fd5b816020850160208301379081016020019190915292915050565b8035600681106200397057600080fd5b60006060828403121562003b41578081fd5b604051606081016001600160401b038111828210171562003b665762003b6662004fe2565b80604052508091508251815260208301516020820152604083015160408201525092915050565b60006020828403121562003b9f578081fd5b8135620036bf8162004ff8565b60006020828403121562003bbe578081fd5b8151620036bf8162004ff8565b6000806040838503121562003bde578081fd5b823562003beb8162004ff8565b9150602083013562003bfd8162004ff8565b809150509250929050565b60006020828403121562003c1a578081fd5b620036bf8262003a5b565b6000806040838503121562003c38578182fd5b62003c438362003a5b565b602084810151919350906001600160401b0381111562003c61578283fd5b8401601f8101861362003c72578283fd5b805162003c83620039998262004e95565b80828252848201915084840189868560051b870101111562003ca3578687fd5b8694505b8385101562003cc757805183526001949094019391850191850162003ca7565b5080955050505050509250929050565b60006020828403121562003ce9578081fd5b5035919050565b60006020828403121562003d02578081fd5b5051919050565b6000806000806080858703121562003d1f578182fd5b8451602080870151604088015160608901519397509095509350906001600160401b0381111562003d4e578283fd5b8601601f8101881362003d5f578283fd5b805162003d70620039998262004e95565b8082825284820191508484018b868560051b870101111562003d90578687fd5b8694505b8385101562003dbf57805162003daa8162004ff8565b83526001949094019391850191850162003d94565b50979a9699509497505050505050565b60008060006060848603121562003de4578081fd5b83519250602084015162003df8816200500e565b60408501519092506001600160401b0381111562003e14578182fd5b8401601f8101861362003e25578182fd5b805162003e36620039998262004ebb565b81815287602083850101111562003e4b578384fd5b62003e5e82602083016020860162004f42565b8093505050509250925092565b6000806000806000806000806000806101008b8d03121562003e8b578788fd5b62003e968b62003a6c565b995060208b01356001600160401b038082111562003eb257898afd5b62003ec08e838f0162003ace565b9a5060408d013591508082111562003ed657898afd5b62003ee48e838f0162003a85565b909a50985088915062003efa60608e0162003a6c565b975060808d0135965060a08d013591508082111562003f17578586fd5b62003f258e838f0162003a85565b909650945060c08d0135935060e08d013591508082111562003f45578283fd5b5062003f548d828e0162003975565b9150509295989b9194979a5092959850565b600080600080600080600080610100898b03121562003f83578182fd5b62003f8e8962003a6c565b975060208901356001600160401b038082111562003faa578384fd5b62003fb88c838d0162003ace565b985060408b013591508082111562003fce578384fd5b62003fdc8c838d0162003ace565b975062003fec60608c0162003a6c565b965060808b0135955060a08b013591508082111562004009578384fd5b620040178c838d0162003ace565b945060c08b0135935060e08b013591508082111562004034578283fd5b50620040438b828c01620039f7565b9150509295985092959890939650565b6000806000806080858703121562004069578182fd5b84356001600160401b038111156200407f578283fd5b6200408d8782880162003ace565b94505060208501359250604085013591506060850135620040ae816200500e565b939692955090935050565b60008060408385031215620040cc578182fd5b82356001600160401b03811115620040e2578283fd5b620040f08582860162003ace565b925050620041016020840162003b1f565b90509250929050565b600080600080600060a0868803121562004122578283fd5b85356001600160401b038082111562004139578485fd5b6200414789838a0162003ace565b965060208801359150808211156200415d578485fd5b6200416b89838a0162003ace565b9550604088013591508082111562004181578485fd5b50620041908882890162003ace565b9350506060860135620041a3816200500e565b949793965091946080013592915050565b600080600060a08486031215620041c9578081fd5b620041d5858562003b2f565b92506060840151620041e78162004ff8565b80925050608084015190509250925092565b600080604083850312156200420c578182fd5b82359150602083013562003bfd8162004ff8565b60008060006060848603121562004235578081fd5b833592506020840135620042498162004ff8565b929592945050506040919091013590565b60008060008060c0858703121562004270578182fd5b8451935062004283866020870162003b2f565b92506080850151620042958162004ff8565b60a0860151909250620040ae8162004ff8565b600080600080600080600080610100898b031215620042c5578182fd5b88359750602089013596506040890135955060608901356001600160401b0380821115620042f1578384fd5b620042ff8c838d0162003ace565b96506200430f60808c0162003b1f565b955060a08b0135945060c08b0135935060e08b013591508082111562004333578283fd5b50620040438b828c0162003975565b60008060008060008060008060008060006101608c8e03121562004364578485fd5b8b359a5060208c0135995060408c0135985060608c0135975060808c01356200438d8162004ff8565b965060a08c01356200439f8162004ff8565b955060c08c01356001600160401b03811115620043ba578586fd5b620043c88e828f0162003ace565b955050620043d960e08d0162003b1f565b9350620043ea6101008d0162003963565b9250620043fb6101208d0162003963565b91506200440c6101408d0162003963565b90509295989b509295989b9093969950565b6001600160a01b03169052565b81835281816020850137506000828201602090810191909152601f909101601f19169091010190565b600081518084526200446e81602086016020860162004f42565b601f01601f19169290920160200192915050565b60068110620044a157634e487b7160e01b600052602160045260246000fd5b9052565b8051825260208082015190830152604090810151910152565b60008251620044d281846020870162004f42565b9190910192915050565b6001600160a01b0391909116815260200190565b6001600160a01b0392831681529116602082015260400190565b6001600160a01b03848116825283166020820152606060408201819052600090620045389083018462004454565b95945050505050565b6001600160a01b039384168152919092166020820152604081019190915260600190565b6001600160a01b038b81168252610180602083018190526000916200458d8483018e62004454565b92506200459e604085018d62004482565b808b1660608501528960808501528860a0850152620045c160c0850189620044a5565b866101208501528086166101408501525050826101608301529b9a5050505050505050505050565b600060018060a01b03808f1683526101c060208401526200460f6101c084018f62004454565b915062004620604084018e62004482565b8b6060840152808b1660808401528960a08401528860c084015280881660e084015262004652610100840188620044a5565b8561016084015280851661018084015250826101a08301529d9c50505050505050505050505050565b6001600160a01b03929092168252602082015260400190565b6001600160a01b038781168252602082018790528581166040830152610100820190620046c56060840187620044a5565b9390931660c082015260e00152949350505050565b6001600160a01b0389811682526020820189905287811660408301526060820187905285811660808301526101408201906200471a60a0840187620044a5565b9390931661010082015261012001529695505050505050565b6001600160a01b038b81168252602082018b905289811660408301526060820189905287811660808301526101808201906200477360a0840189620044a5565b95909516610100820152610120810193909352901515610140830152610160909101529695505050505050565b6001600160a01b038c81168252602082018c90528a81166040830152606082018a905288811660808301526101a0820190620047e060a084018a620044a5565b96909616610100820152610120810194909452911515610140840152610160830152610180909101529695505050505050565b6001600160a01b0387168152602080820187905260c060408301528554600091908290600181811c90828116806200484c57607f831692505b8583108114156200486b57634e487b7160e01b87526022600452602487fd5b60c0880183905260e088018180156200488d57600181146200489f57620048cb565b60ff19861682528782019650620048cb565b60008e815260209020895b86811015620048c557815484820152908501908901620048aa565b83019750505b5050505050508092505050620048e5606083018662004482565b608082019390935260a00152949350505050565b600061012060018060a01b038c1683528a60208401528960408401528860608401528760808401528660a08401528560c08401528060e0840152620049418184018662004454565b9150506200495461010083018462004482565b9a9950505050505050505050565b871515815286602082015285604082015284606082015260018060a01b038416608082015260e060a082015260006200499f60e083018562004454565b905062002aa460c083018462004482565b8e15158152602081018e9052604081018d9052606081018c9052608081018b90526001600160a01b038a1660a08201526101c08101620049f460c083018b6200441e565b8860e0830152876101008301528661012083015262004a186101408301876200441e565b8461016083015262004a2f61018083018515159052565b8215156101a08301529f9e505050505050505050505050505050565b60e08152600062004a6160e083018a8c6200442b565b60208301989098525060408101959095526060850193909352608084019190915260a083015260c09091015292915050565b602081526000620036bf602083018462004454565b6020810162000eb8828462004482565b87815286602082015260e06040820152600062004ad960e083018862004454565b905085606083015284608083015260ff841660a08301528260c083015298975050505050505050565b60e08152600062004b1760e083018a62004454565b828103602084015262004b2b818a62004454565b9050828103604084015262004b41818962004454565b60ff979097166060840152505060808101939093526001600160a01b0391821660a08401521660c0909101529392505050565b60608152600062004b89606083018662004454565b828103602084015262004b9d818662004454565b91505060ff83166040830152949350505050565b602080825260139082015272149bdd5d195c8e881cddd85c0819985a5b1959606a1b604082015260600190565b6020808252601290820152710a4deeae8cae47440eee4dedcce40e0c2e8d60731b604082015260600190565b6020808252602b908201527f496e697469616c697a61626c653a20636f6e7472616374206973206e6f74206960408201526a6e697469616c697a696e6760a81b606082015260800190565b602080825260149082015273526f757465723a206f7574206f662072616e676560601b604082015260600190565b8b81526001600160a01b038b1660208201526001600160e01b03198a811660408301526101206060830181905260009162004cc18483018d62004454565b9150838203608085015262004cd8828b8d6200442b565b915080891660a0850152508660c084015282810360e084015262004cfe8186886200442b565b915050826101008301529c9b505050505050505050505050565b8981526001600160a01b03891660208201526001600160e01b031988811660408301526101206060830181905260009162004d568483018b62004454565b9150838203608085015262004d6c828a62004454565b915080881660a0850152508560c084015282810360e084015262004d91818662004454565b915050826101008301529a9950505050505050505050565b84815260806020820152600062004dc4608083018662004454565b905062004dd5604083018562004482565b82606083015295945050505050565b600060c082018883526020888185015260c0604085015281885180845260e086019150828a019350845b8181101562004e355784516001600160a01b03168352938301939183019160010162004e0e565b50506001600160a01b039790971660608501525050506080810192909252151560a0909101529392505050565b604051601f8201601f191681016001600160401b038111828210171562004e8d5762004e8d62004fe2565b604052919050565b60006001600160401b0382111562004eb15762004eb162004fe2565b5060051b60200190565b60006001600160401b0382111562004ed75762004ed762004fe2565b50601f01601f191660200190565b60008262004f0157634e487b7160e01b81526012600452602481fd5b500490565b600081600019048311821515161562004f235762004f2362004fcc565b500290565b60008282101562004f3d5762004f3d62004fcc565b500390565b60005b8381101562004f5f57818101518382015260200162004f45565b838111156200197e5750506000910152565b600181811c9082168062004f8657607f821691505b6020821081141562004fa857634e487b7160e01b600052602260045260246000fd5b50919050565b600060001982141562004fc55762004fc562004fcc565b5060010190565b634e487b7160e01b600052601160045260246000fd5b634e487b7160e01b600052604160045260246000fd5b6001600160a01b038116811462002b6757600080fd5b60ff8116811462002b6757600080fdfe608060405260405162000f2c38038062000f2c8339810160408190526200002691620004e0565b82828282816200005860017f360894a13ba1a3210667c828492db98dca3e2076cc3735a920a3ca505d382bbd6200060f565b60008051602062000ee5833981519152146200008457634e487b7160e01b600052600160045260246000fd5b620000928282600062000105565b50620000c2905060017fb53127684a568b3173ae13b9f8a6016e243e63b6e8ee1178d6a717850b5d61046200060f565b60008051602062000ec583398151915214620000ee57634e487b7160e01b600052600160045260246000fd5b620000f98262000142565b50505050505062000678565b62000110836200019d565b6000825111806200011e5750805b156200013d576200013b8383620001df60201b620002601760201c565b505b505050565b7f7e644d79422f17c01e4894b5f4f588d331ebfa28653d42ae832dc59e38c9798f6200016d6200020e565b604080516001600160a01b03928316815291841660208301520160405180910390a16200019a8162000247565b50565b620001a881620002fc565b6040516001600160a01b038216907fbc7cd75a20ee27fd9adebab32041f755214dbc6bffa90cc0225b39da2e5c2d3b90600090a250565b606062000207838360405180606001604052806027815260200162000f05602791396200039f565b9392505050565b60006200023860008051602062000ec583398151915260001b6200047c60201b620002081760201c565b546001600160a01b0316919050565b6001600160a01b038116620002b25760405162461bcd60e51b815260206004820152602660248201527f455243313936373a206e65772061646d696e20697320746865207a65726f206160448201526564647265737360d01b60648201526084015b60405180910390fd5b80620002db60008051602062000ec583398151915260001b6200047c60201b620002081760201c565b80546001600160a01b0319166001600160a01b039290921691909117905550565b62000312816200047f60201b6200028c1760201c565b620003765760405162461bcd60e51b815260206004820152602d60248201527f455243313936373a206e657720696d706c656d656e746174696f6e206973206e60448201526c1bdd08184818dbdb9d1c9858dd609a1b6064820152608401620002a9565b80620002db60008051602062000ee583398151915260001b6200047c60201b620002081760201c565b6060833b620004005760405162461bcd60e51b815260206004820152602660248201527f416464726573733a2064656c65676174652063616c6c20746f206e6f6e2d636f6044820152651b9d1c9858dd60d21b6064820152608401620002a9565b600080856001600160a01b0316856040516200041d9190620005bc565b600060405180830381855af49150503d80600081146200045a576040519150601f19603f3d011682016040523d82523d6000602084013e6200045f565b606091505b5090925090506200047282828662000485565b9695505050505050565b90565b3b151590565b606083156200049657508162000207565b825115620004a75782518084602001fd5b8160405162461bcd60e51b8152600401620002a99190620005da565b80516001600160a01b0381168114620004db57600080fd5b919050565b600080600060608486031215620004f5578283fd5b6200050084620004c3565b92506200051060208501620004c3565b60408501519092506001600160401b03808211156200052d578283fd5b818601915086601f83011262000541578283fd5b81518181111562000556576200055662000662565b604051601f8201601f19908116603f0116810190838211818310171562000581576200058162000662565b816040528281528960208487010111156200059a578586fd5b620005ad83602083016020880162000633565b80955050505050509250925092565b60008251620005d081846020870162000633565b9190910192915050565b6020815260008251806020840152620005fb81604085016020870162000633565b601f01601f19169190910160400192915050565b6000828210156200062e57634e487b7160e01b81526011600452602481fd5b500390565b60005b838110156200065057818101518382015260200162000636565b838111156200013b5750506000910152565b634e487b7160e01b600052604160045260246000fd5b61083d80620006886000396000f3fe60806040526004361061004e5760003560e01c80633659cfe6146100655780634f1ef286146100855780635c60da1b146100985780638f283970146100c9578063f851a440146100e95761005d565b3661005d5761005b6100fe565b005b61005b6100fe565b34801561007157600080fd5b5061005b61008036600461068e565b610118565b61005b6100933660046106a8565b61015f565b3480156100a457600080fd5b506100ad6101d0565b6040516001600160a01b03909116815260200160405180910390f35b3480156100d557600080fd5b5061005b6100e436600461068e565b61020b565b3480156100f557600080fd5b506100ad610235565b610106610292565b610116610111610331565b61033b565b565b61012061035f565b6001600160a01b0316336001600160a01b031614156101575761015481604051806020016040528060008152506000610380565b50565b6101546100fe565b61016761035f565b6001600160a01b0316336001600160a01b031614156101c8576101c38383838080601f01602080910402602001604051908101604052809392919081815260200183838082843760009201919091525060019250610380915050565b505050565b6101c36100fe565b60006101da61035f565b6001600160a01b0316336001600160a01b03161415610200576101fb610331565b905090565b6102086100fe565b90565b61021361035f565b6001600160a01b0316336001600160a01b0316141561015757610154816103ab565b600061023f61035f565b6001600160a01b0316336001600160a01b03161415610200576101fb61035f565b606061028583836040518060600160405280602781526020016107e1602791396103ff565b9392505050565b3b151590565b61029a61035f565b6001600160a01b0316336001600160a01b031614156101165760405162461bcd60e51b815260206004820152604260248201527f5472616e73706172656e745570677261646561626c6550726f78793a2061646d60448201527f696e2063616e6e6f742066616c6c6261636b20746f2070726f78792074617267606482015261195d60f21b608482015260a4015b60405180910390fd5b60006101fb6104d3565b3660008037600080366000845af43d6000803e80801561035a573d6000f35b3d6000fd5b60006000805160206107a18339815191525b546001600160a01b0316919050565b610389836104e9565b6000825111806103965750805b156101c3576103a58383610260565b50505050565b7f7e644d79422f17c01e4894b5f4f588d331ebfa28653d42ae832dc59e38c9798f6103d461035f565b604080516001600160a01b03928316815291841660208301520160405180910390a161015481610529565b6060833b61045e5760405162461bcd60e51b815260206004820152602660248201527f416464726573733a2064656c65676174652063616c6c20746f206e6f6e2d636f6044820152651b9d1c9858dd60d21b6064820152608401610328565b600080856001600160a01b0316856040516104799190610725565b600060405180830381855af49150503d80600081146104b4576040519150601f19603f3d011682016040523d82523d6000602084013e6104b9565b606091505b50915091506104c98282866105c0565b9695505050505050565b60006000805160206107c1833981519152610371565b6104f2816105f9565b6040516001600160a01b038216907fbc7cd75a20ee27fd9adebab32041f755214dbc6bffa90cc0225b39da2e5c2d3b90600090a250565b6001600160a01b03811661058e5760405162461bcd60e51b815260206004820152602660248201527f455243313936373a206e65772061646d696e20697320746865207a65726f206160448201526564647265737360d01b6064820152608401610328565b806000805160206107a18339815191525b80546001600160a01b0319166001600160a01b039290921691909117905550565b606083156105cf575081610285565b8251156105df5782518084602001fd5b8160405162461bcd60e51b81526004016103289190610741565b803b61065d5760405162461bcd60e51b815260206004820152602d60248201527f455243313936373a206e657720696d706c656d656e746174696f6e206973206e60448201526c1bdd08184818dbdb9d1c9858dd609a1b6064820152608401610328565b806000805160206107c183398151915261059f565b80356001600160a01b038116811461068957600080fd5b919050565b60006020828403121561069f578081fd5b61028582610672565b6000806000604084860312156106bc578182fd5b6106c584610672565b925060208401356001600160401b03808211156106e0578384fd5b818601915086601f8301126106f3578384fd5b813581811115610701578485fd5b876020828501011115610712578485fd5b6020830194508093505050509250925092565b60008251610737818460208701610774565b9190910192915050565b6020815260008251806020840152610760816040850160208701610774565b601f01601f19169190910160400192915050565b60005b8381101561078f578181015183820152602001610777565b838111156103a5575050600091015256feb53127684a568b3173ae13b9f8a6016e243e63b6e8ee1178d6a717850b5d6103360894a13ba1a3210667c828492db98dca3e2076cc3735a920a3ca505d382bbc416464726573733a206c6f772d6c6576656c2064656c65676174652063616c6c206661696c6564a264697066735822122064b11b2157d61600a09abbd0eaeb0a67e43f14e3005703114add6fac6fd353ec64736f6c63430008040033b53127684a568b3173ae13b9f8a6016e243e63b6e8ee1178d6a717850b5d6103360894a13ba1a3210667c828492db98dca3e2076cc3735a920a3ca505d382bbc416464726573733a206c6f772d6c6576656c2064656c65676174652063616c6c206661696c6564a26469706673582212201179a7697b60c223ce597b5e3dabc1561daf7dbea2311fe27d1d1768bff1f3e364736f6c63430008040033",
  "libraries": {
    "RuneRouterLib": "0x21AB41cabB999a8E78C5D74e44E43819022FD030"
  },
  "devdoc": {
    "kind": "dev",
    "methods": {
      "addRune(string,string,string,uint8,uint256)": {
        "details": "We assign tokenId to a supported Rune",
        "params": {
          "_internalId": "Internal id",
          "_runeId": "Real rune id"
        }
      },
      "initialize(uint256,uint256,uint256,uint256,address,address,bytes,uint8,address,address,address)": {
        "params": {
          "_chainId": "Id of the underlying chain",
          "_protocolPercentageFee": "Percentage amount of protocol fee (min: %0.01)",
          "_relay": "Bitcoin bridge address which validates Bitcoin tx",
          "_startingBlockNumber": "Requests included in a block older than _startingBlockNumber cannot be processed",
          "_treasury": "Address of treasury that collects protocol fees"
        }
      },
      "isWrapRequestProcessed(bytes32)": {
        "params": {
          "_txId": "of the request on Bitcoin"
        }
      },
      "owner()": {
        "details": "Returns the address of the current owner."
      },
      "renounceOwnership()": {
        "details": "Leaves the contract without owner. It will not be possible to call `onlyOwner` functions. Can only be called by the current owner. NOTE: Renouncing ownership will leave the contract without an owner, thereby disabling any functionality that is only available to the owner."
      },
      "retryFailedWrapAndSwap(bytes,bytes32,bytes32,uint8)": {
        "details": "Users can retry their failed exchange request if their request destination is different from the current chain",
        "params": {
          "_message": "ABI encode of (txId, outputAmount, acrossRelayerFee, exchangePath)",
          "_r": "Signature r",
          "_s": "Signature s",
          "_v": "Signature v"
        }
      },
      "setExchangeConnector(uint256,address)": {
        "details": "If address(0) is set for an appId, that appId is inactive"
      },
      "setRewardDistributor(address)": {
        "details": "This contract distributes locker fee between locker and stakers"
      },
      "transferOwnership(address)": {
        "details": "Transfers ownership of the contract to a new account (`newOwner`). Can only be called by the current owner."
      },
      "unwrapProofRune(bytes4,bytes,bytes,bytes4,uint256,bytes,uint256,uint256[])": {
        "details": "Only locker can call this function to validate Bitcoin transaction",
        "params": {
          "_blockNumber": "Block number of the Bitcoin transaction",
          "_index": "Index of the transaction in the block",
          "_intermediateNodes": "Merkle proof nodes",
          "_locktime": "Bitcoin transaction locktime",
          "_reqIndexes": "Array of processed unwrap request indexes with proofs",
          "_version": "Bitcoin transaction version",
          "_vin": "Bitcoin transaction input",
          "_vout": "Bitcoin transaction output"
        }
      },
      "unwrapRune(uint256,uint256,uint256,bytes,uint8,uint256,uint256,address[])": {
        "details": "For unwrap requests (not swap & unwrap), pass _appId,      _inputAmount and _path ZERO",
        "params": {
          "_amount": "of WRune that user wants to burn",
          "_scriptType": "User script type",
          "_userScript": "User script hash"
        }
      },
      "withdrawFailedWrapAndSwap(bytes,bytes32,bytes32,uint8)": {
        "details": "Users can get their Rune back if the request execution failed and      their request destination is different from the current chain",
        "params": {
          "_message": "ABI encode of (txId, scriptType, userScript)",
          "_r": "Signature r",
          "_s": "Signature s",
          "_v": "Signature v"
        }
      },
      "wrapRune(bytes4,bytes,bytes,bytes4,uint256,bytes,uint256,address[])": {
        "details": "Locker submits wrap requests to this function for:      1) Checking tx inclusion      2) Extracting wrap request info from the OP_RETURN output      3) Exchanging wrapped Rune (if request is wrap & exchange) using the path         provided by the locker",
        "params": {
          "_blockNumber": "that includes the tx",
          "_index": "of tx in the block",
          "_intermediateNodes": "Merkle proof for tx",
          "_locktime": "Tx locktime",
          "_version": "of Bitcoin tx",
          "_vin": "Tx inputs",
          "_vout": "Tx outputs"
        }
      }
    },
    "version": 1
  },
  "userdoc": {
    "events": {
      "FailedRuneWrapAndSwap(address,uint256,address,uint256,address,(uint256,uint256,uint256),address,bytes32,bool,uint256)": {
        "notice": "Emit when a wrap&swap request is processed but swap failed"
      },
      "NewLocker(address,address)": {
        "notice": "Emit when locker address updated"
      },
      "NewLockerPercentageFee(uint256,uint256)": {
        "notice": "Emit when protocol fee updated"
      },
      "NewProtocolPercentageFee(uint256,uint256)": {
        "notice": "Emit when protocol fee updated"
      },
      "NewRune(string,string,string,uint256,uint256,address,address)": {
        "notice": "Emit when new Rune added"
      },
      "NewRuneSwapAndUnwrap(address,bytes,uint8,uint256,address,uint256,uint256,address,(uint256,uint256,uint256),uint256,address,uint256)": {
        "notice": "Emit when a new rune swap&unwrap request is created"
      },
      "NewRuneUnwrap(address,bytes,uint8,address,uint256,uint256,(uint256,uint256,uint256),uint256,address,uint256)": {
        "notice": "Emit when a new rune unwrap request is created"
      },
      "NewRuneWrap(address,uint256,address,(uint256,uint256,uint256),address,bytes32)": {
        "notice": "Emit when a rune wrap request is processed"
      },
      "NewRuneWrapAndSwap(address,uint256,address,uint256,address,(uint256,uint256,uint256),address,bytes32)": {
        "notice": "Emit when a wrap&swap request is processed"
      },
      "NewRuneWrapAndSwapV2(address,uint256,address,uint256,address,(uint256,uint256,uint256),address,bytes32,bool,uint256,uint256)": {
        "notice": "Emit when a wrap&swap request is processed"
      },
      "NewTeleporter(address,address)": {
        "notice": "Emit when teleporter address updated"
      },
      "RuneRemoved(uint256,address)": {
        "notice": "Emit when Rune removed"
      },
      "ThirdPartyInfoUpdated(uint256,address,uint256,address,uint256)": {
        "notice": "Emit when third party fee updated"
      },
      "UnwrapRuneProcessed(address,uint256,bytes,uint8,uint256,bytes32)": {
        "notice": "Emit when a unwrap request is processed"
      }
    },
    "kind": "user",
    "methods": {
      "addRune(string,string,string,uint8,uint256)": {
        "notice": "Deploy wrapped Rune token contract"
      },
      "initialize(uint256,uint256,uint256,uint256,address,address,bytes,uint8,address,address,address)": {
        "notice": "Initialize the contract"
      },
      "isUnwrapRequestProcessed(uint256)": {
        "notice": "Check if the unwrap request has been processed before"
      },
      "isWrapRequestProcessed(bytes32)": {
        "notice": "Check if the wrap request has been processed before"
      },
      "removeRune(uint256)": {
        "notice": "Remove support of a wrapped RUNE token"
      },
      "retryFailedWrapAndSwap(bytes,bytes32,bytes32,uint8)": {
        "notice": "Retry for failed exchange request"
      },
      "setAcross(address)": {
        "notice": "Setter for across contract"
      },
      "setChainId(uint256)": {
        "notice": "Setter for chainId"
      },
      "setExchangeConnector(uint256,address)": {
        "notice": "Set exchange connector for appId"
      },
      "setLocker(address)": {
        "notice": "Setter for locker"
      },
      "setLockerLockingScript(bytes,uint8)": {
        "notice": "Setter for locker locking script"
      },
      "setLockerPercentageFee(uint256)": {
        "notice": "Setter for locker percentage fee"
      },
      "setProtocolPercentageFee(uint256)": {
        "notice": "Setter for protocol percentage fee"
      },
      "setRelay(address)": {
        "notice": "Setter for Bitcoin relay"
      },
      "setRewardDistributor(address)": {
        "notice": "Setter for reward distributor"
      },
      "setStartingBlockNumber(uint256)": {
        "notice": "Setter for starting block number"
      },
      "setTeleporter(address)": {
        "notice": "Setter for teleporter"
      },
      "setThirdParty(uint256,address,uint256)": {
        "notice": "Setter for third party address and fee"
      },
      "setTreasury(address)": {
        "notice": "Setter for treasury"
      },
      "setVirtualLocker(address,address)": {
        "notice": "Virtual locker is introduced bcz of reward distribution contract"
      },
      "setWrappedNativeToken(address)": {
        "notice": "Setter for wrapped native token"
      },
      "unwrapProofRune(bytes4,bytes,bytes,bytes4,uint256,bytes,uint256,uint256[])": {
        "notice": "Check proof of unwraping Runes"
      },
      "unwrapRune(uint256,uint256,uint256,bytes,uint8,uint256,uint256,address[])": {
        "notice": "Process unwrap request"
      },
      "withdrawFailedWrapAndSwap(bytes,bytes32,bytes32,uint8)": {
        "notice": "Request withdraw for failed exchange request"
      },
      "wrapRune(bytes4,bytes,bytes,bytes4,uint256,bytes,uint256,address[])": {
        "notice": "Process wrap Rune request"
      }
    },
    "version": 1
  },
  "storageLayout": {
    "storage": [
      {
        "astId": 11827,
        "contract": "contracts/rune_router/RuneRouterLogic.sol:RuneRouterLogic",
        "label": "_initialized",
        "offset": 0,
        "slot": "0",
        "type": "t_uint8"
      },
      {
        "astId": 11830,
        "contract": "contracts/rune_router/RuneRouterLogic.sol:RuneRouterLogic",
        "label": "_initializing",
        "offset": 1,
        "slot": "0",
        "type": "t_bool"
      },
      {
        "astId": 13298,
        "contract": "contracts/rune_router/RuneRouterLogic.sol:RuneRouterLogic",
        "label": "__gap",
        "offset": 0,
        "slot": "1",
        "type": "t_array(t_uint256)50_storage"
      },
      {
        "astId": 11699,
        "contract": "contracts/rune_router/RuneRouterLogic.sol:RuneRouterLogic",
        "label": "_owner",
        "offset": 0,
        "slot": "51",
        "type": "t_address"
      },
      {
        "astId": 11819,
        "contract": "contracts/rune_router/RuneRouterLogic.sol:RuneRouterLogic",
        "label": "__gap",
        "offset": 0,
        "slot": "52",
        "type": "t_array(t_uint256)49_storage"
      },
      {
        "astId": 12132,
        "contract": "contracts/rune_router/RuneRouterLogic.sol:RuneRouterLogic",
        "label": "_status",
        "offset": 0,
        "slot": "101",
        "type": "t_uint256"
      },
      {
        "astId": 12201,
        "contract": "contracts/rune_router/RuneRouterLogic.sol:RuneRouterLogic",
        "label": "__gap",
        "offset": 0,
        "slot": "102",
        "type": "t_array(t_uint256)49_storage"
      },
      {
        "astId": 46571,
        "contract": "contracts/rune_router/RuneRouterLogic.sol:RuneRouterLogic",
        "label": "startingBlockNumber",
        "offset": 0,
        "slot": "151",
        "type": "t_uint256"
      },
      {
        "astId": 46574,
        "contract": "contracts/rune_router/RuneRouterLogic.sol:RuneRouterLogic",
        "label": "chainId",
        "offset": 0,
        "slot": "152",
        "type": "t_uint256"
      },
      {
        "astId": 46577,
        "contract": "contracts/rune_router/RuneRouterLogic.sol:RuneRouterLogic",
        "label": "protocolPercentageFee",
        "offset": 0,
        "slot": "153",
        "type": "t_uint256"
      },
      {
        "astId": 46579,
        "contract": "contracts/rune_router/RuneRouterLogic.sol:RuneRouterLogic",
        "label": "lockerPercentageFee",
        "offset": 0,
        "slot": "154",
        "type": "t_uint256"
      },
      {
        "astId": 46581,
        "contract": "contracts/rune_router/RuneRouterLogic.sol:RuneRouterLogic",
        "label": "runeUnwrapCounter",
        "offset": 0,
        "slot": "155",
        "type": "t_uint256"
      },
      {
        "astId": 46584,
        "contract": "contracts/rune_router/RuneRouterLogic.sol:RuneRouterLogic",
        "label": "relay",
        "offset": 0,
        "slot": "156",
        "type": "t_address"
      },
      {
        "astId": 46587,
        "contract": "contracts/rune_router/RuneRouterLogic.sol:RuneRouterLogic",
        "label": "treasury",
        "offset": 0,
        "slot": "157",
        "type": "t_address"
      },
      {
        "astId": 46590,
        "contract": "contracts/rune_router/RuneRouterLogic.sol:RuneRouterLogic",
        "label": "locker",
        "offset": 0,
        "slot": "158",
        "type": "t_address"
      },
      {
        "astId": 46594,
        "contract": "contracts/rune_router/RuneRouterLogic.sol:RuneRouterLogic",
        "label": "supportedRunes",
        "offset": 0,
        "slot": "159",
        "type": "t_mapping(t_uint256,t_address)"
      },
      {
        "astId": 46598,
        "contract": "contracts/rune_router/RuneRouterLogic.sol:RuneRouterLogic",
        "label": "runeIds",
        "offset": 0,
        "slot": "160",
        "type": "t_mapping(t_address,t_string_storage)"
      },
      {
        "astId": 46602,
        "contract": "contracts/rune_router/RuneRouterLogic.sol:RuneRouterLogic",
        "label": "internalIds",
        "offset": 0,
        "slot": "161",
        "type": "t_mapping(t_address,t_uint256)"
      },
      {
        "astId": 46607,
        "contract": "contracts/rune_router/RuneRouterLogic.sol:RuneRouterLogic",
        "label": "runeWrapRequests",
        "offset": 0,
        "slot": "162",
        "type": "t_mapping(t_bytes32,t_struct(runeWrapRequest)46676_storage)"
      },
      {
        "astId": 46612,
        "contract": "contracts/rune_router/RuneRouterLogic.sol:RuneRouterLogic",
        "label": "exchangeConnector",
        "offset": 0,
        "slot": "163",
        "type": "t_mapping(t_uint256,t_address)"
      },
      {
        "astId": 46616,
        "contract": "contracts/rune_router/RuneRouterLogic.sol:RuneRouterLogic",
        "label": "runeUnwrapRequests",
        "offset": 0,
        "slot": "164",
        "type": "t_array(t_struct(runeUnwrapRequest)46692_storage)dyn_storage"
      },
      {
        "astId": 46619,
        "contract": "contracts/rune_router/RuneRouterLogic.sol:RuneRouterLogic",
        "label": "lockerLockingScript",
        "offset": 0,
        "slot": "165",
        "type": "t_bytes_storage"
      },
      {
        "astId": 46623,
        "contract": "contracts/rune_router/RuneRouterLogic.sol:RuneRouterLogic",
        "label": "lockerScriptType",
        "offset": 0,
        "slot": "166",
        "type": "t_enum(ScriptTypes)20049"
      },
      {
        "astId": 46626,
        "contract": "contracts/rune_router/RuneRouterLogic.sol:RuneRouterLogic",
        "label": "teleporter",
        "offset": 1,
        "slot": "166",
        "type": "t_address"
      },
      {
        "astId": 46631,
        "contract": "contracts/rune_router/RuneRouterLogic.sol:RuneRouterLogic",
        "label": "thirdParties",
        "offset": 0,
        "slot": "167",
        "type": "t_mapping(t_uint256,t_struct(thirdParty)46697_storage)"
      },
      {
        "astId": 46633,
        "contract": "contracts/rune_router/RuneRouterLogic.sol:RuneRouterLogic",
        "label": "unwrapFee",
        "offset": 0,
        "slot": "168",
        "type": "t_uint256"
      },
      {
        "astId": 46635,
        "contract": "contracts/rune_router/RuneRouterLogic.sol:RuneRouterLogic",
        "label": "wrappedNativeToken",
        "offset": 0,
        "slot": "169",
        "type": "t_address"
      },
      {
        "astId": 46637,
        "contract": "contracts/rune_router/RuneRouterLogic.sol:RuneRouterLogic",
        "label": "rewardDistributor",
        "offset": 0,
        "slot": "170",
        "type": "t_address"
      },
      {
        "astId": 46641,
        "contract": "contracts/rune_router/RuneRouterLogic.sol:RuneRouterLogic",
        "label": "virtualLocker",
        "offset": 0,
        "slot": "171",
        "type": "t_mapping(t_address,t_address)"
      },
      {
        "astId": 46643,
        "contract": "contracts/rune_router/RuneRouterLogic.sol:RuneRouterLogic",
        "label": "across",
        "offset": 0,
        "slot": "172",
        "type": "t_address"
      }
    ],
    "types": {
      "t_address": {
        "encoding": "inplace",
        "label": "address",
        "numberOfBytes": "20"
      },
      "t_array(t_struct(runeUnwrapRequest)46692_storage)dyn_storage": {
        "base": "t_struct(runeUnwrapRequest)46692_storage",
        "encoding": "dynamic_array",
        "label": "struct IRuneRouter.runeUnwrapRequest[]",
        "numberOfBytes": "32"
      },
      "t_array(t_uint256)49_storage": {
        "base": "t_uint256",
        "encoding": "inplace",
        "label": "uint256[49]",
        "numberOfBytes": "1568"
      },
      "t_array(t_uint256)50_storage": {
        "base": "t_uint256",
        "encoding": "inplace",
        "label": "uint256[50]",
        "numberOfBytes": "1600"
      },
      "t_bool": {
        "encoding": "inplace",
        "label": "bool",
        "numberOfBytes": "1"
      },
      "t_bytes32": {
        "encoding": "inplace",
        "label": "bytes32",
        "numberOfBytes": "32"
      },
      "t_bytes_storage": {
        "encoding": "bytes",
        "label": "bytes",
        "numberOfBytes": "32"
      },
      "t_enum(ScriptTypes)20049": {
        "encoding": "inplace",
        "label": "enum ScriptTypes",
        "numberOfBytes": "1"
      },
      "t_mapping(t_address,t_address)": {
        "encoding": "mapping",
        "key": "t_address",
        "label": "mapping(address => address)",
        "numberOfBytes": "32",
        "value": "t_address"
      },
      "t_mapping(t_address,t_string_storage)": {
        "encoding": "mapping",
        "key": "t_address",
        "label": "mapping(address => string)",
        "numberOfBytes": "32",
        "value": "t_string_storage"
      },
      "t_mapping(t_address,t_uint256)": {
        "encoding": "mapping",
        "key": "t_address",
        "label": "mapping(address => uint256)",
        "numberOfBytes": "32",
        "value": "t_uint256"
      },
      "t_mapping(t_bytes32,t_struct(runeWrapRequest)46676_storage)": {
        "encoding": "mapping",
        "key": "t_bytes32",
        "label": "mapping(bytes32 => struct IRuneRouter.runeWrapRequest)",
        "numberOfBytes": "32",
        "value": "t_struct(runeWrapRequest)46676_storage"
      },
      "t_mapping(t_uint256,t_address)": {
        "encoding": "mapping",
        "key": "t_uint256",
        "label": "mapping(uint256 => address)",
        "numberOfBytes": "32",
        "value": "t_address"
      },
      "t_mapping(t_uint256,t_struct(thirdParty)46697_storage)": {
        "encoding": "mapping",
        "key": "t_uint256",
        "label": "mapping(uint256 => struct IRuneRouter.thirdParty)",
        "numberOfBytes": "32",
        "value": "t_struct(thirdParty)46697_storage"
      },
      "t_string_storage": {
        "encoding": "bytes",
        "label": "string",
        "numberOfBytes": "32"
      },
      "t_struct(runeUnwrapRequest)46692_storage": {
        "encoding": "inplace",
        "label": "struct IRuneRouter.runeUnwrapRequest",
        "members": [
          {
            "astId": 46678,
            "contract": "contracts/rune_router/RuneRouterLogic.sol:RuneRouterLogic",
            "label": "isProcessed",
            "offset": 0,
            "slot": "0",
            "type": "t_bool"
          },
          {
            "astId": 46680,
            "contract": "contracts/rune_router/RuneRouterLogic.sol:RuneRouterLogic",
            "label": "amount",
            "offset": 0,
            "slot": "1",
            "type": "t_uint256"
          },
          {
            "astId": 46682,
            "contract": "contracts/rune_router/RuneRouterLogic.sol:RuneRouterLogic",
            "label": "burntAmount",
            "offset": 0,
            "slot": "2",
            "type": "t_uint256"
          },
          {
            "astId": 46684,
            "contract": "contracts/rune_router/RuneRouterLogic.sol:RuneRouterLogic",
            "label": "appId",
            "offset": 0,
            "slot": "3",
            "type": "t_uint256"
          },
          {
            "astId": 46686,
            "contract": "contracts/rune_router/RuneRouterLogic.sol:RuneRouterLogic",
            "label": "sender",
            "offset": 0,
            "slot": "4",
            "type": "t_address"
          },
          {
            "astId": 46688,
            "contract": "contracts/rune_router/RuneRouterLogic.sol:RuneRouterLogic",
            "label": "userScript",
            "offset": 0,
            "slot": "5",
            "type": "t_bytes_storage"
          },
          {
            "astId": 46691,
            "contract": "contracts/rune_router/RuneRouterLogic.sol:RuneRouterLogic",
            "label": "scriptType",
            "offset": 0,
            "slot": "6",
            "type": "t_enum(ScriptTypes)20049"
          }
        ],
        "numberOfBytes": "224"
      },
      "t_struct(runeWrapRequest)46676_storage": {
        "encoding": "inplace",
        "label": "struct IRuneRouter.runeWrapRequest",
        "members": [
          {
            "astId": 46649,
            "contract": "contracts/rune_router/RuneRouterLogic.sol:RuneRouterLogic",
            "label": "isUsed",
            "offset": 0,
            "slot": "0",
            "type": "t_bool"
          },
          {
            "astId": 46651,
            "contract": "contracts/rune_router/RuneRouterLogic.sol:RuneRouterLogic",
            "label": "chainId",
            "offset": 0,
            "slot": "1",
            "type": "t_uint256"
          },
          {
            "astId": 46653,
            "contract": "contracts/rune_router/RuneRouterLogic.sol:RuneRouterLogic",
            "label": "appId",
            "offset": 0,
            "slot": "2",
            "type": "t_uint256"
          },
          {
            "astId": 46655,
            "contract": "contracts/rune_router/RuneRouterLogic.sol:RuneRouterLogic",
            "label": "tokenId",
            "offset": 0,
            "slot": "3",
            "type": "t_uint256"
          },
          {
            "astId": 46657,
            "contract": "contracts/rune_router/RuneRouterLogic.sol:RuneRouterLogic",
            "label": "inputAmount",
            "offset": 0,
            "slot": "4",
            "type": "t_uint256"
          },
          {
            "astId": 46659,
            "contract": "contracts/rune_router/RuneRouterLogic.sol:RuneRouterLogic",
            "label": "inputToken",
            "offset": 0,
            "slot": "5",
            "type": "t_address"
          },
          {
            "astId": 46661,
            "contract": "contracts/rune_router/RuneRouterLogic.sol:RuneRouterLogic",
            "label": "recipientAddress",
            "offset": 0,
            "slot": "6",
            "type": "t_address"
          },
          {
            "astId": 46663,
            "contract": "contracts/rune_router/RuneRouterLogic.sol:RuneRouterLogic",
            "label": "thirdPartyId",
            "offset": 0,
            "slot": "7",
            "type": "t_uint256"
          },
          {
            "astId": 46665,
            "contract": "contracts/rune_router/RuneRouterLogic.sol:RuneRouterLogic",
            "label": "fee",
            "offset": 0,
            "slot": "8",
            "type": "t_uint256"
          },
          {
            "astId": 46667,
            "contract": "contracts/rune_router/RuneRouterLogic.sol:RuneRouterLogic",
            "label": "outputAmount",
            "offset": 0,
            "slot": "9",
            "type": "t_uint256"
          },
          {
            "astId": 46669,
            "contract": "contracts/rune_router/RuneRouterLogic.sol:RuneRouterLogic",
            "label": "outputToken",
            "offset": 0,
            "slot": "10",
            "type": "t_address"
          },
          {
            "astId": 46671,
            "contract": "contracts/rune_router/RuneRouterLogic.sol:RuneRouterLogic",
            "label": "bridgeFee",
            "offset": 0,
            "slot": "11",
            "type": "t_uint256"
          },
          {
            "astId": 46673,
            "contract": "contracts/rune_router/RuneRouterLogic.sol:RuneRouterLogic",
            "label": "speed",
            "offset": 0,
            "slot": "12",
            "type": "t_bool"
          },
          {
            "astId": 46675,
            "contract": "contracts/rune_router/RuneRouterLogic.sol:RuneRouterLogic",
            "label": "isTransferredToOtherChain",
            "offset": 1,
            "slot": "12",
            "type": "t_bool"
          }
        ],
        "numberOfBytes": "416"
      },
      "t_struct(thirdParty)46697_storage": {
        "encoding": "inplace",
        "label": "struct IRuneRouter.thirdParty",
        "members": [
          {
            "astId": 46694,
            "contract": "contracts/rune_router/RuneRouterLogic.sol:RuneRouterLogic",
            "label": "thirdPartyAddress",
            "offset": 0,
            "slot": "0",
            "type": "t_address"
          },
          {
            "astId": 46696,
            "contract": "contracts/rune_router/RuneRouterLogic.sol:RuneRouterLogic",
            "label": "thirdPartyFee",
            "offset": 0,
            "slot": "1",
            "type": "t_uint256"
          }
        ],
        "numberOfBytes": "64"
      },
      "t_uint256": {
        "encoding": "inplace",
        "label": "uint256",
        "numberOfBytes": "32"
      },
      "t_uint8": {
        "encoding": "inplace",
        "label": "uint8",
        "numberOfBytes": "1"
      }
    }
  }
}